{
  "transactions": [
    {
      "hash": "0x5eba527a9cde82992fdb82e3eec894f9f26188bbea2e0feebfb08a6eaf48fb6b",
      "transactionType": "CALL",
      "contractName": null,
      "contractAddress": "0xbc8cdf5400b785bf2142dee4627009702bfcba41",
      "function": "setRemoteBridge(address,bool)",
      "arguments": [
        "0xD60C2bda109213Cba11EE67aD19Abe7D353f064c",
        "true"
      ],
      "transaction": {
        "from": "0x0e128580d848fb51849ab6564467a9ba79b4820c",
        "to": "0xbc8cdf5400b785bf2142dee4627009702bfcba41",
        "gas": "0x17763",
        "value": "0x0",
        "input": "0x5caffcd6000000000000000000000000d60c2bda109213cba11ee67ad19abe7d353f064c0000000000000000000000000000000000000000000000000000000000000001",
        "nonce": "0x173",
        "chainId": "0xaa37dc"
      },
      "additionalContracts": [],
      "isFixedGasLimit": false
    }
  ],
  "receipts": [
    {
      "status": "0x1",
      "cumulativeGasUsed": "0x1c3ef",
      "logs": [
        {
          "address": "0xbc8cdf5400b785bf2142dee4627009702bfcba41",
          "topics": [
            "0xa54ce142349af8e389fe00f37d69e79664a287b29c8e325917962e92e4fe5fcd"
          ],
          "data": "0x000000000000000000000000d60c2bda109213cba11ee67ad19abe7d353f064c",
          "blockHash": "0xee968f91b22311ae7192eb3b4df55e323eab97470715e2c96c222ff19fd724ea",
          "blockNumber": "0x20b8824",
          "blockTimestamp": "0x68edebf4",
          "transactionHash": "0x5eba527a9cde82992fdb82e3eec894f9f26188bbea2e0feebfb08a6eaf48fb6b",
          "transactionIndex": "0x1",
          "logIndex": "0x0",
          "removed": false
        }
      ],
      "logsBloom": "0x00000000000001000000000000000000000000000000000000000000000000000000000000000000000000000000000000000000000000000000000000000000000000000000000000000000000000000000000000000000000000000000000000000000000000000000000000000000000000000000000000000000000000000000080000000000000000000000000000000000000000000000000000000000000000000000000000000000000000000000000000000000000000000000000000000000000000000000400000000000000000020000000000000000000000000000000000000000000000000000000000000000000000000000000000300000",
      "type": "0x2",
      "transactionHash": "0x5eba527a9cde82992fdb82e3eec894f9f26188bbea2e0feebfb08a6eaf48fb6b",
      "transactionIndex": "0x1",
      "blockHash": "0xee968f91b22311ae7192eb3b4df55e323eab97470715e2c96c222ff19fd724ea",
      "blockNumber": "0x20b8824",
      "gasUsed": "0x10fc7",
      "effectiveGasPrice": "0xf433a",
      "from": "0x0e128580d848fb51849ab6564467a9ba79b4820c",
      "to": "0xbc8cdf5400b785bf2142dee4627009702bfcba41",
      "contractAddress": null,
      "l1BaseFeeScalar": "0x1db0",
      "l1BlobBaseFee": "0x94d9",
      "l1BlobBaseFeeScalar": "0xd2730",
      "l1Fee": "0x321f49",
      "l1GasPrice": "0xd",
      "l1GasUsed": "0x640"
    }
  ],
  "libraries": [],
  "pending": [],
  "returns": {},
  "timestamp": 1760422899,
  "chain": 11155420,
  "commit": "50e392c"
}