{
  "transactions": [
    {
      "hash": "0x640337d45439a8cb6f06532b57abd3b17babafe8714be2136205f807bd5b8c50",
      "transactionType": "CALL",
      "contractName": null,
      "contractAddress": "0x70f9f8a0486e98b11b4db80ca22b3d862f35e293",
      "function": "setRemoteBridge(uint64,address,bool)",
      "arguments": [
        "3478487238524512106",
        "0x2aDbC5CbD2420EbcE71F210Dcc24bce64F370d32",
        "true"
      ],
      "transaction": {
        "from": "0x0e128580d848fb51849ab6564467a9ba79b4820c",
        "to": "0x70f9f8a0486e98b11b4db80ca22b3d862f35e293",
        "gas": "0x17877",
        "value": "0x0",
        "input": "0x11d82d55000000000000000000000000000000000000000000000000304611b6affba76a0000000000000000000000002adbc5cbd2420ebce71f210dcc24bce64f370d320000000000000000000000000000000000000000000000000000000000000001",
        "nonce": "0x256",
        "chainId": "0xaa37dc"
      },
      "additionalContracts": [],
      "isFixedGasLimit": false
    },
    {
      "hash": "0x965138f013082fb3e57d224623c903a4e3793f16ed12b79afcdd5b18b19aaaba",
      "transactionType": "CALL",
      "contractName": null,
      "contractAddress": "0x7dfc42e9307bfe7a45037090e906f8bbeb13ae4f",
      "function": "setAllowedToken(address,bool)",
      "arguments": [
        "0xE4aB69C077896252FAFBD49EFD26B5D171A32410",
        "true"
      ],
      "transaction": {
        "from": "0x0e128580d848fb51849ab6564467a9ba79b4820c",
        "to": "0x7dfc42e9307bfe7a45037090e906f8bbeb13ae4f",
        "gas": "0xbbb7",
        "value": "0x0",
        "input": "0x8aaa2284000000000000000000000000e4ab69c077896252fafbd49efd26b5d171a324100000000000000000000000000000000000000000000000000000000000000001",
        "nonce": "0x257",
        "chainId": "0xaa37dc"
      },
      "additionalContracts": [],
      "isFixedGasLimit": false
    },
    {
      "hash": "0x63dc53019ffdb42f26c0278ccaf1600321d598063424e3c6fc4ff5abd35da5d6",
      "transactionType": "CALL",
      "contractName": null,
      "contractAddress": "0x7dfc42e9307bfe7a45037090e906f8bbeb13ae4f",
      "function": "setAllowedToken(address,bool)",
      "arguments": [
        "0x5fd84259d66Cd46123540766Be93DFE6D43130D7",
        "true"
      ],
      "transaction": {
        "from": "0x0e128580d848fb51849ab6564467a9ba79b4820c",
        "to": "0x7dfc42e9307bfe7a45037090e906f8bbeb13ae4f",
        "gas": "0xbbb7",
        "value": "0x0",
        "input": "0x8aaa22840000000000000000000000005fd84259d66cd46123540766be93dfe6d43130d70000000000000000000000000000000000000000000000000000000000000001",
        "nonce": "0x258",
        "chainId": "0xaa37dc"
      },
      "additionalContracts": [],
      "isFixedGasLimit": false
    },
    {
      "hash": "0x5b382876e3cec5cad0573b2cabb8bbf89b9402e5b8aa189b9dbc1259d69bca9c",
      "transactionType": "CALL",
      "contractName": null,
      "contractAddress": "0x7dfc42e9307bfe7a45037090e906f8bbeb13ae4f",
      "function": "setAllowedToken(address,bool)",
      "arguments": [
        "0x1c7D4B196Cb0C7B01d743Fbc6116a902379C7238",
        "true"
      ],
      "transaction": {
        "from": "0x0e128580d848fb51849ab6564467a9ba79b4820c",
        "to": "0x7dfc42e9307bfe7a45037090e906f8bbeb13ae4f",
        "gas": "0xbbb7",
        "value": "0x0",
        "input": "0x8aaa22840000000000000000000000001c7d4b196cb0c7b01d743fbc6116a902379c72380000000000000000000000000000000000000000000000000000000000000001",
        "nonce": "0x259",
        "chainId": "0xaa37dc"
      },
      "additionalContracts": [],
      "isFixedGasLimit": false
    },
    {
      "hash": "0xda98b75a016e235fe9642cc2434d92ee0686b34a1f92f1a3c5390ae9e05469d5",
      "transactionType": "CALL",
      "contractName": null,
      "contractAddress": "0x7dfc42e9307bfe7a45037090e906f8bbeb13ae4f",
      "function": "setAllowedToken(address,bool)",
      "arguments": [
        "0x75faf114eafb1BDbe2F0316DF893fd58CE46AA4d",
        "true"
      ],
      "transaction": {
        "from": "0x0e128580d848fb51849ab6564467a9ba79b4820c",
        "to": "0x7dfc42e9307bfe7a45037090e906f8bbeb13ae4f",
        "gas": "0xbbb7",
        "value": "0x0",
        "input": "0x8aaa228400000000000000000000000075faf114eafb1bdbe2f0316df893fd58ce46aa4d0000000000000000000000000000000000000000000000000000000000000001",
        "nonce": "0x25a",
        "chainId": "0xaa37dc"
      },
      "additionalContracts": [],
      "isFixedGasLimit": false
    },
    {
      "hash": "0x6c13ea076a5883f49b8fd88d1c2f93e4dcfb81613d97a6030f2dc4b4b845c83d",
      "transactionType": "CALL",
      "contractName": null,
      "contractAddress": "0x7dfc42e9307bfe7a45037090e906f8bbeb13ae4f",
      "function": "addPriceFeed(address,address)",
      "arguments": [
        "0x1c7D4B196Cb0C7B01d743Fbc6116a902379C7238",
        "0xA2F78ab2355fe2f984D808B5CeE7FD0A93D5270E"
      ],
      "transaction": {
        "from": "0x0e128580d848fb51849ab6564467a9ba79b4820c",
        "to": "0x7dfc42e9307bfe7a45037090e906f8bbeb13ae4f",
        "gas": "0x14683",
        "value": "0x0",
        "input": "0xe8a97a3e0000000000000000000000001c7d4b196cb0c7b01d743fbc6116a902379c7238000000000000000000000000a2f78ab2355fe2f984d808b5cee7fd0a93d5270e",
        "nonce": "0x25b",
        "chainId": "0xaa37dc"
      },
      "additionalContracts": [],
      "isFixedGasLimit": false
    },
    {
      "hash": "0x071ba54332c392e4668935073f0d64c73fa116710dbd84bba070a1f647c8ecbc",
      "transactionType": "CALL",
      "contractName": null,
      "contractAddress": "0x7dfc42e9307bfe7a45037090e906f8bbeb13ae4f",
      "function": "addPriceFeed(address,address)",
      "arguments": [
        "0x5fd84259d66Cd46123540766Be93DFE6D43130D7",
        "0x6e44e50E3cc14DD16e01C590DC1d7020cb36eD4C"
      ],
      "transaction": {
        "from": "0x0e128580d848fb51849ab6564467a9ba79b4820c",
        "to": "0x7dfc42e9307bfe7a45037090e906f8bbeb13ae4f",
        "gas": "0x14683",
        "value": "0x0",
        "input": "0xe8a97a3e0000000000000000000000005fd84259d66cd46123540766be93dfe6d43130d70000000000000000000000006e44e50e3cc14dd16e01c590dc1d7020cb36ed4c",
        "nonce": "0x25c",
        "chainId": "0xaa37dc"
      },
      "additionalContracts": [],
      "isFixedGasLimit": false
    },
    {
      "hash": "0xbcac38d0ccda56cfde465c0543a29e49c6bc56c25cccd5e5cacbf7c0dd7ca4ff",
      "transactionType": "CALL",
      "contractName": null,
      "contractAddress": "0x7dfc42e9307bfe7a45037090e906f8bbeb13ae4f",
      "function": "addPriceFeed(address,address)",
      "arguments": [
        "0x75faf114eafb1BDbe2F0316DF893fd58CE46AA4d",
        "0x0153002d20B96532C639313c2d54c3dA09109309"
      ],
      "transaction": {
        "from": "0x0e128580d848fb51849ab6564467a9ba79b4820c",
        "to": "0x7dfc42e9307bfe7a45037090e906f8bbeb13ae4f",
        "gas": "0x14672",
        "value": "0x0",
        "input": "0xe8a97a3e00000000000000000000000075faf114eafb1bdbe2f0316df893fd58ce46aa4d0000000000000000000000000153002d20b96532c639313c2d54c3da09109309",
        "nonce": "0x25d",
        "chainId": "0xaa37dc"
      },
      "additionalContracts": [],
      "isFixedGasLimit": false
    }
  ],
  "receipts": [
    {
      "status": "0x1",
      "cumulativeGasUsed": "0x1da7f",
      "logs": [
        {
          "address": "0x70f9f8a0486e98b11b4db80ca22b3d862f35e293",
          "topics": [
            "0xa54ce142349af8e389fe00f37d69e79664a287b29c8e325917962e92e4fe5fcd"
          ],
          "data": "0x0000000000000000000000002adbc5cbd2420ebce71f210dcc24bce64f370d32",
          "blockHash": "0xfff59c4e1f221a82ae66d92e6821d00da0c0daf7d3325d88c44ff2864b79a3e7",
          "blockNumber": "0x2120958",
          "blockTimestamp": "0x68faee5c",
          "transactionHash": "0x640337d45439a8cb6f06532b57abd3b17babafe8714be2136205f807bd5b8c50",
          "transactionIndex": "0x1",
          "logIndex": "0x0",
          "removed": false
        }
      ],
      "logsBloom": "0x00000000000001000000000000000000000000000000000000000000000000000000000000000000000000000000000000000000000000000000000000000000000000000000000000000000000000000000000000000000000000000000000000000000000000000000000000000000000000000000000000000000000000000000000000000000000000000000000000000000000000000000000000000010000000000000000000000000000400000000000000000000000000000000000000000000000000000000400000000000000000000000000000000000000000000000000000000000000000000000000000000000000000000000002000100000",
      "type": "0x2",
      "transactionHash": "0x640337d45439a8cb6f06532b57abd3b17babafe8714be2136205f807bd5b8c50",
      "transactionIndex": "0x1",
      "blockHash": "0xfff59c4e1f221a82ae66d92e6821d00da0c0daf7d3325d88c44ff2864b79a3e7",
      "blockNumber": "0x2120958",
      "gasUsed": "0x1108f",
      "effectiveGasPrice": "0xf433a",
      "from": "0x0e128580d848fb51849ab6564467a9ba79b4820c",
      "to": "0x70f9f8a0486e98b11b4db80ca22b3d862f35e293",
      "contractAddress": null,
      "l1BaseFeeScalar": "0x1db0",
      "l1BlobBaseFee": "0x1",
      "l1BlobBaseFeeScalar": "0xd2730",
      "l1Fee": "0xb7",
      "l1GasPrice": "0x8",
      "l1GasUsed": "0x640"
    },
    {
      "status": "0x1",
      "cumulativeGasUsed": "0x25ada",
      "logs": [
        {
          "address": "0x7dfc42e9307bfe7a45037090e906f8bbeb13ae4f",
          "topics": [
            "0x3a7d4b919c66e25bb96b646b1fa5df47aca5411773bfe1829fc8e86ab7006e6a",
            "0x000000000000000000000000e4ab69c077896252fafbd49efd26b5d171a32410"
          ],
          "data": "0x0000000000000000000000000000000000000000000000000000000000000001",
          "blockHash": "0xfff59c4e1f221a82ae66d92e6821d00da0c0daf7d3325d88c44ff2864b79a3e7",
          "blockNumber": "0x2120958",
          "blockTimestamp": "0x68faee5c",
          "transactionHash": "0x965138f013082fb3e57d224623c903a4e3793f16ed12b79afcdd5b18b19aaaba",
          "transactionIndex": "0x2",
          "logIndex": "0x1",
          "removed": false
        }
      ],
      "logsBloom": "0x00000000000000000000000000000000000000000000000000004000000002008000000000000000000000000000000000000000000000000000000000000000000000000000000000000000000000000020000000000000000000000000000000000000001000000000000000000000000000000000000000000000000000000000000000002000000000001000000000000000000000000000000000000000000000000000000000000000000000000000000000000200000000000000000000000000000000000000000000010000000000000000000000000000000000000000000000000000000000000000000000000000000000000000000000000000",
      "type": "0x2",
      "transactionHash": "0x965138f013082fb3e57d224623c903a4e3793f16ed12b79afcdd5b18b19aaaba",
      "transactionIndex": "0x2",
      "blockHash": "0xfff59c4e1f221a82ae66d92e6821d00da0c0daf7d3325d88c44ff2864b79a3e7",
      "blockNumber": "0x2120958",
      "gasUsed": "0x805b",
      "effectiveGasPrice": "0xf433a",
      "from": "0x0e128580d848fb51849ab6564467a9ba79b4820c",
      "to": "0x7dfc42e9307bfe7a45037090e906f8bbeb13ae4f",
      "contractAddress": null,
      "l1BaseFeeScalar": "0x1db0",
      "l1BlobBaseFee": "0x1",
      "l1BlobBaseFeeScalar": "0xd2730",
      "l1Fee": "0xb7",
      "l1GasPrice": "0x8",
      "l1GasUsed": "0x640"
    },
    {
      "status": "0x1",
      "cumulativeGasUsed": "0x2db35",
      "logs": [
        {
          "address": "0x7dfc42e9307bfe7a45037090e906f8bbeb13ae4f",
          "topics": [
            "0x3a7d4b919c66e25bb96b646b1fa5df47aca5411773bfe1829fc8e86ab7006e6a",
            "0x0000000000000000000000005fd84259d66cd46123540766be93dfe6d43130d7"
          ],
          "data": "0x0000000000000000000000000000000000000000000000000000000000000001",
          "blockHash": "0xfff59c4e1f221a82ae66d92e6821d00da0c0daf7d3325d88c44ff2864b79a3e7",
          "blockNumber": "0x2120958",
          "blockTimestamp": "0x68faee5c",
          "transactionHash": "0x63dc53019ffdb42f26c0278ccaf1600321d598063424e3c6fc4ff5abd35da5d6",
          "transactionIndex": "0x3",
          "logIndex": "0x2",
          "removed": false
        }
      ],
      "logsBloom": "0x00000001000000000000000000000000000000000000000000000000000002008000000000000000000000000000000000000000000000000000000000000000000000000000000000000000000000000020000000000000000000000000000000000000009000000000000000000000000000000000000000000000000000000000000000000000000000001000000000000000000000000000000000000000000000000000000000000000000000000000000000000200000000000000000000000000000000000000000000000000000000000000000000000000000000000000000000000000100000000000000000000000000000000000000000000000",
      "type": "0x2",
      "transactionHash": "0x63dc53019ffdb42f26c0278ccaf1600321d598063424e3c6fc4ff5abd35da5d6",
      "transactionIndex": "0x3",
      "blockHash": "0xfff59c4e1f221a82ae66d92e6821d00da0c0daf7d3325d88c44ff2864b79a3e7",
      "blockNumber": "0x2120958",
      "gasUsed": "0x805b",
      "effectiveGasPrice": "0xf433a",
      "from": "0x0e128580d848fb51849ab6564467a9ba79b4820c",
      "to": "0x7dfc42e9307bfe7a45037090e906f8bbeb13ae4f",
      "contractAddress": null,
      "l1BaseFeeScalar": "0x1db0",
      "l1BlobBaseFee": "0x1",
      "l1BlobBaseFeeScalar": "0xd2730",
      "l1Fee": "0xb7",
      "l1GasPrice": "0x8",
      "l1GasUsed": "0x640"
    },
    {
      "status": "0x1",
      "cumulativeGasUsed": "0x35b90",
      "logs": [
        {
          "address": "0x7dfc42e9307bfe7a45037090e906f8bbeb13ae4f",
          "topics": [
            "0x3a7d4b919c66e25bb96b646b1fa5df47aca5411773bfe1829fc8e86ab7006e6a",
            "0x0000000000000000000000001c7d4b196cb0c7b01d743fbc6116a902379c7238"
          ],
          "data": "0x0000000000000000000000000000000000000000000000000000000000000001",
          "blockHash": "0xfff59c4e1f221a82ae66d92e6821d00da0c0daf7d3325d88c44ff2864b79a3e7",
          "blockNumber": "0x2120958",
          "blockTimestamp": "0x68faee5c",
          "transactionHash": "0x5b382876e3cec5cad0573b2cabb8bbf89b9402e5b8aa189b9dbc1259d69bca9c",
          "transactionIndex": "0x4",
          "logIndex": "0x3",
          "removed": false
        }
      ],
      "logsBloom": "0x00000000000000000000000000000000000000000000000000000000000002008000000000000000000000000000000000000000000004000000000000000000100000000000000000000000000000000020000000000000000000000000000000000000001000000000000000000000000000000000000000000000000000000000000000000000000000001000000000000000000000000000000000000000000000000000000000000000000000000000008000000200000000000000000000000000000000000000000000000000000000000000000000000000000000000000000000000000000000000000000000000000000000000000000000000000",
      "type": "0x2",
      "transactionHash": "0x5b382876e3cec5cad0573b2cabb8bbf89b9402e5b8aa189b9dbc1259d69bca9c",
      "transactionIndex": "0x4",
      "blockHash": "0xfff59c4e1f221a82ae66d92e6821d00da0c0daf7d3325d88c44ff2864b79a3e7",
      "blockNumber": "0x2120958",
      "gasUsed": "0x805b",
      "effectiveGasPrice": "0xf433a",
      "from": "0x0e128580d848fb51849ab6564467a9ba79b4820c",
      "to": "0x7dfc42e9307bfe7a45037090e906f8bbeb13ae4f",
      "contractAddress": null,
      "l1BaseFeeScalar": "0x1db0",
      "l1BlobBaseFee": "0x1",
      "l1BlobBaseFeeScalar": "0xd2730",
      "l1Fee": "0xb7",
      "l1GasPrice": "0x8",
      "l1GasUsed": "0x640"
    },
    {
      "status": "0x1",
      "cumulativeGasUsed": "0x3dbeb",
      "logs": [
        {
          "address": "0x7dfc42e9307bfe7a45037090e906f8bbeb13ae4f",
          "topics": [
            "0x3a7d4b919c66e25bb96b646b1fa5df47aca5411773bfe1829fc8e86ab7006e6a",
            "0x00000000000000000000000075faf114eafb1bdbe2f0316df893fd58ce46aa4d"
          ],
          "data": "0x0000000000000000000000000000000000000000000000000000000000000001",
          "blockHash": "0xfff59c4e1f221a82ae66d92e6821d00da0c0daf7d3325d88c44ff2864b79a3e7",
          "blockNumber": "0x2120958",
          "blockTimestamp": "0x68faee5c",
          "transactionHash": "0xda98b75a016e235fe9642cc2434d92ee0686b34a1f92f1a3c5390ae9e05469d5",
          "transactionIndex": "0x5",
          "logIndex": "0x4",
          "removed": false
        }
      ],
      "logsBloom": "0x00000000000000000000000000000000000000000000000000000000000002008000000000000000000000000000000000008000000000000000000000000000000000000000000000000000000000000020000000000000000000000000000000000000001000000000000000000000020000000000002000000000000000000000000000000000000000001000000000000000000000000000000000000000000000000000000000000000000000000000000000000200000000000000000000000000000000000000000000000000000000000000000000000000000000000000000000000000000000000000000000000000000000000000000000000000",
      "type": "0x2",
      "transactionHash": "0xda98b75a016e235fe9642cc2434d92ee0686b34a1f92f1a3c5390ae9e05469d5",
      "transactionIndex": "0x5",
      "blockHash": "0xfff59c4e1f221a82ae66d92e6821d00da0c0daf7d3325d88c44ff2864b79a3e7",
      "blockNumber": "0x2120958",
      "gasUsed": "0x805b",
      "effectiveGasPrice": "0xf433a",
      "from": "0x0e128580d848fb51849ab6564467a9ba79b4820c",
      "to": "0x7dfc42e9307bfe7a45037090e906f8bbeb13ae4f",
      "contractAddress": null,
      "l1BaseFeeScalar": "0x1db0",
      "l1BlobBaseFee": "0x1",
      "l1BlobBaseFeeScalar": "0xd2730",
      "l1Fee": "0xb7",
      "l1GasPrice": "0x8",
      "l1GasUsed": "0x640"
    },
    {
      "status": "0x1",
      "cumulativeGasUsed": "0x4c84f",
      "logs": [
        {
          "address": "0x7dfc42e9307bfe7a45037090e906f8bbeb13ae4f",
          "topics": [
            "0x2940c4bfb544a4b0a5b4262767947b0acc0b8f144197528463c4d476658cff79",
            "0x0000000000000000000000001c7d4b196cb0c7b01d743fbc6116a902379c7238",
            "0x000000000000000000000000a2f78ab2355fe2f984d808b5cee7fd0a93d5270e"
          ],
          "data": "0x",
          "blockHash": "0xfff59c4e1f221a82ae66d92e6821d00da0c0daf7d3325d88c44ff2864b79a3e7",
          "blockNumber": "0x2120958",
          "blockTimestamp": "0x68faee5c",
          "transactionHash": "0x6c13ea076a5883f49b8fd88d1c2f93e4dcfb81613d97a6030f2dc4b4b845c83d",
          "transactionIndex": "0x6",
          "logIndex": "0x5",
          "removed": false
        }
      ],
      "logsBloom": "0x00000000000000000000000000000000000000000020000000000000000002008000000000000000000000000000000000000000000004000000000000000000100000000000004000000000000000001000000000000000000000000000000000000000000000000000000000000000000000000000000000000000000000000000000000000000000010000000000000000020000000000000000000000000000000000000000000000000000000000000008000000200000000000000000000000000000000000000000100000000000000000000000000000000000000000000000000000000000000000000000000000000000000000000000000000000",
      "type": "0x2",
      "transactionHash": "0x6c13ea076a5883f49b8fd88d1c2f93e4dcfb81613d97a6030f2dc4b4b845c83d",
      "transactionIndex": "0x6",
      "blockHash": "0xfff59c4e1f221a82ae66d92e6821d00da0c0daf7d3325d88c44ff2864b79a3e7",
      "blockNumber": "0x2120958",
      "gasUsed": "0xec64",
      "effectiveGasPrice": "0xf433a",
      "from": "0x0e128580d848fb51849ab6564467a9ba79b4820c",
      "to": "0x7dfc42e9307bfe7a45037090e906f8bbeb13ae4f",
      "contractAddress": null,
      "l1BaseFeeScalar": "0x1db0",
      "l1BlobBaseFee": "0x1",
      "l1BlobBaseFeeScalar": "0xd2730",
      "l1Fee": "0xb7",
      "l1GasPrice": "0x8",
      "l1GasUsed": "0x654"
    },
    {
      "status": "0x1",
      "cumulativeGasUsed": "0x5b4b3",
      "logs": [
        {
          "address": "0x7dfc42e9307bfe7a45037090e906f8bbeb13ae4f",
          "topics": [
            "0x2940c4bfb544a4b0a5b4262767947b0acc0b8f144197528463c4d476658cff79",
            "0x0000000000000000000000005fd84259d66cd46123540766be93dfe6d43130d7",
            "0x0000000000000000000000006e44e50e3cc14dd16e01c590dc1d7020cb36ed4c"
          ],
          "data": "0x",
          "blockHash": "0xfff59c4e1f221a82ae66d92e6821d00da0c0daf7d3325d88c44ff2864b79a3e7",
          "blockNumber": "0x2120958",
          "blockTimestamp": "0x68faee5c",
          "transactionHash": "0x071ba54332c392e4668935073f0d64c73fa116710dbd84bba070a1f647c8ecbc",
          "transactionIndex": "0x7",
          "logIndex": "0x6",
          "removed": false
        }
      ],
      "logsBloom": "0x00000001000000000400000000000000000000000000000000000000000002008000000000000000000000000000000000000000000000000000000000000000000000000000004000000000000000001000000000000000000000000000000000000000008000000000000000000000000000080000000008000000000000000000000000000000000010000000000000000000000000000000000000000000000000000000000000000000000000000000000000000200000000000000000000000000000000000000000000000000000000000000000000000000000000000000000000000000100000000000000000000000000000000000000000000000",
      "type": "0x2",
      "transactionHash": "0x071ba54332c392e4668935073f0d64c73fa116710dbd84bba070a1f647c8ecbc",
      "transactionIndex": "0x7",
      "blockHash": "0xfff59c4e1f221a82ae66d92e6821d00da0c0daf7d3325d88c44ff2864b79a3e7",
      "blockNumber": "0x2120958",
      "gasUsed": "0xec64",
      "effectiveGasPrice": "0xf433a",
      "from": "0x0e128580d848fb51849ab6564467a9ba79b4820c",
      "to": "0x7dfc42e9307bfe7a45037090e906f8bbeb13ae4f",
      "contractAddress": null,
      "l1BaseFeeScalar": "0x1db0",
      "l1BlobBaseFee": "0x1",
      "l1BlobBaseFeeScalar": "0xd2730",
      "l1Fee": "0xb7",
      "l1GasPrice": "0x8",
      "l1GasUsed": "0x654"
    },
    {
      "status": "0x1",
      "cumulativeGasUsed": "0x6a10b",
      "logs": [
        {
          "address": "0x7dfc42e9307bfe7a45037090e906f8bbeb13ae4f",
          "topics": [
            "0x2940c4bfb544a4b0a5b4262767947b0acc0b8f144197528463c4d476658cff79",
            "0x00000000000000000000000075faf114eafb1bdbe2f0316df893fd58ce46aa4d",
            "0x0000000000000000000000000153002d20b96532c639313c2d54c3da09109309"
          ],
          "data": "0x",
          "blockHash": "0xfff59c4e1f221a82ae66d92e6821d00da0c0daf7d3325d88c44ff2864b79a3e7",
          "blockNumber": "0x2120958",
          "blockTimestamp": "0x68faee5c",
          "transactionHash": "0xbcac38d0ccda56cfde465c0543a29e49c6bc56c25cccd5e5cacbf7c0dd7ca4ff",
          "transactionIndex": "0x8",
          "logIndex": "0x7",
          "removed": false
        }
      ],
      "logsBloom": "0x00000000000000000000000000000000000000000000000000000000000002008000000000000000000000000000000000008000000000000000000000000000000000000000004000000000000000001000000000000000000000000000000000000000000000000000000010000000020000000000002000000010000000000000000000000000000010000000000000000000000000000000000000000000000000000000000000000000000000000000000000000200000000000000000000000000000000000000000000000000000000000000000000000000000000000000000000000000000000000000400000000000000000000000000000000000",
      "type": "0x2",
      "transactionHash": "0xbcac38d0ccda56cfde465c0543a29e49c6bc56c25cccd5e5cacbf7c0dd7ca4ff",
      "transactionIndex": "0x8",
      "blockHash": "0xfff59c4e1f221a82ae66d92e6821d00da0c0daf7d3325d88c44ff2864b79a3e7",
      "blockNumber": "0x2120958",
      "gasUsed": "0xec58",
      "effectiveGasPrice": "0xf433a",
      "from": "0x0e128580d848fb51849ab6564467a9ba79b4820c",
      "to": "0x7dfc42e9307bfe7a45037090e906f8bbeb13ae4f",
      "contractAddress": null,
      "l1BaseFeeScalar": "0x1db0",
      "l1BlobBaseFee": "0x1",
      "l1BlobBaseFeeScalar": "0xd2730",
      "l1Fee": "0xb7",
      "l1GasPrice": "0x8",
      "l1GasUsed": "0x654"
    }
  ],
  "libraries": [],
  "pending": [],
  "returns": {},
  "timestamp": 1761275484,
  "chain": 11155420,
  "commit": "a7f2160"
}