{
  "transactions": [
    {
      "hash": "0x7048a7c266dbf18d671a75e15c290144685a486c150c438bb4c882daa0906053",
      "transactionType": "CALL",
      "contractName": null,
      "contractAddress": "0x57e75207599bbc46d328686b4ad5ede8181596af",
      "function": "setRemoteBridge(uint64,address,bool)",
      "arguments": [
        "3478487238524512106",
        "0xA4E14e4F920399933D53B7f59701Fc63A6594b5C",
        "true"
      ],
      "transaction": {
        "from": "0x0e128580d848fb51849ab6564467a9ba79b4820c",
        "to": "0x57e75207599bbc46d328686b4ad5ede8181596af",
        "gas": "0x17877",
        "value": "0x0",
        "input": "0x11d82d55000000000000000000000000000000000000000000000000304611b6affba76a000000000000000000000000a4e14e4f920399933d53b7f59701fc63a6594b5c0000000000000000000000000000000000000000000000000000000000000001",
        "nonce": "0x24b",
        "chainId": "0xaa37dc"
      },
      "additionalContracts": [],
      "isFixedGasLimit": false
    },
    {
      "hash": "0x81000df07d3866b028ba66c5cceefaf444e0aca837592e391c30c07ba475a662",
      "transactionType": "CALL",
      "contractName": null,
      "contractAddress": "0x7dfc42e9307bfe7a45037090e906f8bbeb13ae4f",
      "function": "setAllowedToken(address,bool)",
      "arguments": [
        "0xE4aB69C077896252FAFBD49EFD26B5D171A32410",
        "true"
      ],
      "transaction": {
        "from": "0x0e128580d848fb51849ab6564467a9ba79b4820c",
        "to": "0x7dfc42e9307bfe7a45037090e906f8bbeb13ae4f",
        "gas": "0x11ca8",
        "value": "0x0",
        "input": "0x8aaa2284000000000000000000000000e4ab69c077896252fafbd49efd26b5d171a324100000000000000000000000000000000000000000000000000000000000000001",
        "nonce": "0x24c",
        "chainId": "0xaa37dc"
      },
      "additionalContracts": [],
      "isFixedGasLimit": false
    },
    {
      "hash": "0x324013952cb98e968b0d746b499b17b6bb7948e41b796ad673d38d44129b4b3b",
      "transactionType": "CALL",
      "contractName": null,
      "contractAddress": "0x7dfc42e9307bfe7a45037090e906f8bbeb13ae4f",
      "function": "setAllowedToken(address,bool)",
      "arguments": [
        "0x5fd84259d66Cd46123540766Be93DFE6D43130D7",
        "true"
      ],
      "transaction": {
        "from": "0x0e128580d848fb51849ab6564467a9ba79b4820c",
        "to": "0x7dfc42e9307bfe7a45037090e906f8bbeb13ae4f",
        "gas": "0x11ca8",
        "value": "0x0",
        "input": "0x8aaa22840000000000000000000000005fd84259d66cd46123540766be93dfe6d43130d70000000000000000000000000000000000000000000000000000000000000001",
        "nonce": "0x24d",
        "chainId": "0xaa37dc"
      },
      "additionalContracts": [],
      "isFixedGasLimit": false
    },
    {
      "hash": "0xf25a7dcc7dc5ba7f76b7af123e4c21fb941c8fe91354ed292c0e11e489f7aa22",
      "transactionType": "CALL",
      "contractName": null,
      "contractAddress": "0x7dfc42e9307bfe7a45037090e906f8bbeb13ae4f",
      "function": "setAllowedToken(address,bool)",
      "arguments": [
        "0x1c7D4B196Cb0C7B01d743Fbc6116a902379C7238",
        "true"
      ],
      "transaction": {
        "from": "0x0e128580d848fb51849ab6564467a9ba79b4820c",
        "to": "0x7dfc42e9307bfe7a45037090e906f8bbeb13ae4f",
        "gas": "0x11ca8",
        "value": "0x0",
        "input": "0x8aaa22840000000000000000000000001c7d4b196cb0c7b01d743fbc6116a902379c72380000000000000000000000000000000000000000000000000000000000000001",
        "nonce": "0x24e",
        "chainId": "0xaa37dc"
      },
      "additionalContracts": [],
      "isFixedGasLimit": false
    },
    {
      "hash": "0x9a22d1a54ecb68f1d56d9aeb16462edd1655bbfe4fcfe1a706be646fbd062d1f",
      "transactionType": "CALL",
      "contractName": null,
      "contractAddress": "0x7dfc42e9307bfe7a45037090e906f8bbeb13ae4f",
      "function": "setAllowedToken(address,bool)",
      "arguments": [
        "0x75faf114eafb1BDbe2F0316DF893fd58CE46AA4d",
        "true"
      ],
      "transaction": {
        "from": "0x0e128580d848fb51849ab6564467a9ba79b4820c",
        "to": "0x7dfc42e9307bfe7a45037090e906f8bbeb13ae4f",
        "gas": "0x11ca8",
        "value": "0x0",
        "input": "0x8aaa228400000000000000000000000075faf114eafb1bdbe2f0316df893fd58ce46aa4d0000000000000000000000000000000000000000000000000000000000000001",
        "nonce": "0x24f",
        "chainId": "0xaa37dc"
      },
      "additionalContracts": [],
      "isFixedGasLimit": false
    },
    {
      "hash": "0xf01e40708c25d2acbf663ef3b362054ea833f2337f444696d795a9bc790f92ba",
      "transactionType": "CALL",
      "contractName": null,
      "contractAddress": "0x7dfc42e9307bfe7a45037090e906f8bbeb13ae4f",
      "function": "addPriceFeed(address,address)",
      "arguments": [
        "0x1c7D4B196Cb0C7B01d743Fbc6116a902379C7238",
        "0xA2F78ab2355fe2f984D808B5CeE7FD0A93D5270E"
      ],
      "transaction": {
        "from": "0x0e128580d848fb51849ab6564467a9ba79b4820c",
        "to": "0x7dfc42e9307bfe7a45037090e906f8bbeb13ae4f",
        "gas": "0x20e25",
        "value": "0x0",
        "input": "0xe8a97a3e0000000000000000000000001c7d4b196cb0c7b01d743fbc6116a902379c7238000000000000000000000000a2f78ab2355fe2f984d808b5cee7fd0a93d5270e",
        "nonce": "0x250",
        "chainId": "0xaa37dc"
      },
      "additionalContracts": [],
      "isFixedGasLimit": false
    },
    {
      "hash": "0x798a3eeb320a13172fa2d79291131297c65f13162d018acecb984addabcdcc84",
      "transactionType": "CALL",
      "contractName": null,
      "contractAddress": "0x7dfc42e9307bfe7a45037090e906f8bbeb13ae4f",
      "function": "addPriceFeed(address,address)",
      "arguments": [
        "0x5fd84259d66Cd46123540766Be93DFE6D43130D7",
        "0x6e44e50E3cc14DD16e01C590DC1d7020cb36eD4C"
      ],
      "transaction": {
        "from": "0x0e128580d848fb51849ab6564467a9ba79b4820c",
        "to": "0x7dfc42e9307bfe7a45037090e906f8bbeb13ae4f",
        "gas": "0x1b1e2",
        "value": "0x0",
        "input": "0xe8a97a3e0000000000000000000000005fd84259d66cd46123540766be93dfe6d43130d70000000000000000000000006e44e50e3cc14dd16e01c590dc1d7020cb36ed4c",
        "nonce": "0x251",
        "chainId": "0xaa37dc"
      },
      "additionalContracts": [],
      "isFixedGasLimit": false
    },
    {
      "hash": "0xe09834205ef6a5007ded3523ebe84621f5fc86da93a11948f8d5d4ae0f281ae4",
      "transactionType": "CALL",
      "contractName": null,
      "contractAddress": "0x7dfc42e9307bfe7a45037090e906f8bbeb13ae4f",
      "function": "addPriceFeed(address,address)",
      "arguments": [
        "0x75faf114eafb1BDbe2F0316DF893fd58CE46AA4d",
        "0x0153002d20B96532C639313c2d54c3dA09109309"
      ],
      "transaction": {
        "from": "0x0e128580d848fb51849ab6564467a9ba79b4820c",
        "to": "0x7dfc42e9307bfe7a45037090e906f8bbeb13ae4f",
        "gas": "0x1b1d1",
        "value": "0x0",
        "input": "0xe8a97a3e00000000000000000000000075faf114eafb1bdbe2f0316df893fd58ce46aa4d0000000000000000000000000153002d20b96532c639313c2d54c3da09109309",
        "nonce": "0x252",
        "chainId": "0xaa37dc"
      },
      "additionalContracts": [],
      "isFixedGasLimit": false
    }
  ],
  "receipts": [
    {
      "status": "0x1",
      "cumulativeGasUsed": "0x1c4ab",
      "logs": [
        {
          "address": "0x57e75207599bbc46d328686b4ad5ede8181596af",
          "topics": [
            "0xa54ce142349af8e389fe00f37d69e79664a287b29c8e325917962e92e4fe5fcd"
          ],
          "data": "0x000000000000000000000000a4e14e4f920399933d53b7f59701fc63a6594b5c",
          "blockHash": "0xbce08db6a6a11035c7f0fd4f02bf2591562f21c57c34c3d41a80388ffe81f899",
          "blockNumber": "0x211e987",
          "blockTimestamp": "0x68faaeba",
          "transactionHash": "0x7048a7c266dbf18d671a75e15c290144685a486c150c438bb4c882daa0906053",
          "transactionIndex": "0x1",
          "logIndex": "0x0",
          "removed": false
        }
      ],
      "logsBloom": "0x00000000000001000000000000000000000000000000000000000000000000000000000000000000000000000000000000000000000010000000000000000000000000000000000000000000000000000000000000008000000000000000000000000000000000000000000000000000000000000000000002000000000000000000000000000000000000000000000000000000000000000000000000000000000000000000000000000000000000000000000000000000000000000000000000000000000000000000400000000000000000000000000000000000000000000000000000000000000000000000000000000000000000000000000000100000",
      "type": "0x2",
      "transactionHash": "0x7048a7c266dbf18d671a75e15c290144685a486c150c438bb4c882daa0906053",
      "transactionIndex": "0x1",
      "blockHash": "0xbce08db6a6a11035c7f0fd4f02bf2591562f21c57c34c3d41a80388ffe81f899",
      "blockNumber": "0x211e987",
      "gasUsed": "0x1108f",
      "effectiveGasPrice": "0xf433a",
      "from": "0x0e128580d848fb51849ab6564467a9ba79b4820c",
      "to": "0x57e75207599bbc46d328686b4ad5ede8181596af",
      "contractAddress": null,
      "l1BaseFeeScalar": "0x1db0",
      "l1BlobBaseFee": "0x1",
      "l1BlobBaseFeeScalar": "0xd2730",
      "l1Fee": "0xc3",
      "l1GasPrice": "0x9",
      "l1GasUsed": "0x640"
    },
    {
      "status": "0x1",
      "cumulativeGasUsed": "0x292c2",
      "logs": [
        {
          "address": "0x7dfc42e9307bfe7a45037090e906f8bbeb13ae4f",
          "topics": [
            "0x3a7d4b919c66e25bb96b646b1fa5df47aca5411773bfe1829fc8e86ab7006e6a",
            "0x000000000000000000000000e4ab69c077896252fafbd49efd26b5d171a32410"
          ],
          "data": "0x0000000000000000000000000000000000000000000000000000000000000001",
          "blockHash": "0xbce08db6a6a11035c7f0fd4f02bf2591562f21c57c34c3d41a80388ffe81f899",
          "blockNumber": "0x211e987",
          "blockTimestamp": "0x68faaeba",
          "transactionHash": "0x81000df07d3866b028ba66c5cceefaf444e0aca837592e391c30c07ba475a662",
          "transactionIndex": "0x2",
          "logIndex": "0x1",
          "removed": false
        }
      ],
      "logsBloom": "0x00000000000000000000000000000000000000000000000000004000000002008000000000000000000000000000000000000000000000000000000000000000000000000000000000000000000000000020000000000000000000000000000000000000001000000000000000000000000000000000000000000000000000000000000000002000000000001000000000000000000000000000000000000000000000000000000000000000000000000000000000000200000000000000000000000000000000000000000000010000000000000000000000000000000000000000000000000000000000000000000000000000000000000000000000000000",
      "type": "0x2",
      "transactionHash": "0x81000df07d3866b028ba66c5cceefaf444e0aca837592e391c30c07ba475a662",
      "transactionIndex": "0x2",
      "blockHash": "0xbce08db6a6a11035c7f0fd4f02bf2591562f21c57c34c3d41a80388ffe81f899",
      "blockNumber": "0x211e987",
      "gasUsed": "0xce17",
      "effectiveGasPrice": "0xf433a",
      "from": "0x0e128580d848fb51849ab6564467a9ba79b4820c",
      "to": "0x7dfc42e9307bfe7a45037090e906f8bbeb13ae4f",
      "contractAddress": null,
      "l1BaseFeeScalar": "0x1db0",
      "l1BlobBaseFee": "0x1",
      "l1BlobBaseFeeScalar": "0xd2730",
      "l1Fee": "0xc3",
      "l1GasPrice": "0x9",
      "l1GasUsed": "0x640"
    },
    {
      "status": "0x1",
      "cumulativeGasUsed": "0x360d9",
      "logs": [
        {
          "address": "0x7dfc42e9307bfe7a45037090e906f8bbeb13ae4f",
          "topics": [
            "0x3a7d4b919c66e25bb96b646b1fa5df47aca5411773bfe1829fc8e86ab7006e6a",
            "0x0000000000000000000000005fd84259d66cd46123540766be93dfe6d43130d7"
          ],
          "data": "0x0000000000000000000000000000000000000000000000000000000000000001",
          "blockHash": "0xbce08db6a6a11035c7f0fd4f02bf2591562f21c57c34c3d41a80388ffe81f899",
          "blockNumber": "0x211e987",
          "blockTimestamp": "0x68faaeba",
          "transactionHash": "0x324013952cb98e968b0d746b499b17b6bb7948e41b796ad673d38d44129b4b3b",
          "transactionIndex": "0x3",
          "logIndex": "0x2",
          "removed": false
        }
      ],
      "logsBloom": "0x00000001000000000000000000000000000000000000000000000000000002008000000000000000000000000000000000000000000000000000000000000000000000000000000000000000000000000020000000000000000000000000000000000000009000000000000000000000000000000000000000000000000000000000000000000000000000001000000000000000000000000000000000000000000000000000000000000000000000000000000000000200000000000000000000000000000000000000000000000000000000000000000000000000000000000000000000000000100000000000000000000000000000000000000000000000",
      "type": "0x2",
      "transactionHash": "0x324013952cb98e968b0d746b499b17b6bb7948e41b796ad673d38d44129b4b3b",
      "transactionIndex": "0x3",
      "blockHash": "0xbce08db6a6a11035c7f0fd4f02bf2591562f21c57c34c3d41a80388ffe81f899",
      "blockNumber": "0x211e987",
      "gasUsed": "0xce17",
      "effectiveGasPrice": "0xf433a",
      "from": "0x0e128580d848fb51849ab6564467a9ba79b4820c",
      "to": "0x7dfc42e9307bfe7a45037090e906f8bbeb13ae4f",
      "contractAddress": null,
      "l1BaseFeeScalar": "0x1db0",
      "l1BlobBaseFee": "0x1",
      "l1BlobBaseFeeScalar": "0xd2730",
      "l1Fee": "0xc3",
      "l1GasPrice": "0x9",
      "l1GasUsed": "0x640"
    },
    {
      "status": "0x1",
      "cumulativeGasUsed": "0x42ef0",
      "logs": [
        {
          "address": "0x7dfc42e9307bfe7a45037090e906f8bbeb13ae4f",
          "topics": [
            "0x3a7d4b919c66e25bb96b646b1fa5df47aca5411773bfe1829fc8e86ab7006e6a",
            "0x0000000000000000000000001c7d4b196cb0c7b01d743fbc6116a902379c7238"
          ],
          "data": "0x0000000000000000000000000000000000000000000000000000000000000001",
          "blockHash": "0xbce08db6a6a11035c7f0fd4f02bf2591562f21c57c34c3d41a80388ffe81f899",
          "blockNumber": "0x211e987",
          "blockTimestamp": "0x68faaeba",
          "transactionHash": "0xf25a7dcc7dc5ba7f76b7af123e4c21fb941c8fe91354ed292c0e11e489f7aa22",
          "transactionIndex": "0x4",
          "logIndex": "0x3",
          "removed": false
        }
      ],
      "logsBloom": "0x00000000000000000000000000000000000000000000000000000000000002008000000000000000000000000000000000000000000004000000000000000000100000000000000000000000000000000020000000000000000000000000000000000000001000000000000000000000000000000000000000000000000000000000000000000000000000001000000000000000000000000000000000000000000000000000000000000000000000000000008000000200000000000000000000000000000000000000000000000000000000000000000000000000000000000000000000000000000000000000000000000000000000000000000000000000",
      "type": "0x2",
      "transactionHash": "0xf25a7dcc7dc5ba7f76b7af123e4c21fb941c8fe91354ed292c0e11e489f7aa22",
      "transactionIndex": "0x4",
      "blockHash": "0xbce08db6a6a11035c7f0fd4f02bf2591562f21c57c34c3d41a80388ffe81f899",
      "blockNumber": "0x211e987",
      "gasUsed": "0xce17",
      "effectiveGasPrice": "0xf433a",
      "from": "0x0e128580d848fb51849ab6564467a9ba79b4820c",
      "to": "0x7dfc42e9307bfe7a45037090e906f8bbeb13ae4f",
      "contractAddress": null,
      "l1BaseFeeScalar": "0x1db0",
      "l1BlobBaseFee": "0x1",
      "l1BlobBaseFeeScalar": "0xd2730",
      "l1Fee": "0xc3",
      "l1GasPrice": "0x9",
      "l1GasUsed": "0x640"
    },
    {
      "status": "0x1",
      "cumulativeGasUsed": "0x4fd07",
      "logs": [
        {
          "address": "0x7dfc42e9307bfe7a45037090e906f8bbeb13ae4f",
          "topics": [
            "0x3a7d4b919c66e25bb96b646b1fa5df47aca5411773bfe1829fc8e86ab7006e6a",
            "0x00000000000000000000000075faf114eafb1bdbe2f0316df893fd58ce46aa4d"
          ],
          "data": "0x0000000000000000000000000000000000000000000000000000000000000001",
          "blockHash": "0xbce08db6a6a11035c7f0fd4f02bf2591562f21c57c34c3d41a80388ffe81f899",
          "blockNumber": "0x211e987",
          "blockTimestamp": "0x68faaeba",
          "transactionHash": "0x9a22d1a54ecb68f1d56d9aeb16462edd1655bbfe4fcfe1a706be646fbd062d1f",
          "transactionIndex": "0x5",
          "logIndex": "0x4",
          "removed": false
        }
      ],
      "logsBloom": "0x00000000000000000000000000000000000000000000000000000000000002008000000000000000000000000000000000008000000000000000000000000000000000000000000000000000000000000020000000000000000000000000000000000000001000000000000000000000020000000000002000000000000000000000000000000000000000001000000000000000000000000000000000000000000000000000000000000000000000000000000000000200000000000000000000000000000000000000000000000000000000000000000000000000000000000000000000000000000000000000000000000000000000000000000000000000",
      "type": "0x2",
      "transactionHash": "0x9a22d1a54ecb68f1d56d9aeb16462edd1655bbfe4fcfe1a706be646fbd062d1f",
      "transactionIndex": "0x5",
      "blockHash": "0xbce08db6a6a11035c7f0fd4f02bf2591562f21c57c34c3d41a80388ffe81f899",
      "blockNumber": "0x211e987",
      "gasUsed": "0xce17",
      "effectiveGasPrice": "0xf433a",
      "from": "0x0e128580d848fb51849ab6564467a9ba79b4820c",
      "to": "0x7dfc42e9307bfe7a45037090e906f8bbeb13ae4f",
      "contractAddress": null,
      "l1BaseFeeScalar": "0x1db0",
      "l1BlobBaseFee": "0x1",
      "l1BlobBaseFeeScalar": "0xd2730",
      "l1Fee": "0xc3",
      "l1GasPrice": "0x9",
      "l1GasUsed": "0x640"
    },
    {
      "status": "0x1",
      "cumulativeGasUsed": "0x679f3",
      "logs": [
        {
          "address": "0x7dfc42e9307bfe7a45037090e906f8bbeb13ae4f",
          "topics": [
            "0x2940c4bfb544a4b0a5b4262767947b0acc0b8f144197528463c4d476658cff79",
            "0x0000000000000000000000001c7d4b196cb0c7b01d743fbc6116a902379c7238",
            "0x000000000000000000000000a2f78ab2355fe2f984d808b5cee7fd0a93d5270e"
          ],
          "data": "0x",
          "blockHash": "0xbce08db6a6a11035c7f0fd4f02bf2591562f21c57c34c3d41a80388ffe81f899",
          "blockNumber": "0x211e987",
          "blockTimestamp": "0x68faaeba",
          "transactionHash": "0xf01e40708c25d2acbf663ef3b362054ea833f2337f444696d795a9bc790f92ba",
          "transactionIndex": "0x6",
          "logIndex": "0x5",
          "removed": false
        }
      ],
      "logsBloom": "0x00000000000000000000000000000000000000000020000000000000000002008000000000000000000000000000000000000000000004000000000000000000100000000000004000000000000000001000000000000000000000000000000000000000000000000000000000000000000000000000000000000000000000000000000000000000000010000000000000000020000000000000000000000000000000000000000000000000000000000000008000000200000000000000000000000000000000000000000100000000000000000000000000000000000000000000000000000000000000000000000000000000000000000000000000000000",
      "type": "0x2",
      "transactionHash": "0xf01e40708c25d2acbf663ef3b362054ea833f2337f444696d795a9bc790f92ba",
      "transactionIndex": "0x6",
      "blockHash": "0xbce08db6a6a11035c7f0fd4f02bf2591562f21c57c34c3d41a80388ffe81f899",
      "blockNumber": "0x211e987",
      "gasUsed": "0x17cec",
      "effectiveGasPrice": "0xf433a",
      "from": "0x0e128580d848fb51849ab6564467a9ba79b4820c",
      "to": "0x7dfc42e9307bfe7a45037090e906f8bbeb13ae4f",
      "contractAddress": null,
      "l1BaseFeeScalar": "0x1db0",
      "l1BlobBaseFee": "0x1",
      "l1BlobBaseFeeScalar": "0xd2730",
      "l1Fee": "0xc3",
      "l1GasPrice": "0x9",
      "l1GasUsed": "0x654"
    },
    {
      "status": "0x1",
      "cumulativeGasUsed": "0x7b413",
      "logs": [
        {
          "address": "0x7dfc42e9307bfe7a45037090e906f8bbeb13ae4f",
          "topics": [
            "0x2940c4bfb544a4b0a5b4262767947b0acc0b8f144197528463c4d476658cff79",
            "0x0000000000000000000000005fd84259d66cd46123540766be93dfe6d43130d7",
            "0x0000000000000000000000006e44e50e3cc14dd16e01c590dc1d7020cb36ed4c"
          ],
          "data": "0x",
          "blockHash": "0xbce08db6a6a11035c7f0fd4f02bf2591562f21c57c34c3d41a80388ffe81f899",
          "blockNumber": "0x211e987",
          "blockTimestamp": "0x68faaeba",
          "transactionHash": "0x798a3eeb320a13172fa2d79291131297c65f13162d018acecb984addabcdcc84",
          "transactionIndex": "0x7",
          "logIndex": "0x6",
          "removed": false
        }
      ],
      "logsBloom": "0x00000001000000000400000000000000000000000000000000000000000002008000000000000000000000000000000000000000000000000000000000000000000000000000004000000000000000001000000000000000000000000000000000000000008000000000000000000000000000080000000008000000000000000000000000000000000010000000000000000000000000000000000000000000000000000000000000000000000000000000000000000200000000000000000000000000000000000000000000000000000000000000000000000000000000000000000000000000100000000000000000000000000000000000000000000000",
      "type": "0x2",
      "transactionHash": "0x798a3eeb320a13172fa2d79291131297c65f13162d018acecb984addabcdcc84",
      "transactionIndex": "0x7",
      "blockHash": "0xbce08db6a6a11035c7f0fd4f02bf2591562f21c57c34c3d41a80388ffe81f899",
      "blockNumber": "0x211e987",
      "gasUsed": "0x13a20",
      "effectiveGasPrice": "0xf433a",
      "from": "0x0e128580d848fb51849ab6564467a9ba79b4820c",
      "to": "0x7dfc42e9307bfe7a45037090e906f8bbeb13ae4f",
      "contractAddress": null,
      "l1BaseFeeScalar": "0x1db0",
      "l1BlobBaseFee": "0x1",
      "l1BlobBaseFeeScalar": "0xd2730",
      "l1Fee": "0xc3",
      "l1GasPrice": "0x9",
      "l1GasUsed": "0x654"
    },
    {
      "status": "0x1",
      "cumulativeGasUsed": "0x8ee27",
      "logs": [
        {
          "address": "0x7dfc42e9307bfe7a45037090e906f8bbeb13ae4f",
          "topics": [
            "0x2940c4bfb544a4b0a5b4262767947b0acc0b8f144197528463c4d476658cff79",
            "0x00000000000000000000000075faf114eafb1bdbe2f0316df893fd58ce46aa4d",
            "0x0000000000000000000000000153002d20b96532c639313c2d54c3da09109309"
          ],
          "data": "0x",
          "blockHash": "0xbce08db6a6a11035c7f0fd4f02bf2591562f21c57c34c3d41a80388ffe81f899",
          "blockNumber": "0x211e987",
          "blockTimestamp": "0x68faaeba",
          "transactionHash": "0xe09834205ef6a5007ded3523ebe84621f5fc86da93a11948f8d5d4ae0f281ae4",
          "transactionIndex": "0x8",
          "logIndex": "0x7",
          "removed": false
        }
      ],
      "logsBloom": "0x00000000000000000000000000000000000000000000000000000000000002008000000000000000000000000000000000008000000000000000000000000000000000000000004000000000000000001000000000000000000000000000000000000000000000000000000010000000020000000000002000000010000000000000000000000000000010000000000000000000000000000000000000000000000000000000000000000000000000000000000000000200000000000000000000000000000000000000000000000000000000000000000000000000000000000000000000000000000000000000400000000000000000000000000000000000",
      "type": "0x2",
      "transactionHash": "0xe09834205ef6a5007ded3523ebe84621f5fc86da93a11948f8d5d4ae0f281ae4",
      "transactionIndex": "0x8",
      "blockHash": "0xbce08db6a6a11035c7f0fd4f02bf2591562f21c57c34c3d41a80388ffe81f899",
      "blockNumber": "0x211e987",
      "gasUsed": "0x13a14",
      "effectiveGasPrice": "0xf433a",
      "from": "0x0e128580d848fb51849ab6564467a9ba79b4820c",
      "to": "0x7dfc42e9307bfe7a45037090e906f8bbeb13ae4f",
      "contractAddress": null,
      "l1BaseFeeScalar": "0x1db0",
      "l1BlobBaseFee": "0x1",
      "l1BlobBaseFeeScalar": "0xd2730",
      "l1Fee": "0xc3",
      "l1GasPrice": "0x9",
      "l1GasUsed": "0x654"
    }
  ],
  "libraries": [],
  "pending": [],
  "returns": {},
  "timestamp": 1761259192,
  "chain": 11155420,
  "commit": "a7f2160"
}