{
  "transactions": [
    {
      "hash": "0x6072dea8af84ce5f5f7ae87506ed79aa78d9d608294f0db49f6e97ee58c5aabb",
      "transactionType": "CALL",
      "contractName": null,
      "contractAddress": "0xadf68b5246c02c1b70f3cf4a3f6a8c3bf271bb1f",
      "function": "setRemoteBridge(uint64,address,bool)",
      "arguments": [
        "3478487238524512106",
        "0xFe1992FA1f6f9c4A1681aFb9e1518C3bB5Fa72BA",
        "true"
      ],
      "transaction": {
        "from": "0x0e128580d848fb51849ab6564467a9ba79b4820c",
        "to": "0xadf68b5246c02c1b70f3cf4a3f6a8c3bf271bb1f",
        "gas": "0x17877",
        "value": "0x0",
        "input": "0x11d82d55000000000000000000000000000000000000000000000000304611b6affba76a000000000000000000000000fe1992fa1f6f9c4a1681afb9e1518c3bb5fa72ba0000000000000000000000000000000000000000000000000000000000000001",
        "nonce": "0x27a",
        "chainId": "0xaa37dc"
      },
      "additionalContracts": [],
      "isFixedGasLimit": false
    },
    {
      "hash": "0xd2034c0a40958c7d15423db9bd6255b68bf91fc2dbab33441493c3ea3e6542f8",
      "transactionType": "CALL",
      "contractName": null,
      "contractAddress": "0xc7f23f7914e3e7eb2eb4bac18ace59ae4693008c",
      "function": "setAllowedToken(address,bool)",
      "arguments": [
        "0xE4aB69C077896252FAFBD49EFD26B5D171A32410",
        "true"
      ],
      "transaction": {
        "from": "0x0e128580d848fb51849ab6564467a9ba79b4820c",
        "to": "0xc7f23f7914e3e7eb2eb4bac18ace59ae4693008c",
        "gas": "0x11ca8",
        "value": "0x0",
        "input": "0x8aaa2284000000000000000000000000e4ab69c077896252fafbd49efd26b5d171a324100000000000000000000000000000000000000000000000000000000000000001",
        "nonce": "0x27b",
        "chainId": "0xaa37dc"
      },
      "additionalContracts": [],
      "isFixedGasLimit": false
    },
    {
      "hash": "0x1c2c7c40efff7b00a8594d1c66a334bfec64b3def9ddf9c37c02182fc8b647e2",
      "transactionType": "CALL",
      "contractName": null,
      "contractAddress": "0xc7f23f7914e3e7eb2eb4bac18ace59ae4693008c",
      "function": "setAllowedToken(address,bool)",
      "arguments": [
        "0x5fd84259d66Cd46123540766Be93DFE6D43130D7",
        "true"
      ],
      "transaction": {
        "from": "0x0e128580d848fb51849ab6564467a9ba79b4820c",
        "to": "0xc7f23f7914e3e7eb2eb4bac18ace59ae4693008c",
        "gas": "0x11ca8",
        "value": "0x0",
        "input": "0x8aaa22840000000000000000000000005fd84259d66cd46123540766be93dfe6d43130d70000000000000000000000000000000000000000000000000000000000000001",
        "nonce": "0x27c",
        "chainId": "0xaa37dc"
      },
      "additionalContracts": [],
      "isFixedGasLimit": false
    },
    {
      "hash": "0x94d73866e4837ae262bf00b77cc953868cb035a84829f2214efd5f880d70fca2",
      "transactionType": "CALL",
      "contractName": null,
      "contractAddress": "0xc7f23f7914e3e7eb2eb4bac18ace59ae4693008c",
      "function": "setAllowedToken(address,bool)",
      "arguments": [
        "0x1c7D4B196Cb0C7B01d743Fbc6116a902379C7238",
        "true"
      ],
      "transaction": {
        "from": "0x0e128580d848fb51849ab6564467a9ba79b4820c",
        "to": "0xc7f23f7914e3e7eb2eb4bac18ace59ae4693008c",
        "gas": "0x11ca8",
        "value": "0x0",
        "input": "0x8aaa22840000000000000000000000001c7d4b196cb0c7b01d743fbc6116a902379c72380000000000000000000000000000000000000000000000000000000000000001",
        "nonce": "0x27d",
        "chainId": "0xaa37dc"
      },
      "additionalContracts": [],
      "isFixedGasLimit": false
    },
    {
      "hash": "0xfc9a1b6ef775ddb1941da8fc19b3374ee5e0e683d0861230f1e529608aef9522",
      "transactionType": "CALL",
      "contractName": null,
      "contractAddress": "0xc7f23f7914e3e7eb2eb4bac18ace59ae4693008c",
      "function": "setAllowedToken(address,bool)",
      "arguments": [
        "0x75faf114eafb1BDbe2F0316DF893fd58CE46AA4d",
        "true"
      ],
      "transaction": {
        "from": "0x0e128580d848fb51849ab6564467a9ba79b4820c",
        "to": "0xc7f23f7914e3e7eb2eb4bac18ace59ae4693008c",
        "gas": "0x11ca8",
        "value": "0x0",
        "input": "0x8aaa228400000000000000000000000075faf114eafb1bdbe2f0316df893fd58ce46aa4d0000000000000000000000000000000000000000000000000000000000000001",
        "nonce": "0x27e",
        "chainId": "0xaa37dc"
      },
      "additionalContracts": [],
      "isFixedGasLimit": false
    },
    {
      "hash": "0xa6ce85f811d5114fdf6c563d3aa0022549cc80f13a78ee5153375527b793a3c9",
      "transactionType": "CALL",
      "contractName": null,
      "contractAddress": "0xc7f23f7914e3e7eb2eb4bac18ace59ae4693008c",
      "function": "addPriceFeed(address,address)",
      "arguments": [
        "0x1c7D4B196Cb0C7B01d743Fbc6116a902379C7238",
        "0xA2F78ab2355fe2f984D808B5CeE7FD0A93D5270E"
      ],
      "transaction": {
        "from": "0x0e128580d848fb51849ab6564467a9ba79b4820c",
        "to": "0xc7f23f7914e3e7eb2eb4bac18ace59ae4693008c",
        "gas": "0x20e25",
        "value": "0x0",
        "input": "0xe8a97a3e0000000000000000000000001c7d4b196cb0c7b01d743fbc6116a902379c7238000000000000000000000000a2f78ab2355fe2f984d808b5cee7fd0a93d5270e",
        "nonce": "0x27f",
        "chainId": "0xaa37dc"
      },
      "additionalContracts": [],
      "isFixedGasLimit": false
    },
    {
      "hash": "0xe24819b0e20e8f4392c2330af457c5795408e4b2d0f4e85066710b8d2f24356d",
      "transactionType": "CALL",
      "contractName": null,
      "contractAddress": "0xc7f23f7914e3e7eb2eb4bac18ace59ae4693008c",
      "function": "addPriceFeed(address,address)",
      "arguments": [
        "0x5fd84259d66Cd46123540766Be93DFE6D43130D7",
        "0x6e44e50E3cc14DD16e01C590DC1d7020cb36eD4C"
      ],
      "transaction": {
        "from": "0x0e128580d848fb51849ab6564467a9ba79b4820c",
        "to": "0xc7f23f7914e3e7eb2eb4bac18ace59ae4693008c",
        "gas": "0x1b1e2",
        "value": "0x0",
        "input": "0xe8a97a3e0000000000000000000000005fd84259d66cd46123540766be93dfe6d43130d70000000000000000000000006e44e50e3cc14dd16e01c590dc1d7020cb36ed4c",
        "nonce": "0x280",
        "chainId": "0xaa37dc"
      },
      "additionalContracts": [],
      "isFixedGasLimit": false
    },
    {
      "hash": "0x92a43738fb2593fa72bfc09105a8872a5d65c70fa4019087274a0ab35fadd29c",
      "transactionType": "CALL",
      "contractName": null,
      "contractAddress": "0xc7f23f7914e3e7eb2eb4bac18ace59ae4693008c",
      "function": "addPriceFeed(address,address)",
      "arguments": [
        "0x75faf114eafb1BDbe2F0316DF893fd58CE46AA4d",
        "0x0153002d20B96532C639313c2d54c3dA09109309"
      ],
      "transaction": {
        "from": "0x0e128580d848fb51849ab6564467a9ba79b4820c",
        "to": "0xc7f23f7914e3e7eb2eb4bac18ace59ae4693008c",
        "gas": "0x1b1d1",
        "value": "0x0",
        "input": "0xe8a97a3e00000000000000000000000075faf114eafb1bdbe2f0316df893fd58ce46aa4d0000000000000000000000000153002d20b96532c639313c2d54c3da09109309",
        "nonce": "0x281",
        "chainId": "0xaa37dc"
      },
      "additionalContracts": [],
      "isFixedGasLimit": false
    }
  ],
  "receipts": [
    {
      "status": "0x1",
      "cumulativeGasUsed": "0x2dc3a",
      "logs": [
        {
          "address": "0xadf68b5246c02c1b70f3cf4a3f6a8c3bf271bb1f",
          "topics": [
            "0xa54ce142349af8e389fe00f37d69e79664a287b29c8e325917962e92e4fe5fcd"
          ],
          "data": "0x000000000000000000000000fe1992fa1f6f9c4a1681afb9e1518c3bb5fa72ba",
          "blockHash": "0x98f2d94471b698caf841250190ac31cc326ec248a44e7cc84046c7d713716271",
          "blockNumber": "0x212b28f",
          "blockTimestamp": "0x68fc40ca",
          "transactionHash": "0x6072dea8af84ce5f5f7ae87506ed79aa78d9d608294f0db49f6e97ee58c5aabb",
          "transactionIndex": "0x2",
          "logIndex": "0x1",
          "removed": false
        }
      ],
      "logsBloom": "0x00000000000001000000000000000000000000000000000000040000000000000000000000000000000000000000000000000000000000000000000000000000000000000000000000000000000000000000000000000000000000000000000000000000800000000000000000000000000000000000040000000000000000000000000000000000000000000000000000000000000000000000000000000000000000000000000000000000000000000000000000000000000000000000000000000000000000000000400000000000000000000000000000000000000000000000000000000000000000000000000000000000000000000000000000100000",
      "type": "0x2",
      "transactionHash": "0x6072dea8af84ce5f5f7ae87506ed79aa78d9d608294f0db49f6e97ee58c5aabb",
      "transactionIndex": "0x2",
      "blockHash": "0x98f2d94471b698caf841250190ac31cc326ec248a44e7cc84046c7d713716271",
      "blockNumber": "0x212b28f",
      "gasUsed": "0x1108f",
      "effectiveGasPrice": "0xf433a",
      "from": "0x0e128580d848fb51849ab6564467a9ba79b4820c",
      "to": "0xadf68b5246c02c1b70f3cf4a3f6a8c3bf271bb1f",
      "contractAddress": null,
      "l1BaseFeeScalar": "0x1db0",
      "l1BlobBaseFee": "0x1",
      "l1BlobBaseFeeScalar": "0xd2730",
      "l1Fee": "0xe7",
      "l1GasPrice": "0x8",
      "l1GasUsed": "0x640"
    },
    {
      "status": "0x1",
      "cumulativeGasUsed": "0x3aa51",
      "logs": [
        {
          "address": "0xc7f23f7914e3e7eb2eb4bac18ace59ae4693008c",
          "topics": [
            "0x3a7d4b919c66e25bb96b646b1fa5df47aca5411773bfe1829fc8e86ab7006e6a",
            "0x000000000000000000000000e4ab69c077896252fafbd49efd26b5d171a32410"
          ],
          "data": "0x0000000000000000000000000000000000000000000000000000000000000001",
          "blockHash": "0x98f2d94471b698caf841250190ac31cc326ec248a44e7cc84046c7d713716271",
          "blockNumber": "0x212b28f",
          "blockTimestamp": "0x68fc40ca",
          "transactionHash": "0xd2034c0a40958c7d15423db9bd6255b68bf91fc2dbab33441493c3ea3e6542f8",
          "transactionIndex": "0x3",
          "logIndex": "0x2",
          "removed": false
        }
      ],
      "logsBloom": "0x00000000000000000000000000000000000000000000000000004000000000000000000000000000000000000000000000000000000000000000000000000000000000000000000000000000000000000020000000000000000000000000000000000000001000000000000000000000000000000000000000000000000080000000000000002000000000001000000000000000000000000000400000000000000000000000000000000000000000000000000000000000000000000000000000000000000000000000000000010200000000000000000000000000000000000000000000000000000000000000000000000000000000000000000000000000",
      "type": "0x2",
      "transactionHash": "0xd2034c0a40958c7d15423db9bd6255b68bf91fc2dbab33441493c3ea3e6542f8",
      "transactionIndex": "0x3",
      "blockHash": "0x98f2d94471b698caf841250190ac31cc326ec248a44e7cc84046c7d713716271",
      "blockNumber": "0x212b28f",
      "gasUsed": "0xce17",
      "effectiveGasPrice": "0xf433a",
      "from": "0x0e128580d848fb51849ab6564467a9ba79b4820c",
      "to": "0xc7f23f7914e3e7eb2eb4bac18ace59ae4693008c",
      "contractAddress": null,
      "l1BaseFeeScalar": "0x1db0",
      "l1BlobBaseFee": "0x1",
      "l1BlobBaseFeeScalar": "0xd2730",
      "l1Fee": "0xe7",
      "l1GasPrice": "0x8",
      "l1GasUsed": "0x640"
    },
    {
      "status": "0x1",
      "cumulativeGasUsed": "0x47868",
      "logs": [
        {
          "address": "0xc7f23f7914e3e7eb2eb4bac18ace59ae4693008c",
          "topics": [
            "0x3a7d4b919c66e25bb96b646b1fa5df47aca5411773bfe1829fc8e86ab7006e6a",
            "0x0000000000000000000000005fd84259d66cd46123540766be93dfe6d43130d7"
          ],
          "data": "0x0000000000000000000000000000000000000000000000000000000000000001",
          "blockHash": "0x98f2d94471b698caf841250190ac31cc326ec248a44e7cc84046c7d713716271",
          "blockNumber": "0x212b28f",
          "blockTimestamp": "0x68fc40ca",
          "transactionHash": "0x1c2c7c40efff7b00a8594d1c66a334bfec64b3def9ddf9c37c02182fc8b647e2",
          "transactionIndex": "0x4",
          "logIndex": "0x3",
          "removed": false
        }
      ],
      "logsBloom": "0x00000001000000000000000000000000000000000000000000000000000000000000000000000000000000000000000000000000000000000000000000000000000000000000000000000000000000000020000000000000000000000000000000000000009000000000000000000000000000000000000000000000000080000000000000000000000000001000000000000000000000000000400000000000000000000000000000000000000000000000000000000000000000000000000000000000000000000000000000000200000000000000000000000000000000000000000000000000100000000000000000000000000000000000000000000000",
      "type": "0x2",
      "transactionHash": "0x1c2c7c40efff7b00a8594d1c66a334bfec64b3def9ddf9c37c02182fc8b647e2",
      "transactionIndex": "0x4",
      "blockHash": "0x98f2d94471b698caf841250190ac31cc326ec248a44e7cc84046c7d713716271",
      "blockNumber": "0x212b28f",
      "gasUsed": "0xce17",
      "effectiveGasPrice": "0xf433a",
      "from": "0x0e128580d848fb51849ab6564467a9ba79b4820c",
      "to": "0xc7f23f7914e3e7eb2eb4bac18ace59ae4693008c",
      "contractAddress": null,
      "l1BaseFeeScalar": "0x1db0",
      "l1BlobBaseFee": "0x1",
      "l1BlobBaseFeeScalar": "0xd2730",
      "l1Fee": "0xe7",
      "l1GasPrice": "0x8",
      "l1GasUsed": "0x640"
    },
    {
      "status": "0x1",
      "cumulativeGasUsed": "0x5467f",
      "logs": [
        {
          "address": "0xc7f23f7914e3e7eb2eb4bac18ace59ae4693008c",
          "topics": [
            "0x3a7d4b919c66e25bb96b646b1fa5df47aca5411773bfe1829fc8e86ab7006e6a",
            "0x0000000000000000000000001c7d4b196cb0c7b01d743fbc6116a902379c7238"
          ],
          "data": "0x0000000000000000000000000000000000000000000000000000000000000001",
          "blockHash": "0x98f2d94471b698caf841250190ac31cc326ec248a44e7cc84046c7d713716271",
          "blockNumber": "0x212b28f",
          "blockTimestamp": "0x68fc40ca",
          "transactionHash": "0x94d73866e4837ae262bf00b77cc953868cb035a84829f2214efd5f880d70fca2",
          "transactionIndex": "0x5",
          "logIndex": "0x4",
          "removed": false
        }
      ],
      "logsBloom": "0x00000000000000000000000000000000000000000000000000000000000000000000000000000000000000000000000000000000000004000000000000000000100000000000000000000000000000000020000000000000000000000000000000000000001000000000000000000000000000000000000000000000000080000000000000000000000000001000000000000000000000000000400000000000000000000000000000000000000000000000008000000000000000000000000000000000000000000000000000000200000000000000000000000000000000000000000000000000000000000000000000000000000000000000000000000000",
      "type": "0x2",
      "transactionHash": "0x94d73866e4837ae262bf00b77cc953868cb035a84829f2214efd5f880d70fca2",
      "transactionIndex": "0x5",
      "blockHash": "0x98f2d94471b698caf841250190ac31cc326ec248a44e7cc84046c7d713716271",
      "blockNumber": "0x212b28f",
      "gasUsed": "0xce17",
      "effectiveGasPrice": "0xf433a",
      "from": "0x0e128580d848fb51849ab6564467a9ba79b4820c",
      "to": "0xc7f23f7914e3e7eb2eb4bac18ace59ae4693008c",
      "contractAddress": null,
      "l1BaseFeeScalar": "0x1db0",
      "l1BlobBaseFee": "0x1",
      "l1BlobBaseFeeScalar": "0xd2730",
      "l1Fee": "0xe7",
      "l1GasPrice": "0x8",
      "l1GasUsed": "0x640"
    },
    {
      "status": "0x1",
      "cumulativeGasUsed": "0x61496",
      "logs": [
        {
          "address": "0xc7f23f7914e3e7eb2eb4bac18ace59ae4693008c",
          "topics": [
            "0x3a7d4b919c66e25bb96b646b1fa5df47aca5411773bfe1829fc8e86ab7006e6a",
            "0x00000000000000000000000075faf114eafb1bdbe2f0316df893fd58ce46aa4d"
          ],
          "data": "0x0000000000000000000000000000000000000000000000000000000000000001",
          "blockHash": "0x98f2d94471b698caf841250190ac31cc326ec248a44e7cc84046c7d713716271",
          "blockNumber": "0x212b28f",
          "blockTimestamp": "0x68fc40ca",
          "transactionHash": "0xfc9a1b6ef775ddb1941da8fc19b3374ee5e0e683d0861230f1e529608aef9522",
          "transactionIndex": "0x6",
          "logIndex": "0x5",
          "removed": false
        }
      ],
      "logsBloom": "0x00000000000000000000000000000000000000000000000000000000000000000000000000000000000000000000000000008000000000000000000000000000000000000000000000000000000000000020000000000000000000000000000000000000001000000000000000000000020000000000002000000000000080000000000000000000000000001000000000000000000000000000400000000000000000000000000000000000000000000000000000000000000000000000000000000000000000000000000000000200000000000000000000000000000000000000000000000000000000000000000000000000000000000000000000000000",
      "type": "0x2",
      "transactionHash": "0xfc9a1b6ef775ddb1941da8fc19b3374ee5e0e683d0861230f1e529608aef9522",
      "transactionIndex": "0x6",
      "blockHash": "0x98f2d94471b698caf841250190ac31cc326ec248a44e7cc84046c7d713716271",
      "blockNumber": "0x212b28f",
      "gasUsed": "0xce17",
      "effectiveGasPrice": "0xf433a",
      "from": "0x0e128580d848fb51849ab6564467a9ba79b4820c",
      "to": "0xc7f23f7914e3e7eb2eb4bac18ace59ae4693008c",
      "contractAddress": null,
      "l1BaseFeeScalar": "0x1db0",
      "l1BlobBaseFee": "0x1",
      "l1BlobBaseFeeScalar": "0xd2730",
      "l1Fee": "0xe7",
      "l1GasPrice": "0x8",
      "l1GasUsed": "0x640"
    },
    {
      "status": "0x1",
      "cumulativeGasUsed": "0x79182",
      "logs": [
        {
          "address": "0xc7f23f7914e3e7eb2eb4bac18ace59ae4693008c",
          "topics": [
            "0x2940c4bfb544a4b0a5b4262767947b0acc0b8f144197528463c4d476658cff79",
            "0x0000000000000000000000001c7d4b196cb0c7b01d743fbc6116a902379c7238",
            "0x000000000000000000000000a2f78ab2355fe2f984d808b5cee7fd0a93d5270e"
          ],
          "data": "0x",
          "blockHash": "0x98f2d94471b698caf841250190ac31cc326ec248a44e7cc84046c7d713716271",
          "blockNumber": "0x212b28f",
          "blockTimestamp": "0x68fc40ca",
          "transactionHash": "0xa6ce85f811d5114fdf6c563d3aa0022549cc80f13a78ee5153375527b793a3c9",
          "transactionIndex": "0x7",
          "logIndex": "0x6",
          "removed": false
        }
      ],
      "logsBloom": "0x00000000000000000000000000000000000000000020000000000000000000000000000000000000000000000000000000000000000004000000000000000000100000000000004000000000000000001000000000000000000000000000000000000000000000000000000000000000000000000000000000000000000080000000000000000000000010000000000000000020000000000000400000000000000000000000000000000000000000000000008000000000000000000000000000000000000000000000000100000200000000000000000000000000000000000000000000000000000000000000000000000000000000000000000000000000",
      "type": "0x2",
      "transactionHash": "0xa6ce85f811d5114fdf6c563d3aa0022549cc80f13a78ee5153375527b793a3c9",
      "transactionIndex": "0x7",
      "blockHash": "0x98f2d94471b698caf841250190ac31cc326ec248a44e7cc84046c7d713716271",
      "blockNumber": "0x212b28f",
      "gasUsed": "0x17cec",
      "effectiveGasPrice": "0xf433a",
      "from": "0x0e128580d848fb51849ab6564467a9ba79b4820c",
      "to": "0xc7f23f7914e3e7eb2eb4bac18ace59ae4693008c",
      "contractAddress": null,
      "l1BaseFeeScalar": "0x1db0",
      "l1BlobBaseFee": "0x1",
      "l1BlobBaseFeeScalar": "0xd2730",
      "l1Fee": "0xe7",
      "l1GasPrice": "0x8",
      "l1GasUsed": "0x654"
    },
    {
      "status": "0x1",
      "cumulativeGasUsed": "0x8cba2",
      "logs": [
        {
          "address": "0xc7f23f7914e3e7eb2eb4bac18ace59ae4693008c",
          "topics": [
            "0x2940c4bfb544a4b0a5b4262767947b0acc0b8f144197528463c4d476658cff79",
            "0x0000000000000000000000005fd84259d66cd46123540766be93dfe6d43130d7",
            "0x0000000000000000000000006e44e50e3cc14dd16e01c590dc1d7020cb36ed4c"
          ],
          "data": "0x",
          "blockHash": "0x98f2d94471b698caf841250190ac31cc326ec248a44e7cc84046c7d713716271",
          "blockNumber": "0x212b28f",
          "blockTimestamp": "0x68fc40ca",
          "transactionHash": "0xe24819b0e20e8f4392c2330af457c5795408e4b2d0f4e85066710b8d2f24356d",
          "transactionIndex": "0x8",
          "logIndex": "0x7",
          "removed": false
        }
      ],
      "logsBloom": "0x00000001000000000400000000000000000000000000000000000000000000000000000000000000000000000000000000000000000000000000000000000000000000000000004000000000000000001000000000000000000000000000000000000000008000000000000000000000000000080000000008000000000080000000000000000000000010000000000000000000000000000000400000000000000000000000000000000000000000000000000000000000000000000000000000000000000000000000000000000200000000000000000000000000000000000000000000000000100000000000000000000000000000000000000000000000",
      "type": "0x2",
      "transactionHash": "0xe24819b0e20e8f4392c2330af457c5795408e4b2d0f4e85066710b8d2f24356d",
      "transactionIndex": "0x8",
      "blockHash": "0x98f2d94471b698caf841250190ac31cc326ec248a44e7cc84046c7d713716271",
      "blockNumber": "0x212b28f",
      "gasUsed": "0x13a20",
      "effectiveGasPrice": "0xf433a",
      "from": "0x0e128580d848fb51849ab6564467a9ba79b4820c",
      "to": "0xc7f23f7914e3e7eb2eb4bac18ace59ae4693008c",
      "contractAddress": null,
      "l1BaseFeeScalar": "0x1db0",
      "l1BlobBaseFee": "0x1",
      "l1BlobBaseFeeScalar": "0xd2730",
      "l1Fee": "0xe7",
      "l1GasPrice": "0x8",
      "l1GasUsed": "0x654"
    },
    {
      "status": "0x1",
      "cumulativeGasUsed": "0xa05b6",
      "logs": [
        {
          "address": "0xc7f23f7914e3e7eb2eb4bac18ace59ae4693008c",
          "topics": [
            "0x2940c4bfb544a4b0a5b4262767947b0acc0b8f144197528463c4d476658cff79",
            "0x00000000000000000000000075faf114eafb1bdbe2f0316df893fd58ce46aa4d",
            "0x0000000000000000000000000153002d20b96532c639313c2d54c3da09109309"
          ],
          "data": "0x",
          "blockHash": "0x98f2d94471b698caf841250190ac31cc326ec248a44e7cc84046c7d713716271",
          "blockNumber": "0x212b28f",
          "blockTimestamp": "0x68fc40ca",
          "transactionHash": "0x92a43738fb2593fa72bfc09105a8872a5d65c70fa4019087274a0ab35fadd29c",
          "transactionIndex": "0x9",
          "logIndex": "0x8",
          "removed": false
        }
      ],
      "logsBloom": "0x00000000000000000000000000000000000000000000000000000000000000000000000000000000000000000000000000008000000000000000000000000000000000000000004000000000000000001000000000000000000000000000000000000000000000000000000010000000020000000000002000000010000080000000000000000000000010000000000000000000000000000000400000000000000000000000000000000000000000000000000000000000000000000000000000000000000000000000000000000200000000000000000000000000000000000000000000000000000000000000400000000000000000000000000000000000",
      "type": "0x2",
      "transactionHash": "0x92a43738fb2593fa72bfc09105a8872a5d65c70fa4019087274a0ab35fadd29c",
      "transactionIndex": "0x9",
      "blockHash": "0x98f2d94471b698caf841250190ac31cc326ec248a44e7cc84046c7d713716271",
      "blockNumber": "0x212b28f",
      "gasUsed": "0x13a14",
      "effectiveGasPrice": "0xf433a",
      "from": "0x0e128580d848fb51849ab6564467a9ba79b4820c",
      "to": "0xc7f23f7914e3e7eb2eb4bac18ace59ae4693008c",
      "contractAddress": null,
      "l1BaseFeeScalar": "0x1db0",
      "l1BlobBaseFee": "0x1",
      "l1BlobBaseFeeScalar": "0xd2730",
      "l1Fee": "0xe7",
      "l1GasPrice": "0x8",
      "l1GasUsed": "0x654"
    }
  ],
  "libraries": [],
  "pending": [],
  "returns": {},
  "timestamp": 1761362122,
  "chain": 11155420,
  "commit": "5cb3b2e"
}