{
  "transactions": [
    {
      "hash": "0x0c8c9feec32b7e311e35a4bfd443e6c9eac0cc9ead6ae8a8ea3371c0ce12ab7b",
      "transactionType": "CALL",
      "contractName": null,
      "contractAddress": "0x5f225bddb33a65aa9c9021264f0fde5b9957b97b",
      "function": "setRemoteBridge(address,bool)",
      "arguments": [
        "0x9eAcE79c13B784909D51060e1595E82bfF53458a",
        "true"
      ],
      "transaction": {
        "from": "0x0e128580d848fb51849ab6564467a9ba79b4820c",
        "to": "0x5f225bddb33a65aa9c9021264f0fde5b9957b97b",
        "gas": "0x17763",
        "value": "0x0",
        "input": "0x5caffcd60000000000000000000000009eace79c13b784909d51060e1595e82bff53458a0000000000000000000000000000000000000000000000000000000000000001",
        "nonce": "0x206",
        "chainId": "0xaa37dc"
      },
      "additionalContracts": [],
      "isFixedGasLimit": false
    },
    {
      "hash": "0x4b2d288f0760eb0652f6329eef02cbac9062ba39b92164cd57c866a59953995a",
      "transactionType": "CALL",
      "contractName": null,
      "contractAddress": "0x7090b6ececdea0d8e491c9ad27d16abaaf8cb095",
      "function": "setAllowedToken(address,bool)",
      "arguments": [
        "0xE4aB69C077896252FAFBD49EFD26B5D171A32410",
        "true"
      ],
      "transaction": {
        "from": "0x0e128580d848fb51849ab6564467a9ba79b4820c",
        "to": "0x7090b6ececdea0d8e491c9ad27d16abaaf8cb095",
        "gas": "0x11ca8",
        "value": "0x0",
        "input": "0x8aaa2284000000000000000000000000e4ab69c077896252fafbd49efd26b5d171a324100000000000000000000000000000000000000000000000000000000000000001",
        "nonce": "0x207",
        "chainId": "0xaa37dc"
      },
      "additionalContracts": [],
      "isFixedGasLimit": false
    },
    {
      "hash": "0x09dd5d701ef8a7122e0795fd0594b46e2806974e3f6b2137faf83417313c20e4",
      "transactionType": "CALL",
      "contractName": null,
      "contractAddress": "0x7090b6ececdea0d8e491c9ad27d16abaaf8cb095",
      "function": "setAllowedToken(address,bool)",
      "arguments": [
        "0x5fd84259d66Cd46123540766Be93DFE6D43130D7",
        "true"
      ],
      "transaction": {
        "from": "0x0e128580d848fb51849ab6564467a9ba79b4820c",
        "to": "0x7090b6ececdea0d8e491c9ad27d16abaaf8cb095",
        "gas": "0x11ca8",
        "value": "0x0",
        "input": "0x8aaa22840000000000000000000000005fd84259d66cd46123540766be93dfe6d43130d70000000000000000000000000000000000000000000000000000000000000001",
        "nonce": "0x208",
        "chainId": "0xaa37dc"
      },
      "additionalContracts": [],
      "isFixedGasLimit": false
    },
    {
      "hash": "0xb4ca8e368cf262850ebef3f21f778d7527d8b632a65b1b6e78b801ae0a1e29c4",
      "transactionType": "CALL",
      "contractName": null,
      "contractAddress": "0x7090b6ececdea0d8e491c9ad27d16abaaf8cb095",
      "function": "setAllowedToken(address,bool)",
      "arguments": [
        "0x1c7D4B196Cb0C7B01d743Fbc6116a902379C7238",
        "true"
      ],
      "transaction": {
        "from": "0x0e128580d848fb51849ab6564467a9ba79b4820c",
        "to": "0x7090b6ececdea0d8e491c9ad27d16abaaf8cb095",
        "gas": "0x11ca8",
        "value": "0x0",
        "input": "0x8aaa22840000000000000000000000001c7d4b196cb0c7b01d743fbc6116a902379c72380000000000000000000000000000000000000000000000000000000000000001",
        "nonce": "0x209",
        "chainId": "0xaa37dc"
      },
      "additionalContracts": [],
      "isFixedGasLimit": false
    },
    {
      "hash": "0x746da68ff6bcee2c392cc939bc3cc747f5a3c9fe99c296a7d9d241dae85b8020",
      "transactionType": "CALL",
      "contractName": null,
      "contractAddress": "0x7090b6ececdea0d8e491c9ad27d16abaaf8cb095",
      "function": "setAllowedToken(address,bool)",
      "arguments": [
        "0x75faf114eafb1BDbe2F0316DF893fd58CE46AA4d",
        "true"
      ],
      "transaction": {
        "from": "0x0e128580d848fb51849ab6564467a9ba79b4820c",
        "to": "0x7090b6ececdea0d8e491c9ad27d16abaaf8cb095",
        "gas": "0x11ca8",
        "value": "0x0",
        "input": "0x8aaa228400000000000000000000000075faf114eafb1bdbe2f0316df893fd58ce46aa4d0000000000000000000000000000000000000000000000000000000000000001",
        "nonce": "0x20a",
        "chainId": "0xaa37dc"
      },
      "additionalContracts": [],
      "isFixedGasLimit": false
    },
    {
      "hash": "0xe2696078080028f67bb30e78f3eaad50917b74ee4f208934559f75edcca78f69",
      "transactionType": "CALL",
      "contractName": null,
      "contractAddress": "0x7090b6ececdea0d8e491c9ad27d16abaaf8cb095",
      "function": "addPriceFeed(address,address)",
      "arguments": [
        "0x1c7D4B196Cb0C7B01d743Fbc6116a902379C7238",
        "0x6e44e50E3cc14DD16e01C590DC1d7020cb36eD4C"
      ],
      "transaction": {
        "from": "0x0e128580d848fb51849ab6564467a9ba79b4820c",
        "to": "0x7090b6ececdea0d8e491c9ad27d16abaaf8cb095",
        "gas": "0x20e25",
        "value": "0x0",
        "input": "0xe8a97a3e0000000000000000000000001c7d4b196cb0c7b01d743fbc6116a902379c72380000000000000000000000006e44e50e3cc14dd16e01c590dc1d7020cb36ed4c",
        "nonce": "0x20b",
        "chainId": "0xaa37dc"
      },
      "additionalContracts": [],
      "isFixedGasLimit": false
    },
    {
      "hash": "0x2a85636838117fafb6fa9e275c8f707a715cdae5feb91f1593f6da38b6eeee3d",
      "transactionType": "CALL",
      "contractName": null,
      "contractAddress": "0x7090b6ececdea0d8e491c9ad27d16abaaf8cb095",
      "function": "addPriceFeed(address,address)",
      "arguments": [
        "0x5fd84259d66Cd46123540766Be93DFE6D43130D7",
        "0x6e44e50E3cc14DD16e01C590DC1d7020cb36eD4C"
      ],
      "transaction": {
        "from": "0x0e128580d848fb51849ab6564467a9ba79b4820c",
        "to": "0x7090b6ececdea0d8e491c9ad27d16abaaf8cb095",
        "gas": "0x1b1e2",
        "value": "0x0",
        "input": "0xe8a97a3e0000000000000000000000005fd84259d66cd46123540766be93dfe6d43130d70000000000000000000000006e44e50e3cc14dd16e01c590dc1d7020cb36ed4c",
        "nonce": "0x20c",
        "chainId": "0xaa37dc"
      },
      "additionalContracts": [],
      "isFixedGasLimit": false
    },
    {
      "hash": "0xcb47465a0825a9d86203dab8036eec7e917032750ded1b01f21f5aff4537ec19",
      "transactionType": "CALL",
      "contractName": null,
      "contractAddress": "0x7090b6ececdea0d8e491c9ad27d16abaaf8cb095",
      "function": "addPriceFeed(address,address)",
      "arguments": [
        "0x75faf114eafb1BDbe2F0316DF893fd58CE46AA4d",
        "0x6e44e50E3cc14DD16e01C590DC1d7020cb36eD4C"
      ],
      "transaction": {
        "from": "0x0e128580d848fb51849ab6564467a9ba79b4820c",
        "to": "0x7090b6ececdea0d8e491c9ad27d16abaaf8cb095",
        "gas": "0x1b1e2",
        "value": "0x0",
        "input": "0xe8a97a3e00000000000000000000000075faf114eafb1bdbe2f0316df893fd58ce46aa4d0000000000000000000000006e44e50e3cc14dd16e01c590dc1d7020cb36ed4c",
        "nonce": "0x20d",
        "chainId": "0xaa37dc"
      },
      "additionalContracts": [],
      "isFixedGasLimit": false
    }
  ],
  "receipts": [
    {
      "status": "0x1",
      "cumulativeGasUsed": "0x23a0f",
      "logs": [
        {
          "address": "0x5f225bddb33a65aa9c9021264f0fde5b9957b97b",
          "topics": [
            "0xa54ce142349af8e389fe00f37d69e79664a287b29c8e325917962e92e4fe5fcd"
          ],
          "data": "0x0000000000000000000000009eace79c13b784909d51060e1595e82bff53458a",
          "blockHash": "0x441920143d926a8b4c299717e6b10e354513556c96fb6c264452611dc86f11fd",
          "blockNumber": "0x20ff535",
          "blockTimestamp": "0x68f6c616",
          "transactionHash": "0x0c8c9feec32b7e311e35a4bfd443e6c9eac0cc9ead6ae8a8ea3371c0ce12ab7b",
          "transactionIndex": "0x2",
          "logIndex": "0x0",
          "removed": false
        }
      ],
      "logsBloom": "0x00000000000001000000000000000000000000000000000000000000000000000000000000000000000000000000000000000000000000000000000000000000000000000000000000000000000000000000000000000000000000000000000040000000000000000000000000000000000000000000000200000000000000000000000000000000000000000000000000000000000000000000000000000000000000000000001000000000000000000000000000000000000000000000000000000000000000000000400000000000000000000000000000000000000000000000000000000000000000000000000000000000000000000000000000100000",
      "type": "0x2",
      "transactionHash": "0x0c8c9feec32b7e311e35a4bfd443e6c9eac0cc9ead6ae8a8ea3371c0ce12ab7b",
      "transactionIndex": "0x2",
      "blockHash": "0x441920143d926a8b4c299717e6b10e354513556c96fb6c264452611dc86f11fd",
      "blockNumber": "0x20ff535",
      "gasUsed": "0x10fc7",
      "effectiveGasPrice": "0xf433a",
      "from": "0x0e128580d848fb51849ab6564467a9ba79b4820c",
      "to": "0x5f225bddb33a65aa9c9021264f0fde5b9957b97b",
      "contractAddress": null,
      "l1BaseFeeScalar": "0x1db0",
      "l1BlobBaseFee": "0x32c",
      "l1BlobBaseFeeScalar": "0xd2730",
      "l1Fee": "0x2a3d8",
      "l1GasPrice": "0x8",
      "l1GasUsed": "0x640"
    },
    {
      "status": "0x1",
      "cumulativeGasUsed": "0x30826",
      "logs": [
        {
          "address": "0x7090b6ececdea0d8e491c9ad27d16abaaf8cb095",
          "topics": [
            "0x3a7d4b919c66e25bb96b646b1fa5df47aca5411773bfe1829fc8e86ab7006e6a",
            "0x000000000000000000000000e4ab69c077896252fafbd49efd26b5d171a32410"
          ],
          "data": "0x0000000000000000000000000000000000000000000000000000000000000001",
          "blockHash": "0x441920143d926a8b4c299717e6b10e354513556c96fb6c264452611dc86f11fd",
          "blockNumber": "0x20ff535",
          "blockTimestamp": "0x68f6c616",
          "transactionHash": "0x4b2d288f0760eb0652f6329eef02cbac9062ba39b92164cd57c866a59953995a",
          "transactionIndex": "0x3",
          "logIndex": "0x1",
          "removed": false
        }
      ],
      "logsBloom": "0x00000000000000000000000000000000000000000000000000004000000000000000000000000000000000000000000000000000000400000000000000000000000000000000000000000000000000000020000000000000000000000000000000000000001000000000000000000000000000000000000000000000000000000000000000002000000000001000000000000000000000000000000000000000000000000000000000000000000000000000000000000800000000000000000000000000000000000000000000010000000000000000000000000000000000000000004000000000000000000000000000000000000000000000000000000000",
      "type": "0x2",
      "transactionHash": "0x4b2d288f0760eb0652f6329eef02cbac9062ba39b92164cd57c866a59953995a",
      "transactionIndex": "0x3",
      "blockHash": "0x441920143d926a8b4c299717e6b10e354513556c96fb6c264452611dc86f11fd",
      "blockNumber": "0x20ff535",
      "gasUsed": "0xce17",
      "effectiveGasPrice": "0xf433a",
      "from": "0x0e128580d848fb51849ab6564467a9ba79b4820c",
      "to": "0x7090b6ececdea0d8e491c9ad27d16abaaf8cb095",
      "contractAddress": null,
      "l1BaseFeeScalar": "0x1db0",
      "l1BlobBaseFee": "0x32c",
      "l1BlobBaseFeeScalar": "0xd2730",
      "l1Fee": "0x2a3d8",
      "l1GasPrice": "0x8",
      "l1GasUsed": "0x640"
    },
    {
      "status": "0x1",
      "cumulativeGasUsed": "0x3d63d",
      "logs": [
        {
          "address": "0x7090b6ececdea0d8e491c9ad27d16abaaf8cb095",
          "topics": [
            "0x3a7d4b919c66e25bb96b646b1fa5df47aca5411773bfe1829fc8e86ab7006e6a",
            "0x0000000000000000000000005fd84259d66cd46123540766be93dfe6d43130d7"
          ],
          "data": "0x0000000000000000000000000000000000000000000000000000000000000001",
          "blockHash": "0x441920143d926a8b4c299717e6b10e354513556c96fb6c264452611dc86f11fd",
          "blockNumber": "0x20ff535",
          "blockTimestamp": "0x68f6c616",
          "transactionHash": "0x09dd5d701ef8a7122e0795fd0594b46e2806974e3f6b2137faf83417313c20e4",
          "transactionIndex": "0x4",
          "logIndex": "0x2",
          "removed": false
        }
      ],
      "logsBloom": "0x00000001000000000000000000000000000000000000000000000000000000000000000000000000000000000000000000000000000400000000000000000000000000000000000000000000000000000020000000000000000000000000000000000000009000000000000000000000000000000000000000000000000000000000000000000000000000001000000000000000000000000000000000000000000000000000000000000000000000000000000000000800000000000000000000000000000000000000000000000000000000000000000000000000000000000000004000000000100000000000000000000000000000000000000000000000",
      "type": "0x2",
      "transactionHash": "0x09dd5d701ef8a7122e0795fd0594b46e2806974e3f6b2137faf83417313c20e4",
      "transactionIndex": "0x4",
      "blockHash": "0x441920143d926a8b4c299717e6b10e354513556c96fb6c264452611dc86f11fd",
      "blockNumber": "0x20ff535",
      "gasUsed": "0xce17",
      "effectiveGasPrice": "0xf433a",
      "from": "0x0e128580d848fb51849ab6564467a9ba79b4820c",
      "to": "0x7090b6ececdea0d8e491c9ad27d16abaaf8cb095",
      "contractAddress": null,
      "l1BaseFeeScalar": "0x1db0",
      "l1BlobBaseFee": "0x32c",
      "l1BlobBaseFeeScalar": "0xd2730",
      "l1Fee": "0x2a3d8",
      "l1GasPrice": "0x8",
      "l1GasUsed": "0x640"
    },
    {
      "status": "0x1",
      "cumulativeGasUsed": "0x4a454",
      "logs": [
        {
          "address": "0x7090b6ececdea0d8e491c9ad27d16abaaf8cb095",
          "topics": [
            "0x3a7d4b919c66e25bb96b646b1fa5df47aca5411773bfe1829fc8e86ab7006e6a",
            "0x0000000000000000000000001c7d4b196cb0c7b01d743fbc6116a902379c7238"
          ],
          "data": "0x0000000000000000000000000000000000000000000000000000000000000001",
          "blockHash": "0x441920143d926a8b4c299717e6b10e354513556c96fb6c264452611dc86f11fd",
          "blockNumber": "0x20ff535",
          "blockTimestamp": "0x68f6c616",
          "transactionHash": "0xb4ca8e368cf262850ebef3f21f778d7527d8b632a65b1b6e78b801ae0a1e29c4",
          "transactionIndex": "0x5",
          "logIndex": "0x3",
          "removed": false
        }
      ],
      "logsBloom": "0x00000000000000000000000000000000000000000000000000000000000000000000000000000000000000000000000000000000000404000000000000000000100000000000000000000000000000000020000000000000000000000000000000000000001000000000000000000000000000000000000000000000000000000000000000000000000000001000000000000000000000000000000000000000000000000000000000000000000000000000008000000800000000000000000000000000000000000000000000000000000000000000000000000000000000000000004000000000000000000000000000000000000000000000000000000000",
      "type": "0x2",
      "transactionHash": "0xb4ca8e368cf262850ebef3f21f778d7527d8b632a65b1b6e78b801ae0a1e29c4",
      "transactionIndex": "0x5",
      "blockHash": "0x441920143d926a8b4c299717e6b10e354513556c96fb6c264452611dc86f11fd",
      "blockNumber": "0x20ff535",
      "gasUsed": "0xce17",
      "effectiveGasPrice": "0xf433a",
      "from": "0x0e128580d848fb51849ab6564467a9ba79b4820c",
      "to": "0x7090b6ececdea0d8e491c9ad27d16abaaf8cb095",
      "contractAddress": null,
      "l1BaseFeeScalar": "0x1db0",
      "l1BlobBaseFee": "0x32c",
      "l1BlobBaseFeeScalar": "0xd2730",
      "l1Fee": "0x2a3d8",
      "l1GasPrice": "0x8",
      "l1GasUsed": "0x640"
    },
    {
      "status": "0x1",
      "cumulativeGasUsed": "0x5726b",
      "logs": [
        {
          "address": "0x7090b6ececdea0d8e491c9ad27d16abaaf8cb095",
          "topics": [
            "0x3a7d4b919c66e25bb96b646b1fa5df47aca5411773bfe1829fc8e86ab7006e6a",
            "0x00000000000000000000000075faf114eafb1bdbe2f0316df893fd58ce46aa4d"
          ],
          "data": "0x0000000000000000000000000000000000000000000000000000000000000001",
          "blockHash": "0x441920143d926a8b4c299717e6b10e354513556c96fb6c264452611dc86f11fd",
          "blockNumber": "0x20ff535",
          "blockTimestamp": "0x68f6c616",
          "transactionHash": "0x746da68ff6bcee2c392cc939bc3cc747f5a3c9fe99c296a7d9d241dae85b8020",
          "transactionIndex": "0x6",
          "logIndex": "0x4",
          "removed": false
        }
      ],
      "logsBloom": "0x00000000000000000000000000000000000000000000000000000000000000000000000000000000000000000000000000008000000400000000000000000000000000000000000000000000000000000020000000000000000000000000000000000000001000000000000000000000020000000000002000000000000000000000000000000000000000001000000000000000000000000000000000000000000000000000000000000000000000000000000000000800000000000000000000000000000000000000000000000000000000000000000000000000000000000000004000000000000000000000000000000000000000000000000000000000",
      "type": "0x2",
      "transactionHash": "0x746da68ff6bcee2c392cc939bc3cc747f5a3c9fe99c296a7d9d241dae85b8020",
      "transactionIndex": "0x6",
      "blockHash": "0x441920143d926a8b4c299717e6b10e354513556c96fb6c264452611dc86f11fd",
      "blockNumber": "0x20ff535",
      "gasUsed": "0xce17",
      "effectiveGasPrice": "0xf433a",
      "from": "0x0e128580d848fb51849ab6564467a9ba79b4820c",
      "to": "0x7090b6ececdea0d8e491c9ad27d16abaaf8cb095",
      "contractAddress": null,
      "l1BaseFeeScalar": "0x1db0",
      "l1BlobBaseFee": "0x32c",
      "l1BlobBaseFeeScalar": "0xd2730",
      "l1Fee": "0x2a3d8",
      "l1GasPrice": "0x8",
      "l1GasUsed": "0x640"
    },
    {
      "status": "0x1",
      "cumulativeGasUsed": "0x6ef57",
      "logs": [
        {
          "address": "0x7090b6ececdea0d8e491c9ad27d16abaaf8cb095",
          "topics": [
            "0x2940c4bfb544a4b0a5b4262767947b0acc0b8f144197528463c4d476658cff79",
            "0x0000000000000000000000001c7d4b196cb0c7b01d743fbc6116a902379c7238",
            "0x0000000000000000000000006e44e50e3cc14dd16e01c590dc1d7020cb36ed4c"
          ],
          "data": "0x",
          "blockHash": "0x441920143d926a8b4c299717e6b10e354513556c96fb6c264452611dc86f11fd",
          "blockNumber": "0x20ff535",
          "blockTimestamp": "0x68f6c616",
          "transactionHash": "0xe2696078080028f67bb30e78f3eaad50917b74ee4f208934559f75edcca78f69",
          "transactionIndex": "0x7",
          "logIndex": "0x5",
          "removed": false
        }
      ],
      "logsBloom": "0x00000000000000000400000000000000000000000000000000000000000000000000000000000000000000000000000000000000000404000000000000000000100000000000004000000000000000001000000000000000000000000000000000000000000000000000000000000000000000080000000008000000000000000000000000000000000010000000000000000000000000000000000000000000000000000000000000000000000000000000008000000800000000000000000000000000000000000000000000000000000000000000000000000000000000000000004000000000000000000000000000000000000000000000000000000000",
      "type": "0x2",
      "transactionHash": "0xe2696078080028f67bb30e78f3eaad50917b74ee4f208934559f75edcca78f69",
      "transactionIndex": "0x7",
      "blockHash": "0x441920143d926a8b4c299717e6b10e354513556c96fb6c264452611dc86f11fd",
      "blockNumber": "0x20ff535",
      "gasUsed": "0x17cec",
      "effectiveGasPrice": "0xf433a",
      "from": "0x0e128580d848fb51849ab6564467a9ba79b4820c",
      "to": "0x7090b6ececdea0d8e491c9ad27d16abaaf8cb095",
      "contractAddress": null,
      "l1BaseFeeScalar": "0x1db0",
      "l1BlobBaseFee": "0x32c",
      "l1BlobBaseFeeScalar": "0xd2730",
      "l1Fee": "0x2a3d8",
      "l1GasPrice": "0x8",
      "l1GasUsed": "0x654"
    },
    {
      "status": "0x1",
      "cumulativeGasUsed": "0x82977",
      "logs": [
        {
          "address": "0x7090b6ececdea0d8e491c9ad27d16abaaf8cb095",
          "topics": [
            "0x2940c4bfb544a4b0a5b4262767947b0acc0b8f144197528463c4d476658cff79",
            "0x0000000000000000000000005fd84259d66cd46123540766be93dfe6d43130d7",
            "0x0000000000000000000000006e44e50e3cc14dd16e01c590dc1d7020cb36ed4c"
          ],
          "data": "0x",
          "blockHash": "0x441920143d926a8b4c299717e6b10e354513556c96fb6c264452611dc86f11fd",
          "blockNumber": "0x20ff535",
          "blockTimestamp": "0x68f6c616",
          "transactionHash": "0x2a85636838117fafb6fa9e275c8f707a715cdae5feb91f1593f6da38b6eeee3d",
          "transactionIndex": "0x8",
          "logIndex": "0x6",
          "removed": false
        }
      ],
      "logsBloom": "0x00000001000000000400000000000000000000000000000000000000000000000000000000000000000000000000000000000000000400000000000000000000000000000000004000000000000000001000000000000000000000000000000000000000008000000000000000000000000000080000000008000000000000000000000000000000000010000000000000000000000000000000000000000000000000000000000000000000000000000000000000000800000000000000000000000000000000000000000000000000000000000000000000000000000000000000004000000000100000000000000000000000000000000000000000000000",
      "type": "0x2",
      "transactionHash": "0x2a85636838117fafb6fa9e275c8f707a715cdae5feb91f1593f6da38b6eeee3d",
      "transactionIndex": "0x8",
      "blockHash": "0x441920143d926a8b4c299717e6b10e354513556c96fb6c264452611dc86f11fd",
      "blockNumber": "0x20ff535",
      "gasUsed": "0x13a20",
      "effectiveGasPrice": "0xf433a",
      "from": "0x0e128580d848fb51849ab6564467a9ba79b4820c",
      "to": "0x7090b6ececdea0d8e491c9ad27d16abaaf8cb095",
      "contractAddress": null,
      "l1BaseFeeScalar": "0x1db0",
      "l1BlobBaseFee": "0x32c",
      "l1BlobBaseFeeScalar": "0xd2730",
      "l1Fee": "0x2a3d8",
      "l1GasPrice": "0x8",
      "l1GasUsed": "0x654"
    },
    {
      "status": "0x1",
      "cumulativeGasUsed": "0x96397",
      "logs": [
        {
          "address": "0x7090b6ececdea0d8e491c9ad27d16abaaf8cb095",
          "topics": [
            "0x2940c4bfb544a4b0a5b4262767947b0acc0b8f144197528463c4d476658cff79",
            "0x00000000000000000000000075faf114eafb1bdbe2f0316df893fd58ce46aa4d",
            "0x0000000000000000000000006e44e50e3cc14dd16e01c590dc1d7020cb36ed4c"
          ],
          "data": "0x",
          "blockHash": "0x441920143d926a8b4c299717e6b10e354513556c96fb6c264452611dc86f11fd",
          "blockNumber": "0x20ff535",
          "blockTimestamp": "0x68f6c616",
          "transactionHash": "0xcb47465a0825a9d86203dab8036eec7e917032750ded1b01f21f5aff4537ec19",
          "transactionIndex": "0x9",
          "logIndex": "0x7",
          "removed": false
        }
      ],
      "logsBloom": "0x00000000000000000400000000000000000000000000000000000000000000000000000000000000000000000000000000008000000400000000000000000000000000000000004000000000000000001000000000000000000000000000000000000000000000000000000000000000020000080000002008000000000000000000000000000000000010000000000000000000000000000000000000000000000000000000000000000000000000000000000000000800000000000000000000000000000000000000000000000000000000000000000000000000000000000000004000000000000000000000000000000000000000000000000000000000",
      "type": "0x2",
      "transactionHash": "0xcb47465a0825a9d86203dab8036eec7e917032750ded1b01f21f5aff4537ec19",
      "transactionIndex": "0x9",
      "blockHash": "0x441920143d926a8b4c299717e6b10e354513556c96fb6c264452611dc86f11fd",
      "blockNumber": "0x20ff535",
      "gasUsed": "0x13a20",
      "effectiveGasPrice": "0xf433a",
      "from": "0x0e128580d848fb51849ab6564467a9ba79b4820c",
      "to": "0x7090b6ececdea0d8e491c9ad27d16abaaf8cb095",
      "contractAddress": null,
      "l1BaseFeeScalar": "0x1db0",
      "l1BlobBaseFee": "0x32c",
      "l1BlobBaseFeeScalar": "0xd2730",
      "l1Fee": "0x2a3d8",
      "l1GasPrice": "0x8",
      "l1GasUsed": "0x654"
    }
  ],
  "libraries": [],
  "pending": [],
  "returns": {},
  "timestamp": 1761003029,
  "chain": 11155420,
  "commit": "688c141"
}