{
  "transactions": [
    {
      "hash": "0x7cf1996bdcc41611d28b10122f2f00a920fad595f411438580f3f74c814eb90d",
      "transactionType": "CALL",
      "contractName": null,
      "contractAddress": "0x6c7a7a4175559a1d919ac882a7d97908667f4c94",
      "function": "setRemoteBridge(uint64,address,bool)",
      "arguments": [
        "3478487238524512106",
        "0xBB5C084A0601Ac65626afA6034E98f30AD573358",
        "true"
      ],
      "transaction": {
        "from": "0x0e128580d848fb51849ab6564467a9ba79b4820c",
        "to": "0x6c7a7a4175559a1d919ac882a7d97908667f4c94",
        "gas": "0x17877",
        "value": "0x0",
        "input": "0x11d82d55000000000000000000000000000000000000000000000000304611b6affba76a000000000000000000000000bb5c084a0601ac65626afa6034e98f30ad5733580000000000000000000000000000000000000000000000000000000000000001",
        "nonce": "0x212",
        "chainId": "0xaa37dc"
      },
      "additionalContracts": [],
      "isFixedGasLimit": false
    },
    {
      "hash": "0xfb3049eb15c8743b4026842a8f43708cff243121fe22efc9a804e1e84ba16800",
      "transactionType": "CALL",
      "contractName": "BeanHeadsDiamond",
      "contractAddress": "0x7090b6ececdea0d8e491c9ad27d16abaaf8cb095",
      "function": null,
      "arguments": null,
      "transaction": {
        "from": "0x0e128580d848fb51849ab6564467a9ba79b4820c",
        "to": "0x7090b6ececdea0d8e491c9ad27d16abaaf8cb095",
        "gas": "0xbbb7",
        "value": "0x0",
        "input": "0x8aaa2284000000000000000000000000e4ab69c077896252fafbd49efd26b5d171a324100000000000000000000000000000000000000000000000000000000000000001",
        "nonce": "0x213",
        "chainId": "0xaa37dc"
      },
      "additionalContracts": [],
      "isFixedGasLimit": false
    },
    {
      "hash": "0x669f678ead629754045ca7d4b5613d82cc55a3daea3128cfbe5807c435690ffb",
      "transactionType": "CALL",
      "contractName": "BeanHeadsDiamond",
      "contractAddress": "0x7090b6ececdea0d8e491c9ad27d16abaaf8cb095",
      "function": null,
      "arguments": null,
      "transaction": {
        "from": "0x0e128580d848fb51849ab6564467a9ba79b4820c",
        "to": "0x7090b6ececdea0d8e491c9ad27d16abaaf8cb095",
        "gas": "0xbbb7",
        "value": "0x0",
        "input": "0x8aaa22840000000000000000000000005fd84259d66cd46123540766be93dfe6d43130d70000000000000000000000000000000000000000000000000000000000000001",
        "nonce": "0x214",
        "chainId": "0xaa37dc"
      },
      "additionalContracts": [],
      "isFixedGasLimit": false
    },
    {
      "hash": "0x986273ab4b712dc489102ff6ed94023d6457b99ffc8d527d3612718bf9aaa354",
      "transactionType": "CALL",
      "contractName": "BeanHeadsDiamond",
      "contractAddress": "0x7090b6ececdea0d8e491c9ad27d16abaaf8cb095",
      "function": null,
      "arguments": null,
      "transaction": {
        "from": "0x0e128580d848fb51849ab6564467a9ba79b4820c",
        "to": "0x7090b6ececdea0d8e491c9ad27d16abaaf8cb095",
        "gas": "0xbbb7",
        "value": "0x0",
        "input": "0x8aaa22840000000000000000000000001c7d4b196cb0c7b01d743fbc6116a902379c72380000000000000000000000000000000000000000000000000000000000000001",
        "nonce": "0x215",
        "chainId": "0xaa37dc"
      },
      "additionalContracts": [],
      "isFixedGasLimit": false
    },
    {
      "hash": "0x81e6406e250ecaa92ed994f56e25cc725e77c3e8e9a4f330e2c9e18da8bf481d",
      "transactionType": "CALL",
      "contractName": "BeanHeadsDiamond",
      "contractAddress": "0x7090b6ececdea0d8e491c9ad27d16abaaf8cb095",
      "function": null,
      "arguments": null,
      "transaction": {
        "from": "0x0e128580d848fb51849ab6564467a9ba79b4820c",
        "to": "0x7090b6ececdea0d8e491c9ad27d16abaaf8cb095",
        "gas": "0xbbb7",
        "value": "0x0",
        "input": "0x8aaa228400000000000000000000000075faf114eafb1bdbe2f0316df893fd58ce46aa4d0000000000000000000000000000000000000000000000000000000000000001",
        "nonce": "0x216",
        "chainId": "0xaa37dc"
      },
      "additionalContracts": [],
      "isFixedGasLimit": false
    },
    {
      "hash": "0xd4829fb99aa6439c14390c6b9a8db9bb1f8b4d4ea550da971ab47529f574d1b4",
      "transactionType": "CALL",
      "contractName": "BeanHeadsDiamond",
      "contractAddress": "0x7090b6ececdea0d8e491c9ad27d16abaaf8cb095",
      "function": null,
      "arguments": null,
      "transaction": {
        "from": "0x0e128580d848fb51849ab6564467a9ba79b4820c",
        "to": "0x7090b6ececdea0d8e491c9ad27d16abaaf8cb095",
        "gas": "0x14683",
        "value": "0x0",
        "input": "0xe8a97a3e0000000000000000000000001c7d4b196cb0c7b01d743fbc6116a902379c72380000000000000000000000006e44e50e3cc14dd16e01c590dc1d7020cb36ed4c",
        "nonce": "0x217",
        "chainId": "0xaa37dc"
      },
      "additionalContracts": [],
      "isFixedGasLimit": false
    },
    {
      "hash": "0x1c23e19ceec8c9aa7b71de7b4d139ed66d4b0147c1ba220f337468faa333fd97",
      "transactionType": "CALL",
      "contractName": "BeanHeadsDiamond",
      "contractAddress": "0x7090b6ececdea0d8e491c9ad27d16abaaf8cb095",
      "function": null,
      "arguments": null,
      "transaction": {
        "from": "0x0e128580d848fb51849ab6564467a9ba79b4820c",
        "to": "0x7090b6ececdea0d8e491c9ad27d16abaaf8cb095",
        "gas": "0x14683",
        "value": "0x0",
        "input": "0xe8a97a3e0000000000000000000000005fd84259d66cd46123540766be93dfe6d43130d70000000000000000000000006e44e50e3cc14dd16e01c590dc1d7020cb36ed4c",
        "nonce": "0x218",
        "chainId": "0xaa37dc"
      },
      "additionalContracts": [],
      "isFixedGasLimit": false
    },
    {
      "hash": "0xdfac5c786a698d9448e8e3085f5764e952a1b4c558e858b5af3bc89732120d04",
      "transactionType": "CALL",
      "contractName": "BeanHeadsDiamond",
      "contractAddress": "0x7090b6ececdea0d8e491c9ad27d16abaaf8cb095",
      "function": null,
      "arguments": null,
      "transaction": {
        "from": "0x0e128580d848fb51849ab6564467a9ba79b4820c",
        "to": "0x7090b6ececdea0d8e491c9ad27d16abaaf8cb095",
        "gas": "0x14683",
        "value": "0x0",
        "input": "0xe8a97a3e00000000000000000000000075faf114eafb1bdbe2f0316df893fd58ce46aa4d0000000000000000000000006e44e50e3cc14dd16e01c590dc1d7020cb36ed4c",
        "nonce": "0x219",
        "chainId": "0xaa37dc"
      },
      "additionalContracts": [],
      "isFixedGasLimit": false
    }
  ],
  "receipts": [
    {
      "status": "0x1",
      "cumulativeGasUsed": "0x1c4ab",
      "logs": [
        {
          "address": "0x6c7a7a4175559a1d919ac882a7d97908667f4c94",
          "topics": [
            "0xa54ce142349af8e389fe00f37d69e79664a287b29c8e325917962e92e4fe5fcd"
          ],
          "data": "0x000000000000000000000000bb5c084a0601ac65626afa6034e98f30ad573358",
          "blockHash": "0xf1a1f6c2f0c14e24b159b39f12c0d5ab005e215209bd7c961020a8d513bcbd0c",
          "blockNumber": "0x210b538",
          "blockTimestamp": "0x68f8461c",
          "transactionHash": "0x7cf1996bdcc41611d28b10122f2f00a920fad595f411438580f3f74c814eb90d",
          "transactionIndex": "0x1",
          "logIndex": "0x0",
          "removed": false
        }
      ],
      "logsBloom": "0x00000000000001000000000000000000000000000000000000000000000000000000000000000000000000000000000000000000000000000000000000000000000000000000000000000000000000000000000000000000000000000000000000000000000000000000000000000000000000000000000400000000000000000000000000002000000000000000000000000000000000000000000000000000000000000000000000000000000000000000000800000000000000000000000000000000000000000000400000000000000000000000000000000000000000000000000000000000000000000000000000000000000000000000000000100000",
      "type": "0x2",
      "transactionHash": "0x7cf1996bdcc41611d28b10122f2f00a920fad595f411438580f3f74c814eb90d",
      "transactionIndex": "0x1",
      "blockHash": "0xf1a1f6c2f0c14e24b159b39f12c0d5ab005e215209bd7c961020a8d513bcbd0c",
      "blockNumber": "0x210b538",
      "gasUsed": "0x1108f",
      "effectiveGasPrice": "0xf433a",
      "from": "0x0e128580d848fb51849ab6564467a9ba79b4820c",
      "to": "0x6c7a7a4175559a1d919ac882a7d97908667f4c94",
      "contractAddress": null,
      "l1BaseFeeScalar": "0x1db0",
      "l1BlobBaseFee": "0x1",
      "l1BlobBaseFeeScalar": "0xd2730",
      "l1Fee": "0xdb",
      "l1GasPrice": "0xb",
      "l1GasUsed": "0x640"
    },
    {
      "status": "0x1",
      "cumulativeGasUsed": "0x24506",
      "logs": [
        {
          "address": "0x7090b6ececdea0d8e491c9ad27d16abaaf8cb095",
          "topics": [
            "0x3a7d4b919c66e25bb96b646b1fa5df47aca5411773bfe1829fc8e86ab7006e6a",
            "0x000000000000000000000000e4ab69c077896252fafbd49efd26b5d171a32410"
          ],
          "data": "0x0000000000000000000000000000000000000000000000000000000000000001",
          "blockHash": "0xf1a1f6c2f0c14e24b159b39f12c0d5ab005e215209bd7c961020a8d513bcbd0c",
          "blockNumber": "0x210b538",
          "blockTimestamp": "0x68f8461c",
          "transactionHash": "0xfb3049eb15c8743b4026842a8f43708cff243121fe22efc9a804e1e84ba16800",
          "transactionIndex": "0x2",
          "logIndex": "0x1",
          "removed": false
        }
      ],
      "logsBloom": "0x00000000000000000000000000000000000000000000000000004000000000000000000000000000000000000000000000000000000400000000000000000000000000000000000000000000000000000020000000000000000000000000000000000000001000000000000000000000000000000000000000000000000000000000000000002000000000001000000000000000000000000000000000000000000000000000000000000000000000000000000000000800000000000000000000000000000000000000000000010000000000000000000000000000000000000000004000000000000000000000000000000000000000000000000000000000",
      "type": "0x2",
      "transactionHash": "0xfb3049eb15c8743b4026842a8f43708cff243121fe22efc9a804e1e84ba16800",
      "transactionIndex": "0x2",
      "blockHash": "0xf1a1f6c2f0c14e24b159b39f12c0d5ab005e215209bd7c961020a8d513bcbd0c",
      "blockNumber": "0x210b538",
      "gasUsed": "0x805b",
      "effectiveGasPrice": "0xf433a",
      "from": "0x0e128580d848fb51849ab6564467a9ba79b4820c",
      "to": "0x7090b6ececdea0d8e491c9ad27d16abaaf8cb095",
      "contractAddress": null,
      "l1BaseFeeScalar": "0x1db0",
      "l1BlobBaseFee": "0x1",
      "l1BlobBaseFeeScalar": "0xd2730",
      "l1Fee": "0xdb",
      "l1GasPrice": "0xb",
      "l1GasUsed": "0x640"
    },
    {
      "status": "0x1",
      "cumulativeGasUsed": "0x2c561",
      "logs": [
        {
          "address": "0x7090b6ececdea0d8e491c9ad27d16abaaf8cb095",
          "topics": [
            "0x3a7d4b919c66e25bb96b646b1fa5df47aca5411773bfe1829fc8e86ab7006e6a",
            "0x0000000000000000000000005fd84259d66cd46123540766be93dfe6d43130d7"
          ],
          "data": "0x0000000000000000000000000000000000000000000000000000000000000001",
          "blockHash": "0xf1a1f6c2f0c14e24b159b39f12c0d5ab005e215209bd7c961020a8d513bcbd0c",
          "blockNumber": "0x210b538",
          "blockTimestamp": "0x68f8461c",
          "transactionHash": "0x669f678ead629754045ca7d4b5613d82cc55a3daea3128cfbe5807c435690ffb",
          "transactionIndex": "0x3",
          "logIndex": "0x2",
          "removed": false
        }
      ],
      "logsBloom": "0x00000001000000000000000000000000000000000000000000000000000000000000000000000000000000000000000000000000000400000000000000000000000000000000000000000000000000000020000000000000000000000000000000000000009000000000000000000000000000000000000000000000000000000000000000000000000000001000000000000000000000000000000000000000000000000000000000000000000000000000000000000800000000000000000000000000000000000000000000000000000000000000000000000000000000000000004000000000100000000000000000000000000000000000000000000000",
      "type": "0x2",
      "transactionHash": "0x669f678ead629754045ca7d4b5613d82cc55a3daea3128cfbe5807c435690ffb",
      "transactionIndex": "0x3",
      "blockHash": "0xf1a1f6c2f0c14e24b159b39f12c0d5ab005e215209bd7c961020a8d513bcbd0c",
      "blockNumber": "0x210b538",
      "gasUsed": "0x805b",
      "effectiveGasPrice": "0xf433a",
      "from": "0x0e128580d848fb51849ab6564467a9ba79b4820c",
      "to": "0x7090b6ececdea0d8e491c9ad27d16abaaf8cb095",
      "contractAddress": null,
      "l1BaseFeeScalar": "0x1db0",
      "l1BlobBaseFee": "0x1",
      "l1BlobBaseFeeScalar": "0xd2730",
      "l1Fee": "0xdb",
      "l1GasPrice": "0xb",
      "l1GasUsed": "0x640"
    },
    {
      "status": "0x1",
      "cumulativeGasUsed": "0x345bc",
      "logs": [
        {
          "address": "0x7090b6ececdea0d8e491c9ad27d16abaaf8cb095",
          "topics": [
            "0x3a7d4b919c66e25bb96b646b1fa5df47aca5411773bfe1829fc8e86ab7006e6a",
            "0x0000000000000000000000001c7d4b196cb0c7b01d743fbc6116a902379c7238"
          ],
          "data": "0x0000000000000000000000000000000000000000000000000000000000000001",
          "blockHash": "0xf1a1f6c2f0c14e24b159b39f12c0d5ab005e215209bd7c961020a8d513bcbd0c",
          "blockNumber": "0x210b538",
          "blockTimestamp": "0x68f8461c",
          "transactionHash": "0x986273ab4b712dc489102ff6ed94023d6457b99ffc8d527d3612718bf9aaa354",
          "transactionIndex": "0x4",
          "logIndex": "0x3",
          "removed": false
        }
      ],
      "logsBloom": "0x00000000000000000000000000000000000000000000000000000000000000000000000000000000000000000000000000000000000404000000000000000000100000000000000000000000000000000020000000000000000000000000000000000000001000000000000000000000000000000000000000000000000000000000000000000000000000001000000000000000000000000000000000000000000000000000000000000000000000000000008000000800000000000000000000000000000000000000000000000000000000000000000000000000000000000000004000000000000000000000000000000000000000000000000000000000",
      "type": "0x2",
      "transactionHash": "0x986273ab4b712dc489102ff6ed94023d6457b99ffc8d527d3612718bf9aaa354",
      "transactionIndex": "0x4",
      "blockHash": "0xf1a1f6c2f0c14e24b159b39f12c0d5ab005e215209bd7c961020a8d513bcbd0c",
      "blockNumber": "0x210b538",
      "gasUsed": "0x805b",
      "effectiveGasPrice": "0xf433a",
      "from": "0x0e128580d848fb51849ab6564467a9ba79b4820c",
      "to": "0x7090b6ececdea0d8e491c9ad27d16abaaf8cb095",
      "contractAddress": null,
      "l1BaseFeeScalar": "0x1db0",
      "l1BlobBaseFee": "0x1",
      "l1BlobBaseFeeScalar": "0xd2730",
      "l1Fee": "0xdb",
      "l1GasPrice": "0xb",
      "l1GasUsed": "0x640"
    },
    {
      "status": "0x1",
      "cumulativeGasUsed": "0x3c617",
      "logs": [
        {
          "address": "0x7090b6ececdea0d8e491c9ad27d16abaaf8cb095",
          "topics": [
            "0x3a7d4b919c66e25bb96b646b1fa5df47aca5411773bfe1829fc8e86ab7006e6a",
            "0x00000000000000000000000075faf114eafb1bdbe2f0316df893fd58ce46aa4d"
          ],
          "data": "0x0000000000000000000000000000000000000000000000000000000000000001",
          "blockHash": "0xf1a1f6c2f0c14e24b159b39f12c0d5ab005e215209bd7c961020a8d513bcbd0c",
          "blockNumber": "0x210b538",
          "blockTimestamp": "0x68f8461c",
          "transactionHash": "0x81e6406e250ecaa92ed994f56e25cc725e77c3e8e9a4f330e2c9e18da8bf481d",
          "transactionIndex": "0x5",
          "logIndex": "0x4",
          "removed": false
        }
      ],
      "logsBloom": "0x00000000000000000000000000000000000000000000000000000000000000000000000000000000000000000000000000008000000400000000000000000000000000000000000000000000000000000020000000000000000000000000000000000000001000000000000000000000020000000000002000000000000000000000000000000000000000001000000000000000000000000000000000000000000000000000000000000000000000000000000000000800000000000000000000000000000000000000000000000000000000000000000000000000000000000000004000000000000000000000000000000000000000000000000000000000",
      "type": "0x2",
      "transactionHash": "0x81e6406e250ecaa92ed994f56e25cc725e77c3e8e9a4f330e2c9e18da8bf481d",
      "transactionIndex": "0x5",
      "blockHash": "0xf1a1f6c2f0c14e24b159b39f12c0d5ab005e215209bd7c961020a8d513bcbd0c",
      "blockNumber": "0x210b538",
      "gasUsed": "0x805b",
      "effectiveGasPrice": "0xf433a",
      "from": "0x0e128580d848fb51849ab6564467a9ba79b4820c",
      "to": "0x7090b6ececdea0d8e491c9ad27d16abaaf8cb095",
      "contractAddress": null,
      "l1BaseFeeScalar": "0x1db0",
      "l1BlobBaseFee": "0x1",
      "l1BlobBaseFeeScalar": "0xd2730",
      "l1Fee": "0xdb",
      "l1GasPrice": "0xb",
      "l1GasUsed": "0x640"
    },
    {
      "status": "0x1",
      "cumulativeGasUsed": "0x4b27b",
      "logs": [
        {
          "address": "0x7090b6ececdea0d8e491c9ad27d16abaaf8cb095",
          "topics": [
            "0x2940c4bfb544a4b0a5b4262767947b0acc0b8f144197528463c4d476658cff79",
            "0x0000000000000000000000001c7d4b196cb0c7b01d743fbc6116a902379c7238",
            "0x0000000000000000000000006e44e50e3cc14dd16e01c590dc1d7020cb36ed4c"
          ],
          "data": "0x",
          "blockHash": "0xf1a1f6c2f0c14e24b159b39f12c0d5ab005e215209bd7c961020a8d513bcbd0c",
          "blockNumber": "0x210b538",
          "blockTimestamp": "0x68f8461c",
          "transactionHash": "0xd4829fb99aa6439c14390c6b9a8db9bb1f8b4d4ea550da971ab47529f574d1b4",
          "transactionIndex": "0x6",
          "logIndex": "0x5",
          "removed": false
        }
      ],
      "logsBloom": "0x00000000000000000400000000000000000000000000000000000000000000000000000000000000000000000000000000000000000404000000000000000000100000000000004000000000000000001000000000000000000000000000000000000000000000000000000000000000000000080000000008000000000000000000000000000000000010000000000000000000000000000000000000000000000000000000000000000000000000000000008000000800000000000000000000000000000000000000000000000000000000000000000000000000000000000000004000000000000000000000000000000000000000000000000000000000",
      "type": "0x2",
      "transactionHash": "0xd4829fb99aa6439c14390c6b9a8db9bb1f8b4d4ea550da971ab47529f574d1b4",
      "transactionIndex": "0x6",
      "blockHash": "0xf1a1f6c2f0c14e24b159b39f12c0d5ab005e215209bd7c961020a8d513bcbd0c",
      "blockNumber": "0x210b538",
      "gasUsed": "0xec64",
      "effectiveGasPrice": "0xf433a",
      "from": "0x0e128580d848fb51849ab6564467a9ba79b4820c",
      "to": "0x7090b6ececdea0d8e491c9ad27d16abaaf8cb095",
      "contractAddress": null,
      "l1BaseFeeScalar": "0x1db0",
      "l1BlobBaseFee": "0x1",
      "l1BlobBaseFeeScalar": "0xd2730",
      "l1Fee": "0xdb",
      "l1GasPrice": "0xb",
      "l1GasUsed": "0x654"
    },
    {
      "status": "0x1",
      "cumulativeGasUsed": "0x59edf",
      "logs": [
        {
          "address": "0x7090b6ececdea0d8e491c9ad27d16abaaf8cb095",
          "topics": [
            "0x2940c4bfb544a4b0a5b4262767947b0acc0b8f144197528463c4d476658cff79",
            "0x0000000000000000000000005fd84259d66cd46123540766be93dfe6d43130d7",
            "0x0000000000000000000000006e44e50e3cc14dd16e01c590dc1d7020cb36ed4c"
          ],
          "data": "0x",
          "blockHash": "0xf1a1f6c2f0c14e24b159b39f12c0d5ab005e215209bd7c961020a8d513bcbd0c",
          "blockNumber": "0x210b538",
          "blockTimestamp": "0x68f8461c",
          "transactionHash": "0x1c23e19ceec8c9aa7b71de7b4d139ed66d4b0147c1ba220f337468faa333fd97",
          "transactionIndex": "0x7",
          "logIndex": "0x6",
          "removed": false
        }
      ],
      "logsBloom": "0x00000001000000000400000000000000000000000000000000000000000000000000000000000000000000000000000000000000000400000000000000000000000000000000004000000000000000001000000000000000000000000000000000000000008000000000000000000000000000080000000008000000000000000000000000000000000010000000000000000000000000000000000000000000000000000000000000000000000000000000000000000800000000000000000000000000000000000000000000000000000000000000000000000000000000000000004000000000100000000000000000000000000000000000000000000000",
      "type": "0x2",
      "transactionHash": "0x1c23e19ceec8c9aa7b71de7b4d139ed66d4b0147c1ba220f337468faa333fd97",
      "transactionIndex": "0x7",
      "blockHash": "0xf1a1f6c2f0c14e24b159b39f12c0d5ab005e215209bd7c961020a8d513bcbd0c",
      "blockNumber": "0x210b538",
      "gasUsed": "0xec64",
      "effectiveGasPrice": "0xf433a",
      "from": "0x0e128580d848fb51849ab6564467a9ba79b4820c",
      "to": "0x7090b6ececdea0d8e491c9ad27d16abaaf8cb095",
      "contractAddress": null,
      "l1BaseFeeScalar": "0x1db0",
      "l1BlobBaseFee": "0x1",
      "l1BlobBaseFeeScalar": "0xd2730",
      "l1Fee": "0xdb",
      "l1GasPrice": "0xb",
      "l1GasUsed": "0x654"
    },
    {
      "status": "0x1",
      "cumulativeGasUsed": "0x68b43",
      "logs": [
        {
          "address": "0x7090b6ececdea0d8e491c9ad27d16abaaf8cb095",
          "topics": [
            "0x2940c4bfb544a4b0a5b4262767947b0acc0b8f144197528463c4d476658cff79",
            "0x00000000000000000000000075faf114eafb1bdbe2f0316df893fd58ce46aa4d",
            "0x0000000000000000000000006e44e50e3cc14dd16e01c590dc1d7020cb36ed4c"
          ],
          "data": "0x",
          "blockHash": "0xf1a1f6c2f0c14e24b159b39f12c0d5ab005e215209bd7c961020a8d513bcbd0c",
          "blockNumber": "0x210b538",
          "blockTimestamp": "0x68f8461c",
          "transactionHash": "0xdfac5c786a698d9448e8e3085f5764e952a1b4c558e858b5af3bc89732120d04",
          "transactionIndex": "0x8",
          "logIndex": "0x7",
          "removed": false
        }
      ],
      "logsBloom": "0x00000000000000000400000000000000000000000000000000000000000000000000000000000000000000000000000000008000000400000000000000000000000000000000004000000000000000001000000000000000000000000000000000000000000000000000000000000000020000080000002008000000000000000000000000000000000010000000000000000000000000000000000000000000000000000000000000000000000000000000000000000800000000000000000000000000000000000000000000000000000000000000000000000000000000000000004000000000000000000000000000000000000000000000000000000000",
      "type": "0x2",
      "transactionHash": "0xdfac5c786a698d9448e8e3085f5764e952a1b4c558e858b5af3bc89732120d04",
      "transactionIndex": "0x8",
      "blockHash": "0xf1a1f6c2f0c14e24b159b39f12c0d5ab005e215209bd7c961020a8d513bcbd0c",
      "blockNumber": "0x210b538",
      "gasUsed": "0xec64",
      "effectiveGasPrice": "0xf433a",
      "from": "0x0e128580d848fb51849ab6564467a9ba79b4820c",
      "to": "0x7090b6ececdea0d8e491c9ad27d16abaaf8cb095",
      "contractAddress": null,
      "l1BaseFeeScalar": "0x1db0",
      "l1BlobBaseFee": "0x1",
      "l1BlobBaseFeeScalar": "0xd2730",
      "l1Fee": "0xdb",
      "l1GasPrice": "0xb",
      "l1GasUsed": "0x654"
    }
  ],
  "libraries": [],
  "pending": [],
  "returns": {},
  "timestamp": 1761101339,
  "chain": 11155420,
  "commit": "372eb22"
}