{
  "transactions": [
    {
      "hash": "0x519fc77ce99c9f57b610eea32352aa725deed5ae7eb196c45b286226e3902a9e",
      "transactionType": "CALL",
      "contractName": null,
      "contractAddress": "0xbb5c084a0601ac65626afa6034e98f30ad573358",
      "function": "setRemoteBridge(uint64,address,bool)",
      "arguments": [
        "5224473277236331295",
        "0x6c7A7a4175559a1d919AC882a7D97908667F4c94",
        "true"
      ],
      "transaction": {
        "from": "0x0e128580d848fb51849ab6564467a9ba79b4820c",
        "to": "0xbb5c084a0601ac65626afa6034e98f30ad573358",
        "gas": "0x166b1",
        "value": "0x0",
        "input": "0x11d82d5500000000000000000000000000000000000000000000000048810ec3e431431f0000000000000000000000006c7a7a4175559a1d919ac882a7d97908667f4c940000000000000000000000000000000000000000000000000000000000000001",
        "nonce": "0x3af",
        "chainId": "0x66eee"
      },
      "additionalContracts": [],
      "isFixedGasLimit": false
    },
    {
      "hash": "0xa1e346c86b7dc935c505d4b15478efb9eefbf6245c3a50e7d7a821162819dcec",
      "transactionType": "CALL",
      "contractName": "BeanHeadsDiamond",
      "contractAddress": "0xaa1d5cfce921d7efe943eed7a74ce9c5569c532e",
      "function": null,
      "arguments": null,
      "transaction": {
        "from": "0x0e128580d848fb51849ab6564467a9ba79b4820c",
        "to": "0xaa1d5cfce921d7efe943eed7a74ce9c5569c532e",
        "gas": "0xac4b",
        "value": "0x0",
        "input": "0x8aaa2284000000000000000000000000b1d4538b4571d411f07960ef2838ce337fe1e80e0000000000000000000000000000000000000000000000000000000000000001",
        "nonce": "0x3b0",
        "chainId": "0x66eee"
      },
      "additionalContracts": [],
      "isFixedGasLimit": false
    },
    {
      "hash": "0x59dfa9ec940381c5b744c4006207df5c1da027ef7e574cb7a449d1c4be0dd45c",
      "transactionType": "CALL",
      "contractName": "BeanHeadsDiamond",
      "contractAddress": "0xaa1d5cfce921d7efe943eed7a74ce9c5569c532e",
      "function": null,
      "arguments": null,
      "transaction": {
        "from": "0x0e128580d848fb51849ab6564467a9ba79b4820c",
        "to": "0xaa1d5cfce921d7efe943eed7a74ce9c5569c532e",
        "gas": "0xac4b",
        "value": "0x0",
        "input": "0x8aaa228400000000000000000000000075faf114eafb1bdbe2f0316df893fd58ce46aa4d0000000000000000000000000000000000000000000000000000000000000001",
        "nonce": "0x3b1",
        "chainId": "0x66eee"
      },
      "additionalContracts": [],
      "isFixedGasLimit": false
    },
    {
      "hash": "0xa4f2de80218976940c79d9587529048b0bd400a52ad8f62123f25ecf94c50e88",
      "transactionType": "CALL",
      "contractName": "BeanHeadsDiamond",
      "contractAddress": "0xaa1d5cfce921d7efe943eed7a74ce9c5569c532e",
      "function": null,
      "arguments": null,
      "transaction": {
        "from": "0x0e128580d848fb51849ab6564467a9ba79b4820c",
        "to": "0xaa1d5cfce921d7efe943eed7a74ce9c5569c532e",
        "gas": "0xac4b",
        "value": "0x0",
        "input": "0x8aaa22840000000000000000000000001c7d4b196cb0c7b01d743fbc6116a902379c72380000000000000000000000000000000000000000000000000000000000000001",
        "nonce": "0x3b2",
        "chainId": "0x66eee"
      },
      "additionalContracts": [],
      "isFixedGasLimit": false
    },
    {
      "hash": "0x70902f70b3de1aaf446e41bf9fdac6e88788bac4be7df034e63aa29249b3072f",
      "transactionType": "CALL",
      "contractName": "BeanHeadsDiamond",
      "contractAddress": "0xaa1d5cfce921d7efe943eed7a74ce9c5569c532e",
      "function": null,
      "arguments": null,
      "transaction": {
        "from": "0x0e128580d848fb51849ab6564467a9ba79b4820c",
        "to": "0xaa1d5cfce921d7efe943eed7a74ce9c5569c532e",
        "gas": "0xac4b",
        "value": "0x0",
        "input": "0x8aaa22840000000000000000000000005fd84259d66cd46123540766be93dfe6d43130d70000000000000000000000000000000000000000000000000000000000000001",
        "nonce": "0x3b3",
        "chainId": "0x66eee"
      },
      "additionalContracts": [],
      "isFixedGasLimit": false
    },
    {
      "hash": "0x6f1a2faf211eabe1cec62be47e39abea3aadda91f86b1cae484485bffaa0c96e",
      "transactionType": "CALL",
      "contractName": "BeanHeadsDiamond",
      "contractAddress": "0xaa1d5cfce921d7efe943eed7a74ce9c5569c532e",
      "function": null,
      "arguments": null,
      "transaction": {
        "from": "0x0e128580d848fb51849ab6564467a9ba79b4820c",
        "to": "0xaa1d5cfce921d7efe943eed7a74ce9c5569c532e",
        "gas": "0x1376d",
        "value": "0x0",
        "input": "0xe8a97a3e0000000000000000000000001c7d4b196cb0c7b01d743fbc6116a902379c72380000000000000000000000000153002d20b96532c639313c2d54c3da09109309",
        "nonce": "0x3b4",
        "chainId": "0x66eee"
      },
      "additionalContracts": [],
      "isFixedGasLimit": false
    },
    {
      "hash": "0x729b22b9746c554dbc93cc49801ea0c1e2da010d5fb4e07215f883146010daad",
      "transactionType": "CALL",
      "contractName": "BeanHeadsDiamond",
      "contractAddress": "0xaa1d5cfce921d7efe943eed7a74ce9c5569c532e",
      "function": null,
      "arguments": null,
      "transaction": {
        "from": "0x0e128580d848fb51849ab6564467a9ba79b4820c",
        "to": "0xaa1d5cfce921d7efe943eed7a74ce9c5569c532e",
        "gas": "0x1376d",
        "value": "0x0",
        "input": "0xe8a97a3e0000000000000000000000005fd84259d66cd46123540766be93dfe6d43130d70000000000000000000000000153002d20b96532c639313c2d54c3da09109309",
        "nonce": "0x3b5",
        "chainId": "0x66eee"
      },
      "additionalContracts": [],
      "isFixedGasLimit": false
    },
    {
      "hash": "0x989ad89143ca0d3ff21a9d70affae1a20f9513ad82d4fe394b76ca663a53abda",
      "transactionType": "CALL",
      "contractName": "BeanHeadsDiamond",
      "contractAddress": "0xaa1d5cfce921d7efe943eed7a74ce9c5569c532e",
      "function": null,
      "arguments": null,
      "transaction": {
        "from": "0x0e128580d848fb51849ab6564467a9ba79b4820c",
        "to": "0xaa1d5cfce921d7efe943eed7a74ce9c5569c532e",
        "gas": "0x1376d",
        "value": "0x0",
        "input": "0xe8a97a3e00000000000000000000000075faf114eafb1bdbe2f0316df893fd58ce46aa4d0000000000000000000000000153002d20b96532c639313c2d54c3da09109309",
        "nonce": "0x3b6",
        "chainId": "0x66eee"
      },
      "additionalContracts": [],
      "isFixedGasLimit": false
    }
  ],
  "receipts": [
    {
      "status": "0x1",
      "cumulativeGasUsed": "0x63da9",
      "logs": [
        {
          "address": "0xbb5c084a0601ac65626afa6034e98f30ad573358",
          "topics": [
            "0xa54ce142349af8e389fe00f37d69e79664a287b29c8e325917962e92e4fe5fcd"
          ],
          "data": "0x0000000000000000000000006c7a7a4175559a1d919ac882a7d97908667f4c94",
          "blockHash": "0x2bb3ad19b7910b4a661c24284ca46ddb372c19b4f781695130b5d7af9a0236fd",
          "blockNumber": "0xc58dcfd",
          "transactionHash": "0x519fc77ce99c9f57b610eea32352aa725deed5ae7eb196c45b286226e3902a9e",
          "transactionIndex": "0x2",
          "logIndex": "0x1",
          "removed": false
        }
      ],
      "logsBloom": "0x00000000000001000000000000000000000000000000000000000000000000000000000000000000000000000000000000000000000000000000000000000000000000000000000000000000000010000000000000000000000000000000000000000000000008000000000000000000000000000000000000000000000000000000000000000000000000000000000000000000000000000000000000100000000000000000000000000000000000000000000000000000000000000000000000000000000000000000400000000000000000000000000000000000000000000000000000000000000000000000000000000000000000000000000000100000",
      "type": "0x2",
      "transactionHash": "0x519fc77ce99c9f57b610eea32352aa725deed5ae7eb196c45b286226e3902a9e",
      "transactionIndex": "0x2",
      "blockHash": "0x2bb3ad19b7910b4a661c24284ca46ddb372c19b4f781695130b5d7af9a0236fd",
      "blockNumber": "0xc58dcfd",
      "gasUsed": "0x1108f",
      "effectiveGasPrice": "0x5f5e100",
      "from": "0x0e128580d848fb51849ab6564467a9ba79b4820c",
      "to": "0xbb5c084a0601ac65626afa6034e98f30ad573358",
      "contractAddress": null,
      "gasUsedForL1": "0x0",
      "l1BlockNumber": "0x90650b",
      "timeboosted": false
    },
    {
      "status": "0x1",
      "cumulativeGasUsed": "0x805b",
      "logs": [
        {
          "address": "0xaa1d5cfce921d7efe943eed7a74ce9c5569c532e",
          "topics": [
            "0x3a7d4b919c66e25bb96b646b1fa5df47aca5411773bfe1829fc8e86ab7006e6a",
            "0x000000000000000000000000b1d4538b4571d411f07960ef2838ce337fe1e80e"
          ],
          "data": "0x0000000000000000000000000000000000000000000000000000000000000001",
          "blockHash": "0xa81a7a68d8778163dc2aecf756052b76434d40d27702bda01e797e0d30201559",
          "blockNumber": "0xc58dd03",
          "transactionHash": "0xa1e346c86b7dc935c505d4b15478efb9eefbf6245c3a50e7d7a821162819dcec",
          "transactionIndex": "0x1",
          "logIndex": "0x0",
          "removed": false
        }
      ],
      "logsBloom": "0x00400000000000000000000000000000000000000000000000000000008000000000000004000000000000000000000000000000000000000000000000000000000000000000000000000000000000000020000800000000000000000000000000000000001000000000000000000000000000000000000000000000000000000000000000000000000000001000000000000000000000000000000000000000000000000000000000000000000000000000000000000000000000000000000000000000000000000000000000004000000000000000000000000000000000000000000000000000000000000000000000000000000000000010000000000000",
      "type": "0x2",
      "transactionHash": "0xa1e346c86b7dc935c505d4b15478efb9eefbf6245c3a50e7d7a821162819dcec",
      "transactionIndex": "0x1",
      "blockHash": "0xa81a7a68d8778163dc2aecf756052b76434d40d27702bda01e797e0d30201559",
      "blockNumber": "0xc58dd03",
      "gasUsed": "0x805b",
      "effectiveGasPrice": "0x5f5e100",
      "from": "0x0e128580d848fb51849ab6564467a9ba79b4820c",
      "to": "0xaa1d5cfce921d7efe943eed7a74ce9c5569c532e",
      "contractAddress": null,
      "gasUsedForL1": "0x0",
      "l1BlockNumber": "0x90650b",
      "timeboosted": false
    },
    {
      "status": "0x1",
      "cumulativeGasUsed": "0x805b",
      "logs": [
        {
          "address": "0xaa1d5cfce921d7efe943eed7a74ce9c5569c532e",
          "topics": [
            "0x3a7d4b919c66e25bb96b646b1fa5df47aca5411773bfe1829fc8e86ab7006e6a",
            "0x00000000000000000000000075faf114eafb1bdbe2f0316df893fd58ce46aa4d"
          ],
          "data": "0x0000000000000000000000000000000000000000000000000000000000000001",
          "blockHash": "0x289730325790703980a3b27a68e5a9fff720a513a00f172694433fcb6964c72b",
          "blockNumber": "0xc58dd0a",
          "transactionHash": "0x59dfa9ec940381c5b744c4006207df5c1da027ef7e574cb7a449d1c4be0dd45c",
          "transactionIndex": "0x1",
          "logIndex": "0x0",
          "removed": false
        }
      ],
      "logsBloom": "0x00000000000000000000000000000000000000000000000000000000000000000000000004000000000000000000000000008000000000000000000000000000000000000000000000000000000000000020000800000000000000000000000000000000001000000000000000000000020000000000002000000000000000000000000000000000000000001000000000000000000000000000000000000000000000000000000000000000000000000000000000000000000000000000000000000000000000000000000000004000000000000000000000000000000000000000000000000000000000000000000000000000000000000000000000000000",
      "type": "0x2",
      "transactionHash": "0x59dfa9ec940381c5b744c4006207df5c1da027ef7e574cb7a449d1c4be0dd45c",
      "transactionIndex": "0x1",
      "blockHash": "0x289730325790703980a3b27a68e5a9fff720a513a00f172694433fcb6964c72b",
      "blockNumber": "0xc58dd0a",
      "gasUsed": "0x805b",
      "effectiveGasPrice": "0x5f5e100",
      "from": "0x0e128580d848fb51849ab6564467a9ba79b4820c",
      "to": "0xaa1d5cfce921d7efe943eed7a74ce9c5569c532e",
      "contractAddress": null,
      "gasUsedForL1": "0x0",
      "l1BlockNumber": "0x90650b",
      "timeboosted": false
    },
    {
      "status": "0x1",
      "cumulativeGasUsed": "0x1b9d5",
      "logs": [
        {
          "address": "0xaa1d5cfce921d7efe943eed7a74ce9c5569c532e",
          "topics": [
            "0x3a7d4b919c66e25bb96b646b1fa5df47aca5411773bfe1829fc8e86ab7006e6a",
            "0x0000000000000000000000001c7d4b196cb0c7b01d743fbc6116a902379c7238"
          ],
          "data": "0x0000000000000000000000000000000000000000000000000000000000000001",
          "blockHash": "0xd879df5da29619828cbf84fa1ca6254d6e63c94b7ba73a0e05c84225794ed710",
          "blockNumber": "0xc58dd10",
          "transactionHash": "0xa4f2de80218976940c79d9587529048b0bd400a52ad8f62123f25ecf94c50e88",
          "transactionIndex": "0x2",
          "logIndex": "0x0",
          "removed": false
        }
      ],
      "logsBloom": "0x00000000000000000000000000000000000000000000000000000000000000000000000004000000000000000000000000000000000004000000000000000000100000000000000000000000000000000020000800000000000000000000000000000000001000000000000000000000000000000000000000000000000000000000000000000000000000001000000000000000000000000000000000000000000000000000000000000000000000000000008000000000000000000000000000000000000000000000000000004000000000000000000000000000000000000000000000000000000000000000000000000000000000000000000000000000",
      "type": "0x2",
      "transactionHash": "0xa4f2de80218976940c79d9587529048b0bd400a52ad8f62123f25ecf94c50e88",
      "transactionIndex": "0x2",
      "blockHash": "0xd879df5da29619828cbf84fa1ca6254d6e63c94b7ba73a0e05c84225794ed710",
      "blockNumber": "0xc58dd10",
      "gasUsed": "0x805b",
      "effectiveGasPrice": "0x5f5e100",
      "from": "0x0e128580d848fb51849ab6564467a9ba79b4820c",
      "to": "0xaa1d5cfce921d7efe943eed7a74ce9c5569c532e",
      "contractAddress": null,
      "gasUsedForL1": "0x0",
      "l1BlockNumber": "0x90650b",
      "timeboosted": false
    },
    {
      "status": "0x1",
      "cumulativeGasUsed": "0x743eb",
      "logs": [
        {
          "address": "0xaa1d5cfce921d7efe943eed7a74ce9c5569c532e",
          "topics": [
            "0x3a7d4b919c66e25bb96b646b1fa5df47aca5411773bfe1829fc8e86ab7006e6a",
            "0x0000000000000000000000005fd84259d66cd46123540766be93dfe6d43130d7"
          ],
          "data": "0x0000000000000000000000000000000000000000000000000000000000000001",
          "blockHash": "0x66f001dd849b4856ed1e9b8181bc0e26cec4afc920d88d8a11159ad2ef7fce2b",
          "blockNumber": "0xc58dd17",
          "transactionHash": "0x70902f70b3de1aaf446e41bf9fdac6e88788bac4be7df034e63aa29249b3072f",
          "transactionIndex": "0x2",
          "logIndex": "0x3",
          "removed": false
        }
      ],
      "logsBloom": "0x00000001000000000000000000000000000000000000000000000000000000000000000004000000000000000000000000000000000000000000000000000000000000000000000000000000000000000020000800000000000000000000000000000000009000000000000000000000000000000000000000000000000000000000000000000000000000001000000000000000000000000000000000000000000000000000000000000000000000000000000000000000000000000000000000000000000000000000000000004000000000000000000000000000000000000000000000000000100000000000000000000000000000000000000000000000",
      "type": "0x2",
      "transactionHash": "0x70902f70b3de1aaf446e41bf9fdac6e88788bac4be7df034e63aa29249b3072f",
      "transactionIndex": "0x2",
      "blockHash": "0x66f001dd849b4856ed1e9b8181bc0e26cec4afc920d88d8a11159ad2ef7fce2b",
      "blockNumber": "0xc58dd17",
      "gasUsed": "0x805b",
      "effectiveGasPrice": "0x5f5e100",
      "from": "0x0e128580d848fb51849ab6564467a9ba79b4820c",
      "to": "0xaa1d5cfce921d7efe943eed7a74ce9c5569c532e",
      "contractAddress": null,
      "gasUsedForL1": "0x0",
      "l1BlockNumber": "0x90650b",
      "timeboosted": false
    },
    {
      "status": "0x1",
      "cumulativeGasUsed": "0x4df41",
      "logs": [
        {
          "address": "0xaa1d5cfce921d7efe943eed7a74ce9c5569c532e",
          "topics": [
            "0x2940c4bfb544a4b0a5b4262767947b0acc0b8f144197528463c4d476658cff79",
            "0x0000000000000000000000001c7d4b196cb0c7b01d743fbc6116a902379c7238",
            "0x0000000000000000000000000153002d20b96532c639313c2d54c3da09109309"
          ],
          "data": "0x",
          "blockHash": "0x2f0d947012a37ce1a7dcb116a4cb02fe5ee5e4c443867ef3de0dad8c95d5bcf8",
          "blockNumber": "0xc58dd1e",
          "transactionHash": "0x6f1a2faf211eabe1cec62be47e39abea3aadda91f86b1cae484485bffaa0c96e",
          "transactionIndex": "0x4",
          "logIndex": "0x2",
          "removed": false
        }
      ],
      "logsBloom": "0x00000000000000000000000000000000000000000000000000000000000000000000000004000000000000000000000000000000000004000000000000000000100000000000004000000000000000001000000800000000000000000000000000000000000000000000000010000000000000000000000000000010000000000000000000000000000010000000000000000000000000000000000000000000000000000000000000000000000000000000008000000000000000000000000000000000000000000000000000004000000000000000000000000000000000000000000000000000000000000000400000000000000000000000000000000000",
      "type": "0x2",
      "transactionHash": "0x6f1a2faf211eabe1cec62be47e39abea3aadda91f86b1cae484485bffaa0c96e",
      "transactionIndex": "0x4",
      "blockHash": "0x2f0d947012a37ce1a7dcb116a4cb02fe5ee5e4c443867ef3de0dad8c95d5bcf8",
      "blockNumber": "0xc58dd1e",
      "gasUsed": "0xec58",
      "effectiveGasPrice": "0x5f5e100",
      "from": "0x0e128580d848fb51849ab6564467a9ba79b4820c",
      "to": "0xaa1d5cfce921d7efe943eed7a74ce9c5569c532e",
      "contractAddress": null,
      "gasUsedForL1": "0x0",
      "l1BlockNumber": "0x90650b",
      "timeboosted": false
    },
    {
      "status": "0x1",
      "cumulativeGasUsed": "0x24db9",
      "logs": [
        {
          "address": "0xaa1d5cfce921d7efe943eed7a74ce9c5569c532e",
          "topics": [
            "0x2940c4bfb544a4b0a5b4262767947b0acc0b8f144197528463c4d476658cff79",
            "0x0000000000000000000000005fd84259d66cd46123540766be93dfe6d43130d7",
            "0x0000000000000000000000000153002d20b96532c639313c2d54c3da09109309"
          ],
          "data": "0x",
          "blockHash": "0xde7fd3e38dbb0f3e134baba6f4b9eb9125d2f8065c4fd300bc5abb08a6cb2f2b",
          "blockNumber": "0xc58dd27",
          "transactionHash": "0x729b22b9746c554dbc93cc49801ea0c1e2da010d5fb4e07215f883146010daad",
          "transactionIndex": "0x2",
          "logIndex": "0x1",
          "removed": false
        }
      ],
      "logsBloom": "0x00000001000000000000000000000000000000000000000000000000000000000000000004000000000000000000000000000000000000000000000000000000000000000000004000000000000000001000000800000000000000000000000000000000008000000000000010000000000000000000000000000010000000000000000000000000000010000000000000000000000000000000000000000000000000000000000000000000000000000000000000000000000000000000000000000000000000000000000000004000000000000000000000000000000000000000000000000000100000000000400000000000000000000000000000000000",
      "type": "0x2",
      "transactionHash": "0x729b22b9746c554dbc93cc49801ea0c1e2da010d5fb4e07215f883146010daad",
      "transactionIndex": "0x2",
      "blockHash": "0xde7fd3e38dbb0f3e134baba6f4b9eb9125d2f8065c4fd300bc5abb08a6cb2f2b",
      "blockNumber": "0xc58dd27",
      "gasUsed": "0xec58",
      "effectiveGasPrice": "0x5f5e100",
      "from": "0x0e128580d848fb51849ab6564467a9ba79b4820c",
      "to": "0xaa1d5cfce921d7efe943eed7a74ce9c5569c532e",
      "contractAddress": null,
      "gasUsedForL1": "0x0",
      "l1BlockNumber": "0x90650c",
      "timeboosted": false
    },
    {
      "status": "0x1",
      "cumulativeGasUsed": "0x1e2ff",
      "logs": [
        {
          "address": "0xaa1d5cfce921d7efe943eed7a74ce9c5569c532e",
          "topics": [
            "0x2940c4bfb544a4b0a5b4262767947b0acc0b8f144197528463c4d476658cff79",
            "0x00000000000000000000000075faf114eafb1bdbe2f0316df893fd58ce46aa4d",
            "0x0000000000000000000000000153002d20b96532c639313c2d54c3da09109309"
          ],
          "data": "0x",
          "blockHash": "0xa4a48af7d677f7eea7971db821652d8f412f1efd3369760e25740ab8e350195f",
          "blockNumber": "0xc58dd2d",
          "transactionHash": "0x989ad89143ca0d3ff21a9d70affae1a20f9513ad82d4fe394b76ca663a53abda",
          "transactionIndex": "0x2",
          "logIndex": "0x1",
          "removed": false
        }
      ],
      "logsBloom": "0x00000000000000000000000000000000000000000000000000000000000000000000000004000000000000000000000000008000000000000000000000000000000000000000004000000000000000001000000800000000000000000000000000000000000000000000000010000000020000000000002000000010000000000000000000000000000010000000000000000000000000000000000000000000000000000000000000000000000000000000000000000000000000000000000000000000000000000000000000004000000000000000000000000000000000000000000000000000000000000000400000000000000000000000000000000000",
      "type": "0x2",
      "transactionHash": "0x989ad89143ca0d3ff21a9d70affae1a20f9513ad82d4fe394b76ca663a53abda",
      "transactionIndex": "0x2",
      "blockHash": "0xa4a48af7d677f7eea7971db821652d8f412f1efd3369760e25740ab8e350195f",
      "blockNumber": "0xc58dd2d",
      "gasUsed": "0xec58",
      "effectiveGasPrice": "0x5f5e100",
      "from": "0x0e128580d848fb51849ab6564467a9ba79b4820c",
      "to": "0xaa1d5cfce921d7efe943eed7a74ce9c5569c532e",
      "contractAddress": null,
      "gasUsedForL1": "0x0",
      "l1BlockNumber": "0x90650c",
      "timeboosted": false
    }
  ],
  "libraries": [],
  "pending": [],
  "returns": {},
  "timestamp": 1761101300,
  "chain": 421614,
  "commit": "372eb22"
}