{
  "transactions": [
    {
      "hash": "0xc2f6d1669ffd35bc9274db4a0c47d1c73fdcdbfa9cf8d4241c0984a52f403470",
      "transactionType": "CALL",
      "contractName": null,
      "contractAddress": "0xfe1992fa1f6f9c4a1681afb9e1518c3bb5fa72ba",
      "function": "setRemoteBridge(uint64,address,bool)",
      "arguments": [
        "5224473277236331295",
        "0xAdF68b5246c02c1b70f3CF4A3f6a8c3Bf271bB1F",
        "true"
      ],
      "transaction": {
        "from": "0x0e128580d848fb51849ab6564467a9ba79b4820c",
        "to": "0xfe1992fa1f6f9c4a1681afb9e1518c3bb5fa72ba",
        "gas": "0x166b1",
        "value": "0x0",
        "input": "0x11d82d5500000000000000000000000000000000000000000000000048810ec3e431431f000000000000000000000000adf68b5246c02c1b70f3cf4a3f6a8c3bf271bb1f0000000000000000000000000000000000000000000000000000000000000001",
        "nonce": "0x425",
        "chainId": "0x66eee"
      },
      "additionalContracts": [],
      "isFixedGasLimit": false
    },
    {
      "hash": "0xc7070c53acf1053351d055bee3f853d5d9676aa005faa29f837949e1ca8e091b",
      "transactionType": "CALL",
      "contractName": null,
      "contractAddress": "0x4de05d83b1460b689a66fe4bded88d548b07143d",
      "function": "setAllowedToken(address,bool)",
      "arguments": [
        "0xb1D4538B4571d411F07960EF2838Ce337FE1E80E",
        "true"
      ],
      "transaction": {
        "from": "0x0e128580d848fb51849ab6564467a9ba79b4820c",
        "to": "0x4de05d83b1460b689a66fe4bded88d548b07143d",
        "gas": "0x10ff0",
        "value": "0x0",
        "input": "0x8aaa2284000000000000000000000000b1d4538b4571d411f07960ef2838ce337fe1e80e0000000000000000000000000000000000000000000000000000000000000001",
        "nonce": "0x426",
        "chainId": "0x66eee"
      },
      "additionalContracts": [],
      "isFixedGasLimit": false
    },
    {
      "hash": "0x93a60b3d3b68eb32a03f5723c124484357b6265b5370537ac4b1dbb1903d6889",
      "transactionType": "CALL",
      "contractName": null,
      "contractAddress": "0x4de05d83b1460b689a66fe4bded88d548b07143d",
      "function": "setAllowedToken(address,bool)",
      "arguments": [
        "0x75faf114eafb1BDbe2F0316DF893fd58CE46AA4d",
        "true"
      ],
      "transaction": {
        "from": "0x0e128580d848fb51849ab6564467a9ba79b4820c",
        "to": "0x4de05d83b1460b689a66fe4bded88d548b07143d",
        "gas": "0x10ff0",
        "value": "0x0",
        "input": "0x8aaa228400000000000000000000000075faf114eafb1bdbe2f0316df893fd58ce46aa4d0000000000000000000000000000000000000000000000000000000000000001",
        "nonce": "0x427",
        "chainId": "0x66eee"
      },
      "additionalContracts": [],
      "isFixedGasLimit": false
    },
    {
      "hash": "0x70ae890414fd36b44cf56910c13bdc61b89590e132cbb53568a181298b594dcb",
      "transactionType": "CALL",
      "contractName": null,
      "contractAddress": "0x4de05d83b1460b689a66fe4bded88d548b07143d",
      "function": "setAllowedToken(address,bool)",
      "arguments": [
        "0x1c7D4B196Cb0C7B01d743Fbc6116a902379C7238",
        "true"
      ],
      "transaction": {
        "from": "0x0e128580d848fb51849ab6564467a9ba79b4820c",
        "to": "0x4de05d83b1460b689a66fe4bded88d548b07143d",
        "gas": "0x10ff0",
        "value": "0x0",
        "input": "0x8aaa22840000000000000000000000001c7d4b196cb0c7b01d743fbc6116a902379c72380000000000000000000000000000000000000000000000000000000000000001",
        "nonce": "0x428",
        "chainId": "0x66eee"
      },
      "additionalContracts": [],
      "isFixedGasLimit": false
    },
    {
      "hash": "0x896429204c7aacada6f851f0714d03746d536c79584ec3d05537d713927ae7d3",
      "transactionType": "CALL",
      "contractName": null,
      "contractAddress": "0x4de05d83b1460b689a66fe4bded88d548b07143d",
      "function": "setAllowedToken(address,bool)",
      "arguments": [
        "0x5fd84259d66Cd46123540766Be93DFE6D43130D7",
        "true"
      ],
      "transaction": {
        "from": "0x0e128580d848fb51849ab6564467a9ba79b4820c",
        "to": "0x4de05d83b1460b689a66fe4bded88d548b07143d",
        "gas": "0x10ff0",
        "value": "0x0",
        "input": "0x8aaa22840000000000000000000000005fd84259d66cd46123540766be93dfe6d43130d70000000000000000000000000000000000000000000000000000000000000001",
        "nonce": "0x429",
        "chainId": "0x66eee"
      },
      "additionalContracts": [],
      "isFixedGasLimit": false
    },
    {
      "hash": "0x738d77f5fa1cbc629beb17a33eced5eda99279b211654a9d01347ece5d441456",
      "transactionType": "CALL",
      "contractName": null,
      "contractAddress": "0x4de05d83b1460b689a66fe4bded88d548b07143d",
      "function": "addPriceFeed(address,address)",
      "arguments": [
        "0x1c7D4B196Cb0C7B01d743Fbc6116a902379C7238",
        "0xA2F78ab2355fe2f984D808B5CeE7FD0A93D5270E"
      ],
      "transaction": {
        "from": "0x0e128580d848fb51849ab6564467a9ba79b4820c",
        "to": "0x4de05d83b1460b689a66fe4bded88d548b07143d",
        "gas": "0x1f90e",
        "value": "0x0",
        "input": "0xe8a97a3e0000000000000000000000001c7d4b196cb0c7b01d743fbc6116a902379c7238000000000000000000000000a2f78ab2355fe2f984d808b5cee7fd0a93d5270e",
        "nonce": "0x42a",
        "chainId": "0x66eee"
      },
      "additionalContracts": [],
      "isFixedGasLimit": false
    },
    {
      "hash": "0x90c84a79927854b167b7db32816ade15e2db45b041e280548f2fe8e3725de873",
      "transactionType": "CALL",
      "contractName": null,
      "contractAddress": "0x4de05d83b1460b689a66fe4bded88d548b07143d",
      "function": "addPriceFeed(address,address)",
      "arguments": [
        "0x5fd84259d66Cd46123540766Be93DFE6D43130D7",
        "0x6e44e50E3cc14DD16e01C590DC1d7020cb36eD4C"
      ],
      "transaction": {
        "from": "0x0e128580d848fb51849ab6564467a9ba79b4820c",
        "to": "0x4de05d83b1460b689a66fe4bded88d548b07143d",
        "gas": "0x1f90e",
        "value": "0x0",
        "input": "0xe8a97a3e0000000000000000000000005fd84259d66cd46123540766be93dfe6d43130d70000000000000000000000006e44e50e3cc14dd16e01c590dc1d7020cb36ed4c",
        "nonce": "0x42b",
        "chainId": "0x66eee"
      },
      "additionalContracts": [],
      "isFixedGasLimit": false
    },
    {
      "hash": "0x7009013e9fe2a4a61854dbf8212b8b7ca4eb43e0ff37f9be82cdd1a52d5ba118",
      "transactionType": "CALL",
      "contractName": null,
      "contractAddress": "0x4de05d83b1460b689a66fe4bded88d548b07143d",
      "function": "addPriceFeed(address,address)",
      "arguments": [
        "0x75faf114eafb1BDbe2F0316DF893fd58CE46AA4d",
        "0x0153002d20B96532C639313c2d54c3dA09109309"
      ],
      "transaction": {
        "from": "0x0e128580d848fb51849ab6564467a9ba79b4820c",
        "to": "0x4de05d83b1460b689a66fe4bded88d548b07143d",
        "gas": "0x1f8fe",
        "value": "0x0",
        "input": "0xe8a97a3e00000000000000000000000075faf114eafb1bdbe2f0316df893fd58ce46aa4d0000000000000000000000000153002d20b96532c639313c2d54c3da09109309",
        "nonce": "0x42c",
        "chainId": "0x66eee"
      },
      "additionalContracts": [],
      "isFixedGasLimit": false
    }
  ],
  "receipts": [
    {
      "status": "0x1",
      "cumulativeGasUsed": "0x1108f",
      "logs": [
        {
          "address": "0xfe1992fa1f6f9c4a1681afb9e1518c3bb5fa72ba",
          "topics": [
            "0xa54ce142349af8e389fe00f37d69e79664a287b29c8e325917962e92e4fe5fcd"
          ],
          "data": "0x000000000000000000000000adf68b5246c02c1b70f3cf4a3f6a8c3bf271bb1f",
          "blockHash": "0x8e0ef8e3631ff8917e6c70df2442c172cc8e33b116b43590cb663da29706c12b",
          "blockNumber": "0xc689b29",
          "transactionHash": "0xc2f6d1669ffd35bc9274db4a0c47d1c73fdcdbfa9cf8d4241c0984a52f403470",
          "transactionIndex": "0x1",
          "logIndex": "0x0",
          "removed": false
        }
      ],
      "logsBloom": "0x00000000000001000000000000000000000000000000000000000000000000000000000000000000000000000000000000000000000000000000000000000000000000000000000000000000000000000000000000000000000000200000000000000000000000000000000000000000000000000000000000000000000000000000000000000000000000000000000000000000000000000000000000000000000000000000000000000000000000000000000000000000000000000000000000000000000000000000400800000400000000000000000000000000000000000000000000000000000000000000000000000000000000000000000000100000",
      "type": "0x2",
      "transactionHash": "0xc2f6d1669ffd35bc9274db4a0c47d1c73fdcdbfa9cf8d4241c0984a52f403470",
      "transactionIndex": "0x1",
      "blockHash": "0x8e0ef8e3631ff8917e6c70df2442c172cc8e33b116b43590cb663da29706c12b",
      "blockNumber": "0xc689b29",
      "gasUsed": "0x1108f",
      "effectiveGasPrice": "0x5f5e100",
      "from": "0x0e128580d848fb51849ab6564467a9ba79b4820c",
      "to": "0xfe1992fa1f6f9c4a1681afb9e1518c3bb5fa72ba",
      "contractAddress": null,
      "gasUsedForL1": "0x0",
      "l1BlockNumber": "0x90b8da",
      "timeboosted": false
    },
    {
      "status": "0x1",
      "cumulativeGasUsed": "0xce17",
      "logs": [
        {
          "address": "0x4de05d83b1460b689a66fe4bded88d548b07143d",
          "topics": [
            "0x3a7d4b919c66e25bb96b646b1fa5df47aca5411773bfe1829fc8e86ab7006e6a",
            "0x000000000000000000000000b1d4538b4571d411f07960ef2838ce337fe1e80e"
          ],
          "data": "0x0000000000000000000000000000000000000000000000000000000000000001",
          "blockHash": "0x9c0153cbaeb710524322c89b908b9f04963ed0c7bc51a29d2c05e8b4244410df",
          "blockNumber": "0xc689b2f",
          "transactionHash": "0xc7070c53acf1053351d055bee3f853d5d9676aa005faa29f837949e1ca8e091b",
          "transactionIndex": "0x1",
          "logIndex": "0x0",
          "removed": false
        }
      ],
      "logsBloom": "0x00400000000000000000000000000000000000000000000000000000008000000000000000000000000000000000000000000000000000000000000000000000000000000000000000000000000000000020000000000000000000000000000000000000001000000000000000000000000000000000000000000080000000000000000000000000000000001000000000000000000000000000000000000000000000000000000000000000000000000000000000000000000000000000800000000000000000000000000000000080000000000000000000000000000000000000000000000000000000000000000000000000000000000010000000000000",
      "type": "0x2",
      "transactionHash": "0xc7070c53acf1053351d055bee3f853d5d9676aa005faa29f837949e1ca8e091b",
      "transactionIndex": "0x1",
      "blockHash": "0x9c0153cbaeb710524322c89b908b9f04963ed0c7bc51a29d2c05e8b4244410df",
      "blockNumber": "0xc689b2f",
      "gasUsed": "0xce17",
      "effectiveGasPrice": "0x5f5e100",
      "from": "0x0e128580d848fb51849ab6564467a9ba79b4820c",
      "to": "0x4de05d83b1460b689a66fe4bded88d548b07143d",
      "contractAddress": null,
      "gasUsedForL1": "0x0",
      "l1BlockNumber": "0x90b8da",
      "timeboosted": false
    },
    {
      "status": "0x1",
      "cumulativeGasUsed": "0x5fb25",
      "logs": [
        {
          "address": "0x4de05d83b1460b689a66fe4bded88d548b07143d",
          "topics": [
            "0x3a7d4b919c66e25bb96b646b1fa5df47aca5411773bfe1829fc8e86ab7006e6a",
            "0x00000000000000000000000075faf114eafb1bdbe2f0316df893fd58ce46aa4d"
          ],
          "data": "0x0000000000000000000000000000000000000000000000000000000000000001",
          "blockHash": "0xa0801d26895adb75b05ad3db10a04369cd100a16de89b9aed46ef0823ec285b3",
          "blockNumber": "0xc689b35",
          "transactionHash": "0x93a60b3d3b68eb32a03f5723c124484357b6265b5370537ac4b1dbb1903d6889",
          "transactionIndex": "0x2",
          "logIndex": "0x1",
          "removed": false
        }
      ],
      "logsBloom": "0x00000000000000000000000000000000000000000000000000000000000000000000000000000000000000000000000000008000000000000000000000000000000000000000000000000000000000000020000000000000000000000000000000000000001000000000000000000000020000000000002000000080000000000000000000000000000000001000000000000000000000000000000000000000000000000000000000000000000000000000000000000000000000000000800000000000000000000000000000000080000000000000000000000000000000000000000000000000000000000000000000000000000000000000000000000000",
      "type": "0x2",
      "transactionHash": "0x93a60b3d3b68eb32a03f5723c124484357b6265b5370537ac4b1dbb1903d6889",
      "transactionIndex": "0x2",
      "blockHash": "0xa0801d26895adb75b05ad3db10a04369cd100a16de89b9aed46ef0823ec285b3",
      "blockNumber": "0xc689b35",
      "gasUsed": "0xce17",
      "effectiveGasPrice": "0x5f5e100",
      "from": "0x0e128580d848fb51849ab6564467a9ba79b4820c",
      "to": "0x4de05d83b1460b689a66fe4bded88d548b07143d",
      "contractAddress": null,
      "gasUsedForL1": "0x0",
      "l1BlockNumber": "0x90b8da",
      "timeboosted": false
    },
    {
      "status": "0x1",
      "cumulativeGasUsed": "0x70a17",
      "logs": [
        {
          "address": "0x4de05d83b1460b689a66fe4bded88d548b07143d",
          "topics": [
            "0x3a7d4b919c66e25bb96b646b1fa5df47aca5411773bfe1829fc8e86ab7006e6a",
            "0x0000000000000000000000001c7d4b196cb0c7b01d743fbc6116a902379c7238"
          ],
          "data": "0x0000000000000000000000000000000000000000000000000000000000000001",
          "blockHash": "0xec2782eaa38df2860f67ddcf8720c2841625c9448d0da7e3ea78decedd6142fc",
          "blockNumber": "0xc689b3c",
          "transactionHash": "0x70ae890414fd36b44cf56910c13bdc61b89590e132cbb53568a181298b594dcb",
          "transactionIndex": "0x3",
          "logIndex": "0x1",
          "removed": false
        }
      ],
      "logsBloom": "0x00000000000000000000000000000000000000000000000000000000000000000000000000000000000000000000000000000000000004000000000000000000100000000000000000000000000000000020000000000000000000000000000000000000001000000000000000000000000000000000000000000080000000000000000000000000000000001000000000000000000000000000000000000000000000000000000000000000000000000000008000000000000000000000800000000000000000000000000000000080000000000000000000000000000000000000000000000000000000000000000000000000000000000000000000000000",
      "type": "0x2",
      "transactionHash": "0x70ae890414fd36b44cf56910c13bdc61b89590e132cbb53568a181298b594dcb",
      "transactionIndex": "0x3",
      "blockHash": "0xec2782eaa38df2860f67ddcf8720c2841625c9448d0da7e3ea78decedd6142fc",
      "blockNumber": "0xc689b3c",
      "gasUsed": "0xce17",
      "effectiveGasPrice": "0x5f5e100",
      "from": "0x0e128580d848fb51849ab6564467a9ba79b4820c",
      "to": "0x4de05d83b1460b689a66fe4bded88d548b07143d",
      "contractAddress": null,
      "gasUsedForL1": "0x0",
      "l1BlockNumber": "0x90b8da",
      "timeboosted": false
    },
    {
      "status": "0x1",
      "cumulativeGasUsed": "0xce17",
      "logs": [
        {
          "address": "0x4de05d83b1460b689a66fe4bded88d548b07143d",
          "topics": [
            "0x3a7d4b919c66e25bb96b646b1fa5df47aca5411773bfe1829fc8e86ab7006e6a",
            "0x0000000000000000000000005fd84259d66cd46123540766be93dfe6d43130d7"
          ],
          "data": "0x0000000000000000000000000000000000000000000000000000000000000001",
          "blockHash": "0x7155567c3816a9b4738ef2735715737de8bdd832c235b731e795a10c9282ad84",
          "blockNumber": "0xc689b42",
          "transactionHash": "0x896429204c7aacada6f851f0714d03746d536c79584ec3d05537d713927ae7d3",
          "transactionIndex": "0x1",
          "logIndex": "0x0",
          "removed": false
        }
      ],
      "logsBloom": "0x00000001000000000000000000000000000000000000000000000000000000000000000000000000000000000000000000000000000000000000000000000000000000000000000000000000000000000020000000000000000000000000000000000000009000000000000000000000000000000000000000000080000000000000000000000000000000001000000000000000000000000000000000000000000000000000000000000000000000000000000000000000000000000000800000000000000000000000000000000080000000000000000000000000000000000000000000000000100000000000000000000000000000000000000000000000",
      "type": "0x2",
      "transactionHash": "0x896429204c7aacada6f851f0714d03746d536c79584ec3d05537d713927ae7d3",
      "transactionIndex": "0x1",
      "blockHash": "0x7155567c3816a9b4738ef2735715737de8bdd832c235b731e795a10c9282ad84",
      "blockNumber": "0xc689b42",
      "gasUsed": "0xce17",
      "effectiveGasPrice": "0x5f5e100",
      "from": "0x0e128580d848fb51849ab6564467a9ba79b4820c",
      "to": "0x4de05d83b1460b689a66fe4bded88d548b07143d",
      "contractAddress": null,
      "gasUsedForL1": "0x0",
      "l1BlockNumber": "0x90b8da",
      "timeboosted": false
    },
    {
      "status": "0x1",
      "cumulativeGasUsed": "0x17cec",
      "logs": [
        {
          "address": "0x4de05d83b1460b689a66fe4bded88d548b07143d",
          "topics": [
            "0x2940c4bfb544a4b0a5b4262767947b0acc0b8f144197528463c4d476658cff79",
            "0x0000000000000000000000001c7d4b196cb0c7b01d743fbc6116a902379c7238",
            "0x000000000000000000000000a2f78ab2355fe2f984d808b5cee7fd0a93d5270e"
          ],
          "data": "0x",
          "blockHash": "0x4951154dcffff4f46f054d85e0fe0f044dfcd21acee33bfe459a18a1fc42a540",
          "blockNumber": "0xc689b47",
          "transactionHash": "0x738d77f5fa1cbc629beb17a33eced5eda99279b211654a9d01347ece5d441456",
          "transactionIndex": "0x1",
          "logIndex": "0x0",
          "removed": false
        }
      ],
      "logsBloom": "0x00000000000000000000000000000000000000000020000000000000000000000000000000000000000000000000000000000000000004000000000000000000100000000000004000000000000000001000000000000000000000000000000000000000000000000000000000000000000000000000000000000080000000000000000000000000000010000000000000000020000000000000000000000000000000000000000000000000000000000000008000000000000000000000800000000000000000000000000100000080000000000000000000000000000000000000000000000000000000000000000000000000000000000000000000000000",
      "type": "0x2",
      "transactionHash": "0x738d77f5fa1cbc629beb17a33eced5eda99279b211654a9d01347ece5d441456",
      "transactionIndex": "0x1",
      "blockHash": "0x4951154dcffff4f46f054d85e0fe0f044dfcd21acee33bfe459a18a1fc42a540",
      "blockNumber": "0xc689b47",
      "gasUsed": "0x17cec",
      "effectiveGasPrice": "0x5f5e100",
      "from": "0x0e128580d848fb51849ab6564467a9ba79b4820c",
      "to": "0x4de05d83b1460b689a66fe4bded88d548b07143d",
      "contractAddress": null,
      "gasUsedForL1": "0x0",
      "l1BlockNumber": "0x90b8da",
      "timeboosted": false
    },
    {
      "status": "0x1",
      "cumulativeGasUsed": "0x13a20",
      "logs": [
        {
          "address": "0x4de05d83b1460b689a66fe4bded88d548b07143d",
          "topics": [
            "0x2940c4bfb544a4b0a5b4262767947b0acc0b8f144197528463c4d476658cff79",
            "0x0000000000000000000000005fd84259d66cd46123540766be93dfe6d43130d7",
            "0x0000000000000000000000006e44e50e3cc14dd16e01c590dc1d7020cb36ed4c"
          ],
          "data": "0x",
          "blockHash": "0xed577d5713ee695e49ff054d2f0f003c593121a07b05527a7106b3c1126cabc6",
          "blockNumber": "0xc689b4d",
          "transactionHash": "0x90c84a79927854b167b7db32816ade15e2db45b041e280548f2fe8e3725de873",
          "transactionIndex": "0x1",
          "logIndex": "0x0",
          "removed": false
        }
      ],
      "logsBloom": "0x00000001000000000400000000000000000000000000000000000000000000000000000000000000000000000000000000000000000000000000000000000000000000000000004000000000000000001000000000000000000000000000000000000000008000000000000000000000000000080000000008000080000000000000000000000000000010000000000000000000000000000000000000000000000000000000000000000000000000000000000000000000000000000000800000000000000000000000000000000080000000000000000000000000000000000000000000000000100000000000000000000000000000000000000000000000",
      "type": "0x2",
      "transactionHash": "0x90c84a79927854b167b7db32816ade15e2db45b041e280548f2fe8e3725de873",
      "transactionIndex": "0x1",
      "blockHash": "0xed577d5713ee695e49ff054d2f0f003c593121a07b05527a7106b3c1126cabc6",
      "blockNumber": "0xc689b4d",
      "gasUsed": "0x13a20",
      "effectiveGasPrice": "0x5f5e100",
      "from": "0x0e128580d848fb51849ab6564467a9ba79b4820c",
      "to": "0x4de05d83b1460b689a66fe4bded88d548b07143d",
      "contractAddress": null,
      "gasUsedForL1": "0x0",
      "l1BlockNumber": "0x90b8dc",
      "timeboosted": false
    },
    {
      "status": "0x1",
      "cumulativeGasUsed": "0x288a0",
      "logs": [
        {
          "address": "0x4de05d83b1460b689a66fe4bded88d548b07143d",
          "topics": [
            "0x2940c4bfb544a4b0a5b4262767947b0acc0b8f144197528463c4d476658cff79",
            "0x00000000000000000000000075faf114eafb1bdbe2f0316df893fd58ce46aa4d",
            "0x0000000000000000000000000153002d20b96532c639313c2d54c3da09109309"
          ],
          "data": "0x",
          "blockHash": "0x1af1b1c46323c7dcbd38569dbd4f09669d7b4788d8f840bdfac1b5de39875e04",
          "blockNumber": "0xc689b53",
          "transactionHash": "0x7009013e9fe2a4a61854dbf8212b8b7ca4eb43e0ff37f9be82cdd1a52d5ba118",
          "transactionIndex": "0x2",
          "logIndex": "0x1",
          "removed": false
        }
      ],
      "logsBloom": "0x00000000000000000000000000000000000000000000000000000000000000000000000000000000000000000000000000008000000000000000000000000000000000000000004000000000000000001000000000000000000000000000000000000000000000000000000010000000020000000000002000000090000000000000000000000000000010000000000000000000000000000000000000000000000000000000000000000000000000000000000000000000000000000000800000000000000000000000000000000080000000000000000000000000000000000000000000000000000000000000400000000000000000000000000000000000",
      "type": "0x2",
      "transactionHash": "0x7009013e9fe2a4a61854dbf8212b8b7ca4eb43e0ff37f9be82cdd1a52d5ba118",
      "transactionIndex": "0x2",
      "blockHash": "0x1af1b1c46323c7dcbd38569dbd4f09669d7b4788d8f840bdfac1b5de39875e04",
      "blockNumber": "0xc689b53",
      "gasUsed": "0x13a14",
      "effectiveGasPrice": "0x5f5e100",
      "from": "0x0e128580d848fb51849ab6564467a9ba79b4820c",
      "to": "0x4de05d83b1460b689a66fe4bded88d548b07143d",
      "contractAddress": null,
      "gasUsedForL1": "0x0",
      "l1BlockNumber": "0x90b8dc",
      "timeboosted": false
    }
  ],
  "libraries": [],
  "pending": [],
  "returns": {},
  "timestamp": 1761362070,
  "chain": 421614,
  "commit": "5cb3b2e"
}