{
  "transactions": [
    {
      "hash": "0x54bacb9ffd2bc317dbd7042876adecf4d923d4bcd620a04a9a59af23dcf21677",
      "transactionType": "CALL",
      "contractName": null,
      "contractAddress": "0xd60c2bda109213cba11ee67ad19abe7d353f064c",
      "function": "setRemoteBridge(address,bool)",
      "arguments": [
        "0xBC8Cdf5400b785Bf2142Dee4627009702BfCbA41",
        "true"
      ],
      "transaction": {
        "from": "0x0e128580d848fb51849ab6564467a9ba79b4820c",
        "to": "0xd60c2bda109213cba11ee67ad19abe7d353f064c",
        "gas": "0x1659c",
        "value": "0x0",
        "input": "0x5caffcd6000000000000000000000000bc8cdf5400b785bf2142dee4627009702bfcba410000000000000000000000000000000000000000000000000000000000000001",
        "nonce": "0x2fc",
        "chainId": "0x66eee"
      },
      "additionalContracts": [],
      "isFixedGasLimit": false
    }
  ],
  "receipts": [
    {
      "status": "0x1",
      "cumulativeGasUsed": "0x18bc0",
      "logs": [
        {
          "address": "0xd60c2bda109213cba11ee67ad19abe7d353f064c",
          "topics": [
            "0xa54ce142349af8e389fe00f37d69e79664a287b29c8e325917962e92e4fe5fcd"
          ],
          "data": "0x000000000000000000000000bc8cdf5400b785bf2142dee4627009702bfcba41",
          "blockHash": "0xffe689f385f1d1097b305732b9024430e6a4f9ca93f90f6adba59ad57ae58d4c",
          "blockNumber": "0xc2f9ca3",
          "transactionHash": "0x54bacb9ffd2bc317dbd7042876adecf4d923d4bcd620a04a9a59af23dcf21677",
          "transactionIndex": "0x2",
          "logIndex": "0x0",
          "removed": false
        }
      ],
      "logsBloom": "0x00000000000001000000000000000000000000000000000000000000000000000000000000000000000000000000000000000000000000000008000000000000000000000000000000000000000000000000000000000000000000000000000000000000000000000000000000000000000000000000000000080000000000000000000000000000000000000000000000000000000000000000000000800000000000000000000000000000000000000000000000000000000000000000000000000000000000000000400000000000000000000000000000000000000000000000000000000000000000000000000000000000000000000000000000100000",
      "type": "0x2",
      "transactionHash": "0x54bacb9ffd2bc317dbd7042876adecf4d923d4bcd620a04a9a59af23dcf21677",
      "transactionIndex": "0x2",
      "blockHash": "0xffe689f385f1d1097b305732b9024430e6a4f9ca93f90f6adba59ad57ae58d4c",
      "blockNumber": "0xc2f9ca3",
      "gasUsed": "0x10fbb",
      "effectiveGasPrice": "0x5f5e100",
      "from": "0x0e128580d848fb51849ab6564467a9ba79b4820c",
      "to": "0xd60c2bda109213cba11ee67ad19abe7d353f064c",
      "contractAddress": null,
      "gasUsedForL1": "0x0",
      "l1BlockNumber": "0x8f8ed0",
      "timeboosted": false
    }
  ],
  "libraries": [],
  "pending": [],
  "returns": {},
  "timestamp": 1760422924,
  "chain": 421614,
  "commit": "50e392c"
}