{
  "transactions": [
    {
      "hash": "0xcf797fa0d88c402afe59fa58ca33092eba1e9ebe7b957e5547d91294b015e566",
      "transactionType": "CALL",
      "contractName": null,
      "contractAddress": "0x9a71df31c5868b789343648330023f00f9a23403",
      "function": "setRemoteBridge(address,bool)",
      "arguments": [
        "0x494CC6f236AE7f506dE0D25E70c970f2B9444111",
        "true"
      ],
      "transaction": {
        "from": "0x0e128580d848fb51849ab6564467a9ba79b4820c",
        "to": "0x9a71df31c5868b789343648330023f00f9a23403",
        "gas": "0x165ac",
        "value": "0x0",
        "input": "0x5caffcd6000000000000000000000000494cc6f236ae7f506de0d25e70c970f2b94441110000000000000000000000000000000000000000000000000000000000000001",
        "nonce": "0x347",
        "chainId": "0x66eee"
      },
      "additionalContracts": [],
      "isFixedGasLimit": false
    }
  ],
  "receipts": [
    {
      "status": "0x1",
      "cumulativeGasUsed": "0x112ca3",
      "logs": [
        {
          "address": "0x9a71df31c5868b789343648330023f00f9a23403",
          "topics": [
            "0xa54ce142349af8e389fe00f37d69e79664a287b29c8e325917962e92e4fe5fcd"
          ],
          "data": "0x000000000000000000000000494cc6f236ae7f506de0d25e70c970f2b9444111",
          "blockHash": "0x6bb794035cc90704dbea2e5f6529d0e2e8ac0d09b484a29b9176274a757800fa",
          "blockNumber": "0xc424eae",
          "transactionHash": "0xcf797fa0d88c402afe59fa58ca33092eba1e9ebe7b957e5547d91294b015e566",
          "transactionIndex": "0x6",
          "logIndex": "0x14",
          "removed": false
        }
      ],
      "logsBloom": "0x00000000000001000000000000000000000000000000000000000000100000000000000000000000000000000000000000000000000000000000000000000000000000000000000000000000000000000000000000000000000000000000000000000000000000000000000000000000000000000000000000000000000000000000000000000000000000000000000000800000000000000000000000000000000000000000000000000000000000004000000000000000000000000000000000000000000000000000400000000000000000000000000000000000000000000000000000000000000000000000000000000000000000000000000000100000",
      "type": "0x2",
      "transactionHash": "0xcf797fa0d88c402afe59fa58ca33092eba1e9ebe7b957e5547d91294b015e566",
      "transactionIndex": "0x6",
      "blockHash": "0x6bb794035cc90704dbea2e5f6529d0e2e8ac0d09b484a29b9176274a757800fa",
      "blockNumber": "0xc424eae",
      "gasUsed": "0x10fc7",
      "effectiveGasPrice": "0x5f5e100",
      "from": "0x0e128580d848fb51849ab6564467a9ba79b4820c",
      "to": "0x9a71df31c5868b789343648330023f00f9a23403",
      "contractAddress": null,
      "gasUsedForL1": "0x0",
      "l1BlockNumber": "0x8ff0c7",
      "timeboosted": false
    }
  ],
  "libraries": [],
  "pending": [],
  "returns": {},
  "timestamp": 1760730502,
  "chain": 421614,
  "commit": "a5958a2"
}