{
  "transactions": [
    {
      "hash": "0x2be05496400a64f226535e28099f32c05e71c15732f9481857552beaf5f8dadb",
      "transactionType": "CALL",
      "contractName": null,
      "contractAddress": "0x7df879ff39ac3bac696a38da05aa19b51f9d1818",
      "function": "setRemoteBridge(address,bool)",
      "arguments": [
        "0x5218CCC01e302182D7e007dff6444e3B9c6B5099",
        "true"
      ],
      "transaction": {
        "from": "0x0e128580d848fb51849ab6564467a9ba79b4820c",
        "to": "0x7df879ff39ac3bac696a38da05aa19b51f9d1818",
        "gas": "0x165ac",
        "value": "0x0",
        "input": "0x5caffcd60000000000000000000000005218ccc01e302182d7e007dff6444e3b9c6b50990000000000000000000000000000000000000000000000000000000000000001",
        "nonce": "0x2f7",
        "chainId": "0x66eee"
      },
      "additionalContracts": [],
      "isFixedGasLimit": false
    }
  ],
  "receipts": [
    {
      "status": "0x1",
      "cumulativeGasUsed": "0x4695c",
      "logs": [
        {
          "address": "0x7df879ff39ac3bac696a38da05aa19b51f9d1818",
          "topics": [
            "0xa54ce142349af8e389fe00f37d69e79664a287b29c8e325917962e92e4fe5fcd"
          ],
          "data": "0x0000000000000000000000005218ccc01e302182d7e007dff6444e3b9c6b5099",
          "blockHash": "0xeae88f1031b13279ce4b884ce510cb00323af402fea12c6944a3e70150af0fe9",
          "blockNumber": "0xc2e7804",
          "transactionHash": "0x2be05496400a64f226535e28099f32c05e71c15732f9481857552beaf5f8dadb",
          "transactionIndex": "0x3",
          "logIndex": "0x2",
          "removed": false
        }
      ],
      "logsBloom": "0x00000000000001000000000000000000000000000000000000000000000000000000000000000000000000000000000000000000000000000000000000000000000000000000000000000000000000000000000000000000000000000000000000000000000000000004000000000000000000000000000000000000000000000000000000000000000000000000000000000000000000000000000000000000000000000000000000000000000000000000000000000000000000000000000000000000000000000000400000000000000000000000000000000000000000000000000000100000000000000000000000000000000000000000800000100000",
      "type": "0x2",
      "transactionHash": "0x2be05496400a64f226535e28099f32c05e71c15732f9481857552beaf5f8dadb",
      "transactionIndex": "0x3",
      "blockHash": "0xeae88f1031b13279ce4b884ce510cb00323af402fea12c6944a3e70150af0fe9",
      "blockNumber": "0xc2e7804",
      "gasUsed": "0x10fc7",
      "effectiveGasPrice": "0x5f5e100",
      "from": "0x0e128580d848fb51849ab6564467a9ba79b4820c",
      "to": "0x7df879ff39ac3bac696a38da05aa19b51f9d1818",
      "contractAddress": null,
      "gasUsedForL1": "0x0",
      "l1BlockNumber": "0x8f88c6",
      "timeboosted": false
    }
  ],
  "libraries": [],
  "pending": [],
  "returns": {},
  "timestamp": 1760404336,
  "chain": 421614,
  "commit": "50e392c"
}