{
  "transactions": [
    {
      "hash": "0xdbd63d416a4c518f426e8be17daf807e205ff788e5f687759e19d3b45d244a5e",
      "transactionType": "CALL",
      "contractName": null,
      "contractAddress": "0x2adbc5cbd2420ebce71f210dcc24bce64f370d32",
      "function": "setRemoteBridge(uint64,address,bool)",
      "arguments": [
        "5224473277236331295",
        "0x70f9F8A0486e98B11b4db80cA22B3d862F35e293",
        "true"
      ],
      "transaction": {
        "from": "0x0e128580d848fb51849ab6564467a9ba79b4820c",
        "to": "0x2adbc5cbd2420ebce71f210dcc24bce64f370d32",
        "gas": "0x166b1",
        "value": "0x0",
        "input": "0x11d82d5500000000000000000000000000000000000000000000000048810ec3e431431f00000000000000000000000070f9f8a0486e98b11b4db80ca22b3d862f35e2930000000000000000000000000000000000000000000000000000000000000001",
        "nonce": "0x3f7",
        "chainId": "0x66eee"
      },
      "additionalContracts": [],
      "isFixedGasLimit": false
    },
    {
      "hash": "0x024965cc87b59cdb3d4934fcf5b9ed06f534fbe846d00cf23db95196a17fdd7e",
      "transactionType": "CALL",
      "contractName": null,
      "contractAddress": "0xcecafbcc1cedd5ece307f36dc32133437d6564a5",
      "function": "setAllowedToken(address,bool)",
      "arguments": [
        "0xb1D4538B4571d411F07960EF2838Ce337FE1E80E",
        "true"
      ],
      "transaction": {
        "from": "0x0e128580d848fb51849ab6564467a9ba79b4820c",
        "to": "0xcecafbcc1cedd5ece307f36dc32133437d6564a5",
        "gas": "0xac4b",
        "value": "0x0",
        "input": "0x8aaa2284000000000000000000000000b1d4538b4571d411f07960ef2838ce337fe1e80e0000000000000000000000000000000000000000000000000000000000000001",
        "nonce": "0x3f8",
        "chainId": "0x66eee"
      },
      "additionalContracts": [],
      "isFixedGasLimit": false
    },
    {
      "hash": "0xdc0fb2efc7c619e6a16a72ba0f65e1022d124eb9cbb59ece8d524638db84c209",
      "transactionType": "CALL",
      "contractName": null,
      "contractAddress": "0xcecafbcc1cedd5ece307f36dc32133437d6564a5",
      "function": "setAllowedToken(address,bool)",
      "arguments": [
        "0x75faf114eafb1BDbe2F0316DF893fd58CE46AA4d",
        "true"
      ],
      "transaction": {
        "from": "0x0e128580d848fb51849ab6564467a9ba79b4820c",
        "to": "0xcecafbcc1cedd5ece307f36dc32133437d6564a5",
        "gas": "0xac4b",
        "value": "0x0",
        "input": "0x8aaa228400000000000000000000000075faf114eafb1bdbe2f0316df893fd58ce46aa4d0000000000000000000000000000000000000000000000000000000000000001",
        "nonce": "0x3f9",
        "chainId": "0x66eee"
      },
      "additionalContracts": [],
      "isFixedGasLimit": false
    },
    {
      "hash": "0xe10974b778eab5de6e9edc7443ed758ec258c8ec7b6b3145accbd478d617309c",
      "transactionType": "CALL",
      "contractName": null,
      "contractAddress": "0xcecafbcc1cedd5ece307f36dc32133437d6564a5",
      "function": "setAllowedToken(address,bool)",
      "arguments": [
        "0x1c7D4B196Cb0C7B01d743Fbc6116a902379C7238",
        "true"
      ],
      "transaction": {
        "from": "0x0e128580d848fb51849ab6564467a9ba79b4820c",
        "to": "0xcecafbcc1cedd5ece307f36dc32133437d6564a5",
        "gas": "0xac4b",
        "value": "0x0",
        "input": "0x8aaa22840000000000000000000000001c7d4b196cb0c7b01d743fbc6116a902379c72380000000000000000000000000000000000000000000000000000000000000001",
        "nonce": "0x3fa",
        "chainId": "0x66eee"
      },
      "additionalContracts": [],
      "isFixedGasLimit": false
    },
    {
      "hash": "0x303c96764fbb3098b33156398886e1cd45a03f6dabc8e56f5373f6a0e937f6d4",
      "transactionType": "CALL",
      "contractName": null,
      "contractAddress": "0xcecafbcc1cedd5ece307f36dc32133437d6564a5",
      "function": "setAllowedToken(address,bool)",
      "arguments": [
        "0x5fd84259d66Cd46123540766Be93DFE6D43130D7",
        "true"
      ],
      "transaction": {
        "from": "0x0e128580d848fb51849ab6564467a9ba79b4820c",
        "to": "0xcecafbcc1cedd5ece307f36dc32133437d6564a5",
        "gas": "0xac4b",
        "value": "0x0",
        "input": "0x8aaa22840000000000000000000000005fd84259d66cd46123540766be93dfe6d43130d70000000000000000000000000000000000000000000000000000000000000001",
        "nonce": "0x3fb",
        "chainId": "0x66eee"
      },
      "additionalContracts": [],
      "isFixedGasLimit": false
    },
    {
      "hash": "0x0d32e5ad12531b9470a0339064ec3dd3287a4c6fc01e1bd0c866831742af7c18",
      "transactionType": "CALL",
      "contractName": null,
      "contractAddress": "0xcecafbcc1cedd5ece307f36dc32133437d6564a5",
      "function": "addPriceFeed(address,address)",
      "arguments": [
        "0x1c7D4B196Cb0C7B01d743Fbc6116a902379C7238",
        "0xA2F78ab2355fe2f984D808B5CeE7FD0A93D5270E"
      ],
      "transaction": {
        "from": "0x0e128580d848fb51849ab6564467a9ba79b4820c",
        "to": "0xcecafbcc1cedd5ece307f36dc32133437d6564a5",
        "gas": "0x1377c",
        "value": "0x0",
        "input": "0xe8a97a3e0000000000000000000000001c7d4b196cb0c7b01d743fbc6116a902379c7238000000000000000000000000a2f78ab2355fe2f984d808b5cee7fd0a93d5270e",
        "nonce": "0x3fc",
        "chainId": "0x66eee"
      },
      "additionalContracts": [],
      "isFixedGasLimit": false
    },
    {
      "hash": "0x8de91ecd042b7e7a271b3a46051165420d43d78f181cdff0f9ffc24abe563e70",
      "transactionType": "CALL",
      "contractName": null,
      "contractAddress": "0xcecafbcc1cedd5ece307f36dc32133437d6564a5",
      "function": "addPriceFeed(address,address)",
      "arguments": [
        "0x5fd84259d66Cd46123540766Be93DFE6D43130D7",
        "0x6e44e50E3cc14DD16e01C590DC1d7020cb36eD4C"
      ],
      "transaction": {
        "from": "0x0e128580d848fb51849ab6564467a9ba79b4820c",
        "to": "0xcecafbcc1cedd5ece307f36dc32133437d6564a5",
        "gas": "0x1377c",
        "value": "0x0",
        "input": "0xe8a97a3e0000000000000000000000005fd84259d66cd46123540766be93dfe6d43130d70000000000000000000000006e44e50e3cc14dd16e01c590dc1d7020cb36ed4c",
        "nonce": "0x3fd",
        "chainId": "0x66eee"
      },
      "additionalContracts": [],
      "isFixedGasLimit": false
    },
    {
      "hash": "0xdc949f7d6d09bbdb2af8e4989d798658523681df187177502b1c4fe7791435f4",
      "transactionType": "CALL",
      "contractName": null,
      "contractAddress": "0xcecafbcc1cedd5ece307f36dc32133437d6564a5",
      "function": "addPriceFeed(address,address)",
      "arguments": [
        "0x75faf114eafb1BDbe2F0316DF893fd58CE46AA4d",
        "0x0153002d20B96532C639313c2d54c3dA09109309"
      ],
      "transaction": {
        "from": "0x0e128580d848fb51849ab6564467a9ba79b4820c",
        "to": "0xcecafbcc1cedd5ece307f36dc32133437d6564a5",
        "gas": "0x1376d",
        "value": "0x0",
        "input": "0xe8a97a3e00000000000000000000000075faf114eafb1bdbe2f0316df893fd58ce46aa4d0000000000000000000000000153002d20b96532c639313c2d54c3da09109309",
        "nonce": "0x3fe",
        "chainId": "0x66eee"
      },
      "additionalContracts": [],
      "isFixedGasLimit": false
    }
  ],
  "receipts": [
    {
      "status": "0x1",
      "cumulativeGasUsed": "0x8f1fd",
      "logs": [
        {
          "address": "0x2adbc5cbd2420ebce71f210dcc24bce64f370d32",
          "topics": [
            "0xa54ce142349af8e389fe00f37d69e79664a287b29c8e325917962e92e4fe5fcd"
          ],
          "data": "0x00000000000000000000000070f9f8a0486e98b11b4db80ca22b3d862f35e293",
          "blockHash": "0x3bd8505b83ab602414835933fd69d905528f17308a70e5a92eecfcd42035c074",
          "blockNumber": "0xc636582",
          "transactionHash": "0xdbd63d416a4c518f426e8be17daf807e205ff788e5f687759e19d3b45d244a5e",
          "transactionIndex": "0x3",
          "logIndex": "0x2",
          "removed": false
        }
      ],
      "logsBloom": "0x00000000000001000000000000000000000000000000000000000000000000000000000000000000100000000000000000000000000000000000000000000000000000000000000000000000000000000000000000000000000000000000000000000000000000000000000000000000000000000000000000000000000000000000000000000000000000000000000000000000000000000000000000000000000000000200000000000000000000000000000000000000000000000000000000000000000000000000400000000000000000000000000000000000000000000000000000000000000000002000000000000000000000000000000000100000",
      "type": "0x2",
      "transactionHash": "0xdbd63d416a4c518f426e8be17daf807e205ff788e5f687759e19d3b45d244a5e",
      "transactionIndex": "0x3",
      "blockHash": "0x3bd8505b83ab602414835933fd69d905528f17308a70e5a92eecfcd42035c074",
      "blockNumber": "0xc636582",
      "gasUsed": "0x1108f",
      "effectiveGasPrice": "0x5f5e100",
      "from": "0x0e128580d848fb51849ab6564467a9ba79b4820c",
      "to": "0x2adbc5cbd2420ebce71f210dcc24bce64f370d32",
      "contractAddress": null,
      "gasUsedForL1": "0x0",
      "l1BlockNumber": "0x909cc6",
      "timeboosted": false
    },
    {
      "status": "0x1",
      "cumulativeGasUsed": "0x805b",
      "logs": [
        {
          "address": "0xcecafbcc1cedd5ece307f36dc32133437d6564a5",
          "topics": [
            "0x3a7d4b919c66e25bb96b646b1fa5df47aca5411773bfe1829fc8e86ab7006e6a",
            "0x000000000000000000000000b1d4538b4571d411f07960ef2838ce337fe1e80e"
          ],
          "data": "0x0000000000000000000000000000000000000000000000000000000000000001",
          "blockHash": "0xad4573d7e17ae7cd8e36f77e1020ca951739b52491d0e50ca854feef90bcc8d2",
          "blockNumber": "0xc636588",
          "transactionHash": "0x024965cc87b59cdb3d4934fcf5b9ed06f534fbe846d00cf23db95196a17fdd7e",
          "transactionIndex": "0x1",
          "logIndex": "0x0",
          "removed": false
        }
      ],
      "logsBloom": "0x00400000000000000000000000000000000000000000000000000000008000000000000000000000000000200000000000000000000000000000000000000000000000000000000000000000000000000020000080000000000000000000000000000000001000000000000000000000000000000000000000000000000000000000000000000000000000001000000000000000000000000000000000000000000000000000000000000000000000000000000000000008000000000000000000000000000000000000000000000000000000000000000000000000000000000000000000000000000000000000000000000000000000000010000000000000",
      "type": "0x2",
      "transactionHash": "0x024965cc87b59cdb3d4934fcf5b9ed06f534fbe846d00cf23db95196a17fdd7e",
      "transactionIndex": "0x1",
      "blockHash": "0xad4573d7e17ae7cd8e36f77e1020ca951739b52491d0e50ca854feef90bcc8d2",
      "blockNumber": "0xc636588",
      "gasUsed": "0x805b",
      "effectiveGasPrice": "0x5f5e100",
      "from": "0x0e128580d848fb51849ab6564467a9ba79b4820c",
      "to": "0xcecafbcc1cedd5ece307f36dc32133437d6564a5",
      "contractAddress": null,
      "gasUsedForL1": "0x0",
      "l1BlockNumber": "0x909cc6",
      "timeboosted": false
    },
    {
      "status": "0x1",
      "cumulativeGasUsed": "0x805b",
      "logs": [
        {
          "address": "0xcecafbcc1cedd5ece307f36dc32133437d6564a5",
          "topics": [
            "0x3a7d4b919c66e25bb96b646b1fa5df47aca5411773bfe1829fc8e86ab7006e6a",
            "0x00000000000000000000000075faf114eafb1bdbe2f0316df893fd58ce46aa4d"
          ],
          "data": "0x0000000000000000000000000000000000000000000000000000000000000001",
          "blockHash": "0x2073b0d84e31b3daed392d7c0421d0bc4987cf93ba0ea3ce3236436236b1aecd",
          "blockNumber": "0xc63658d",
          "transactionHash": "0xdc0fb2efc7c619e6a16a72ba0f65e1022d124eb9cbb59ece8d524638db84c209",
          "transactionIndex": "0x1",
          "logIndex": "0x0",
          "removed": false
        }
      ],
      "logsBloom": "0x00000000000000000000000000000000000000000000000000000000000000000000000000000000000000200000000000008000000000000000000000000000000000000000000000000000000000000020000080000000000000000000000000000000001000000000000000000000020000000000002000000000000000000000000000000000000000001000000000000000000000000000000000000000000000000000000000000000000000000000000000000008000000000000000000000000000000000000000000000000000000000000000000000000000000000000000000000000000000000000000000000000000000000000000000000000",
      "type": "0x2",
      "transactionHash": "0xdc0fb2efc7c619e6a16a72ba0f65e1022d124eb9cbb59ece8d524638db84c209",
      "transactionIndex": "0x1",
      "blockHash": "0x2073b0d84e31b3daed392d7c0421d0bc4987cf93ba0ea3ce3236436236b1aecd",
      "blockNumber": "0xc63658d",
      "gasUsed": "0x805b",
      "effectiveGasPrice": "0x5f5e100",
      "from": "0x0e128580d848fb51849ab6564467a9ba79b4820c",
      "to": "0xcecafbcc1cedd5ece307f36dc32133437d6564a5",
      "contractAddress": null,
      "gasUsedForL1": "0x0",
      "l1BlockNumber": "0x909cc6",
      "timeboosted": false
    },
    {
      "status": "0x1",
      "cumulativeGasUsed": "0x140c64",
      "logs": [
        {
          "address": "0xcecafbcc1cedd5ece307f36dc32133437d6564a5",
          "topics": [
            "0x3a7d4b919c66e25bb96b646b1fa5df47aca5411773bfe1829fc8e86ab7006e6a",
            "0x0000000000000000000000001c7d4b196cb0c7b01d743fbc6116a902379c7238"
          ],
          "data": "0x0000000000000000000000000000000000000000000000000000000000000001",
          "blockHash": "0xc039bac49ba2a6f91d87ebc4ad484df4547de14b838bcb74fc880eb8462a8ec3",
          "blockNumber": "0xc636593",
          "transactionHash": "0xe10974b778eab5de6e9edc7443ed758ec258c8ec7b6b3145accbd478d617309c",
          "transactionIndex": "0x5",
          "logIndex": "0x41",
          "removed": false
        }
      ],
      "logsBloom": "0x00000000000000000000000000000000000000000000000000000000000000000000000000000000000000200000000000000000000004000000000000000000100000000000000000000000000000000020000080000000000000000000000000000000001000000000000000000000000000000000000000000000000000000000000000000000000000001000000000000000000000000000000000000000000000000000000000000000000000000000008000000008000000000000000000000000000000000000000000000000000000000000000000000000000000000000000000000000000000000000000000000000000000000000000000000000",
      "type": "0x2",
      "transactionHash": "0xe10974b778eab5de6e9edc7443ed758ec258c8ec7b6b3145accbd478d617309c",
      "transactionIndex": "0x5",
      "blockHash": "0xc039bac49ba2a6f91d87ebc4ad484df4547de14b838bcb74fc880eb8462a8ec3",
      "blockNumber": "0xc636593",
      "gasUsed": "0x805b",
      "effectiveGasPrice": "0x5f5e100",
      "from": "0x0e128580d848fb51849ab6564467a9ba79b4820c",
      "to": "0xcecafbcc1cedd5ece307f36dc32133437d6564a5",
      "contractAddress": null,
      "gasUsedForL1": "0x0",
      "l1BlockNumber": "0x909cc6",
      "timeboosted": false
    },
    {
      "status": "0x1",
      "cumulativeGasUsed": "0x18f4d",
      "logs": [
        {
          "address": "0xcecafbcc1cedd5ece307f36dc32133437d6564a5",
          "topics": [
            "0x3a7d4b919c66e25bb96b646b1fa5df47aca5411773bfe1829fc8e86ab7006e6a",
            "0x0000000000000000000000005fd84259d66cd46123540766be93dfe6d43130d7"
          ],
          "data": "0x0000000000000000000000000000000000000000000000000000000000000001",
          "blockHash": "0x46784da9408201e07573f23b0a89f745a10e5adabc975d12ad04594a35684339",
          "blockNumber": "0xc636599",
          "transactionHash": "0x303c96764fbb3098b33156398886e1cd45a03f6dabc8e56f5373f6a0e937f6d4",
          "transactionIndex": "0x2",
          "logIndex": "0x0",
          "removed": false
        }
      ],
      "logsBloom": "0x00000001000000000000000000000000000000000000000000000000000000000000000000000000000000200000000000000000000000000000000000000000000000000000000000000000000000000020000080000000000000000000000000000000009000000000000000000000000000000000000000000000000000000000000000000000000000001000000000000000000000000000000000000000000000000000000000000000000000000000000000000008000000000000000000000000000000000000000000000000000000000000000000000000000000000000000000000000100000000000000000000000000000000000000000000000",
      "type": "0x2",
      "transactionHash": "0x303c96764fbb3098b33156398886e1cd45a03f6dabc8e56f5373f6a0e937f6d4",
      "transactionIndex": "0x2",
      "blockHash": "0x46784da9408201e07573f23b0a89f745a10e5adabc975d12ad04594a35684339",
      "blockNumber": "0xc636599",
      "gasUsed": "0x805b",
      "effectiveGasPrice": "0x5f5e100",
      "from": "0x0e128580d848fb51849ab6564467a9ba79b4820c",
      "to": "0xcecafbcc1cedd5ece307f36dc32133437d6564a5",
      "contractAddress": null,
      "gasUsedForL1": "0x0",
      "l1BlockNumber": "0x909cc6",
      "timeboosted": false
    },
    {
      "status": "0x1",
      "cumulativeGasUsed": "0x1e6a3",
      "logs": [
        {
          "address": "0xcecafbcc1cedd5ece307f36dc32133437d6564a5",
          "topics": [
            "0x2940c4bfb544a4b0a5b4262767947b0acc0b8f144197528463c4d476658cff79",
            "0x0000000000000000000000001c7d4b196cb0c7b01d743fbc6116a902379c7238",
            "0x000000000000000000000000a2f78ab2355fe2f984d808b5cee7fd0a93d5270e"
          ],
          "data": "0x",
          "blockHash": "0x928c756af179791b124f93530dea584b7f733bfe5459720ac3a23a023ea06316",
          "blockNumber": "0xc6365a1",
          "transactionHash": "0x0d32e5ad12531b9470a0339064ec3dd3287a4c6fc01e1bd0c866831742af7c18",
          "transactionIndex": "0x2",
          "logIndex": "0x0",
          "removed": false
        }
      ],
      "logsBloom": "0x00000000000000000000000000000000000000000020000000000000000000000000000000000000000000200000000000000000000004000000000000000000100000000000004000000000000000001000000080000000000000000000000000000000000000000000000000000000000000000000000000000000000000000000000000000000000010000000000000000020000000000000000000000000000000000000000000000000000000000000008000000008000000000000000000000000000000000000000100000000000000000000000000000000000000000000000000000000000000000000000000000000000000000000000000000000",
      "type": "0x2",
      "transactionHash": "0x0d32e5ad12531b9470a0339064ec3dd3287a4c6fc01e1bd0c866831742af7c18",
      "transactionIndex": "0x2",
      "blockHash": "0x928c756af179791b124f93530dea584b7f733bfe5459720ac3a23a023ea06316",
      "blockNumber": "0xc6365a1",
      "gasUsed": "0xec64",
      "effectiveGasPrice": "0x5f5e100",
      "from": "0x0e128580d848fb51849ab6564467a9ba79b4820c",
      "to": "0xcecafbcc1cedd5ece307f36dc32133437d6564a5",
      "contractAddress": null,
      "gasUsedForL1": "0x0",
      "l1BlockNumber": "0x909cc6",
      "timeboosted": false
    },
    {
      "status": "0x1",
      "cumulativeGasUsed": "0x3702a",
      "logs": [
        {
          "address": "0xcecafbcc1cedd5ece307f36dc32133437d6564a5",
          "topics": [
            "0x2940c4bfb544a4b0a5b4262767947b0acc0b8f144197528463c4d476658cff79",
            "0x0000000000000000000000005fd84259d66cd46123540766be93dfe6d43130d7",
            "0x0000000000000000000000006e44e50e3cc14dd16e01c590dc1d7020cb36ed4c"
          ],
          "data": "0x",
          "blockHash": "0xda8d825e20ec0eab107e605f5fdaeb7230abaf8d4ef512ade537cd1163066075",
          "blockNumber": "0xc6365a8",
          "transactionHash": "0x8de91ecd042b7e7a271b3a46051165420d43d78f181cdff0f9ffc24abe563e70",
          "transactionIndex": "0x4",
          "logIndex": "0x2",
          "removed": false
        }
      ],
      "logsBloom": "0x00000001000000000400000000000000000000000000000000000000000000000000000000000000000000200000000000000000000000000000000000000000000000000000004000000000000000001000000080000000000000000000000000000000008000000000000000000000000000080000000008000000000000000000000000000000000010000000000000000000000000000000000000000000000000000000000000000000000000000000000000000008000000000000000000000000000000000000000000000000000000000000000000000000000000000000000000000000100000000000000000000000000000000000000000000000",
      "type": "0x2",
      "transactionHash": "0x8de91ecd042b7e7a271b3a46051165420d43d78f181cdff0f9ffc24abe563e70",
      "transactionIndex": "0x4",
      "blockHash": "0xda8d825e20ec0eab107e605f5fdaeb7230abaf8d4ef512ade537cd1163066075",
      "blockNumber": "0xc6365a8",
      "gasUsed": "0xec64",
      "effectiveGasPrice": "0x5f5e100",
      "from": "0x0e128580d848fb51849ab6564467a9ba79b4820c",
      "to": "0xcecafbcc1cedd5ece307f36dc32133437d6564a5",
      "contractAddress": null,
      "gasUsedForL1": "0x0",
      "l1BlockNumber": "0x909cc6",
      "timeboosted": false
    },
    {
      "status": "0x1",
      "cumulativeGasUsed": "0xec58",
      "logs": [
        {
          "address": "0xcecafbcc1cedd5ece307f36dc32133437d6564a5",
          "topics": [
            "0x2940c4bfb544a4b0a5b4262767947b0acc0b8f144197528463c4d476658cff79",
            "0x00000000000000000000000075faf114eafb1bdbe2f0316df893fd58ce46aa4d",
            "0x0000000000000000000000000153002d20b96532c639313c2d54c3da09109309"
          ],
          "data": "0x",
          "blockHash": "0xd513dfae61145dc4153515fb9c0759a4131df0a6b5b84a4065e6fa1f861edbaf",
          "blockNumber": "0xc6365ad",
          "transactionHash": "0xdc949f7d6d09bbdb2af8e4989d798658523681df187177502b1c4fe7791435f4",
          "transactionIndex": "0x1",
          "logIndex": "0x0",
          "removed": false
        }
      ],
      "logsBloom": "0x00000000000000000000000000000000000000000000000000000000000000000000000000000000000000200000000000008000000000000000000000000000000000000000004000000000000000001000000080000000000000000000000000000000000000000000000010000000020000000000002000000010000000000000000000000000000010000000000000000000000000000000000000000000000000000000000000000000000000000000000000000008000000000000000000000000000000000000000000000000000000000000000000000000000000000000000000000000000000000000400000000000000000000000000000000000",
      "type": "0x2",
      "transactionHash": "0xdc949f7d6d09bbdb2af8e4989d798658523681df187177502b1c4fe7791435f4",
      "transactionIndex": "0x1",
      "blockHash": "0xd513dfae61145dc4153515fb9c0759a4131df0a6b5b84a4065e6fa1f861edbaf",
      "blockNumber": "0xc6365ad",
      "gasUsed": "0xec58",
      "effectiveGasPrice": "0x5f5e100",
      "from": "0x0e128580d848fb51849ab6564467a9ba79b4820c",
      "to": "0xcecafbcc1cedd5ece307f36dc32133437d6564a5",
      "contractAddress": null,
      "gasUsedForL1": "0x0",
      "l1BlockNumber": "0x909cc7",
      "timeboosted": false
    }
  ],
  "libraries": [],
  "pending": [],
  "returns": {},
  "timestamp": 1761275446,
  "chain": 421614,
  "commit": "a7f2160"
}