{
  "transactions": [
    {
      "hash": "0xbdde513819306f1f5187134cc300e17d8da2f6a5451b1a42d28347410d1278f0",
      "transactionType": "CALL",
      "contractName": null,
      "contractAddress": "0xa4e14e4f920399933d53b7f59701fc63a6594b5c",
      "function": "setRemoteBridge(uint64,address,bool)",
      "arguments": [
        "5224473277236331295",
        "0x57e75207599BBc46D328686B4Ad5EDE8181596aF",
        "true"
      ],
      "transaction": {
        "from": "0x0e128580d848fb51849ab6564467a9ba79b4820c",
        "to": "0xa4e14e4f920399933d53b7f59701fc63a6594b5c",
        "gas": "0x166b1",
        "value": "0x0",
        "input": "0x11d82d5500000000000000000000000000000000000000000000000048810ec3e431431f00000000000000000000000057e75207599bbc46d328686b4ad5ede8181596af0000000000000000000000000000000000000000000000000000000000000001",
        "nonce": "0x3ea",
        "chainId": "0x66eee"
      },
      "additionalContracts": [],
      "isFixedGasLimit": false
    },
    {
      "hash": "0xad533737ff152d07a4402926a27a065d3c47ad689c6665174ec5e9510ad88c76",
      "transactionType": "CALL",
      "contractName": null,
      "contractAddress": "0xcecafbcc1cedd5ece307f36dc32133437d6564a5",
      "function": "setAllowedToken(address,bool)",
      "arguments": [
        "0xb1D4538B4571d411F07960EF2838Ce337FE1E80E",
        "true"
      ],
      "transaction": {
        "from": "0x0e128580d848fb51849ab6564467a9ba79b4820c",
        "to": "0xcecafbcc1cedd5ece307f36dc32133437d6564a5",
        "gas": "0x10ff0",
        "value": "0x0",
        "input": "0x8aaa2284000000000000000000000000b1d4538b4571d411f07960ef2838ce337fe1e80e0000000000000000000000000000000000000000000000000000000000000001",
        "nonce": "0x3eb",
        "chainId": "0x66eee"
      },
      "additionalContracts": [],
      "isFixedGasLimit": false
    },
    {
      "hash": "0xb39d8e6ff700c1fcc21c1580e350a4b02ea7fd4b7382c52adf2c8fa1b3a965fb",
      "transactionType": "CALL",
      "contractName": null,
      "contractAddress": "0xcecafbcc1cedd5ece307f36dc32133437d6564a5",
      "function": "setAllowedToken(address,bool)",
      "arguments": [
        "0x75faf114eafb1BDbe2F0316DF893fd58CE46AA4d",
        "true"
      ],
      "transaction": {
        "from": "0x0e128580d848fb51849ab6564467a9ba79b4820c",
        "to": "0xcecafbcc1cedd5ece307f36dc32133437d6564a5",
        "gas": "0x10ff0",
        "value": "0x0",
        "input": "0x8aaa228400000000000000000000000075faf114eafb1bdbe2f0316df893fd58ce46aa4d0000000000000000000000000000000000000000000000000000000000000001",
        "nonce": "0x3ec",
        "chainId": "0x66eee"
      },
      "additionalContracts": [],
      "isFixedGasLimit": false
    },
    {
      "hash": "0x52837aea5318806c10fd274ea26b2b7942fca3e4fd93f2ce5b0eda34b6a060eb",
      "transactionType": "CALL",
      "contractName": null,
      "contractAddress": "0xcecafbcc1cedd5ece307f36dc32133437d6564a5",
      "function": "setAllowedToken(address,bool)",
      "arguments": [
        "0x1c7D4B196Cb0C7B01d743Fbc6116a902379C7238",
        "true"
      ],
      "transaction": {
        "from": "0x0e128580d848fb51849ab6564467a9ba79b4820c",
        "to": "0xcecafbcc1cedd5ece307f36dc32133437d6564a5",
        "gas": "0x10ff0",
        "value": "0x0",
        "input": "0x8aaa22840000000000000000000000001c7d4b196cb0c7b01d743fbc6116a902379c72380000000000000000000000000000000000000000000000000000000000000001",
        "nonce": "0x3ed",
        "chainId": "0x66eee"
      },
      "additionalContracts": [],
      "isFixedGasLimit": false
    },
    {
      "hash": "0x44615bd8e9d0400a20f730a907028a32797b6b690ea404fc5bf5d8ef2e141eb9",
      "transactionType": "CALL",
      "contractName": null,
      "contractAddress": "0xcecafbcc1cedd5ece307f36dc32133437d6564a5",
      "function": "setAllowedToken(address,bool)",
      "arguments": [
        "0x5fd84259d66Cd46123540766Be93DFE6D43130D7",
        "true"
      ],
      "transaction": {
        "from": "0x0e128580d848fb51849ab6564467a9ba79b4820c",
        "to": "0xcecafbcc1cedd5ece307f36dc32133437d6564a5",
        "gas": "0x10ff0",
        "value": "0x0",
        "input": "0x8aaa22840000000000000000000000005fd84259d66cd46123540766be93dfe6d43130d70000000000000000000000000000000000000000000000000000000000000001",
        "nonce": "0x3ee",
        "chainId": "0x66eee"
      },
      "additionalContracts": [],
      "isFixedGasLimit": false
    },
    {
      "hash": "0x0d7f3cecd8ff777422be7a08a06995328b4998dd4a9c4ee8e3b490e2d4394b5c",
      "transactionType": "CALL",
      "contractName": null,
      "contractAddress": "0xcecafbcc1cedd5ece307f36dc32133437d6564a5",
      "function": "addPriceFeed(address,address)",
      "arguments": [
        "0x1c7D4B196Cb0C7B01d743Fbc6116a902379C7238",
        "0xA2F78ab2355fe2f984D808B5CeE7FD0A93D5270E"
      ],
      "transaction": {
        "from": "0x0e128580d848fb51849ab6564467a9ba79b4820c",
        "to": "0xcecafbcc1cedd5ece307f36dc32133437d6564a5",
        "gas": "0x1f90e",
        "value": "0x0",
        "input": "0xe8a97a3e0000000000000000000000001c7d4b196cb0c7b01d743fbc6116a902379c7238000000000000000000000000a2f78ab2355fe2f984d808b5cee7fd0a93d5270e",
        "nonce": "0x3ef",
        "chainId": "0x66eee"
      },
      "additionalContracts": [],
      "isFixedGasLimit": false
    },
    {
      "hash": "0xfcd9aefc6078de69d34ad6d67c1e7db506db884236a9d5ca66dda5028a36d63e",
      "transactionType": "CALL",
      "contractName": null,
      "contractAddress": "0xcecafbcc1cedd5ece307f36dc32133437d6564a5",
      "function": "addPriceFeed(address,address)",
      "arguments": [
        "0x5fd84259d66Cd46123540766Be93DFE6D43130D7",
        "0x6e44e50E3cc14DD16e01C590DC1d7020cb36eD4C"
      ],
      "transaction": {
        "from": "0x0e128580d848fb51849ab6564467a9ba79b4820c",
        "to": "0xcecafbcc1cedd5ece307f36dc32133437d6564a5",
        "gas": "0x1f90e",
        "value": "0x0",
        "input": "0xe8a97a3e0000000000000000000000005fd84259d66cd46123540766be93dfe6d43130d70000000000000000000000006e44e50e3cc14dd16e01c590dc1d7020cb36ed4c",
        "nonce": "0x3f0",
        "chainId": "0x66eee"
      },
      "additionalContracts": [],
      "isFixedGasLimit": false
    },
    {
      "hash": "0xc798d55ee073e7b6fcfdf6237b2cfb94ebda95bc7d7a5f7992ecfbfdbe77e46a",
      "transactionType": "CALL",
      "contractName": null,
      "contractAddress": "0xcecafbcc1cedd5ece307f36dc32133437d6564a5",
      "function": "addPriceFeed(address,address)",
      "arguments": [
        "0x75faf114eafb1BDbe2F0316DF893fd58CE46AA4d",
        "0x0153002d20B96532C639313c2d54c3dA09109309"
      ],
      "transaction": {
        "from": "0x0e128580d848fb51849ab6564467a9ba79b4820c",
        "to": "0xcecafbcc1cedd5ece307f36dc32133437d6564a5",
        "gas": "0x1f8fe",
        "value": "0x0",
        "input": "0xe8a97a3e00000000000000000000000075faf114eafb1bdbe2f0316df893fd58ce46aa4d0000000000000000000000000153002d20b96532c639313c2d54c3da09109309",
        "nonce": "0x3f1",
        "chainId": "0x66eee"
      },
      "additionalContracts": [],
      "isFixedGasLimit": false
    }
  ],
  "receipts": [
    {
      "status": "0x1",
      "cumulativeGasUsed": "0x71f12",
      "logs": [
        {
          "address": "0xa4e14e4f920399933d53b7f59701fc63a6594b5c",
          "topics": [
            "0xa54ce142349af8e389fe00f37d69e79664a287b29c8e325917962e92e4fe5fcd"
          ],
          "data": "0x00000000000000000000000057e75207599bbc46d328686b4ad5ede8181596af",
          "blockHash": "0x3608fb611f651286dd1211a31e344261104bb3d06326efdeb934ab9089de5fd2",
          "blockNumber": "0xc626b38",
          "transactionHash": "0xbdde513819306f1f5187134cc300e17d8da2f6a5451b1a42d28347410d1278f0",
          "transactionIndex": "0x2",
          "logIndex": "0x2",
          "removed": false
        }
      ],
      "logsBloom": "0x00000000000001000004000000000000000000000000000000000000000000000000000000000000000000002000000000000000000000000000000000000000000000000000000000000000000000000000000000000000000000000000000000000000000000000000000000000000000000000000000000000000000000000000000000000000000000000000000000000000000000000000000000000000000000000000000000000000000000000000000000000000000000000000000000000000000000000000400000000000000000000000000000000000000000000000000000000000000000000000000000000000000000000000000000500000",
      "type": "0x2",
      "transactionHash": "0xbdde513819306f1f5187134cc300e17d8da2f6a5451b1a42d28347410d1278f0",
      "transactionIndex": "0x2",
      "blockHash": "0x3608fb611f651286dd1211a31e344261104bb3d06326efdeb934ab9089de5fd2",
      "blockNumber": "0xc626b38",
      "gasUsed": "0x1108f",
      "effectiveGasPrice": "0x5f5e100",
      "from": "0x0e128580d848fb51849ab6564467a9ba79b4820c",
      "to": "0xa4e14e4f920399933d53b7f59701fc63a6594b5c",
      "contractAddress": null,
      "gasUsedForL1": "0x0",
      "l1BlockNumber": "0x909779",
      "timeboosted": false
    },
    {
      "status": "0x1",
      "cumulativeGasUsed": "0xce17",
      "logs": [
        {
          "address": "0xcecafbcc1cedd5ece307f36dc32133437d6564a5",
          "topics": [
            "0x3a7d4b919c66e25bb96b646b1fa5df47aca5411773bfe1829fc8e86ab7006e6a",
            "0x000000000000000000000000b1d4538b4571d411f07960ef2838ce337fe1e80e"
          ],
          "data": "0x0000000000000000000000000000000000000000000000000000000000000001",
          "blockHash": "0xb1f7a4cd31b5c5b4a10e0a201dcd027b8ddc612f80150ebd8316d06a5c34796c",
          "blockNumber": "0xc626b3f",
          "transactionHash": "0xad533737ff152d07a4402926a27a065d3c47ad689c6665174ec5e9510ad88c76",
          "transactionIndex": "0x1",
          "logIndex": "0x0",
          "removed": false
        }
      ],
      "logsBloom": "0x00400000000000000000000000000000000000000000000000000000008000000000000000000000000000200000000000000000000000000000000000000000000000000000000000000000000000000020000080000000000000000000000000000000001000000000000000000000000000000000000000000000000000000000000000000000000000001000000000000000000000000000000000000000000000000000000000000000000000000000000000000008000000000000000000000000000000000000000000000000000000000000000000000000000000000000000000000000000000000000000000000000000000000010000000000000",
      "type": "0x2",
      "transactionHash": "0xad533737ff152d07a4402926a27a065d3c47ad689c6665174ec5e9510ad88c76",
      "transactionIndex": "0x1",
      "blockHash": "0xb1f7a4cd31b5c5b4a10e0a201dcd027b8ddc612f80150ebd8316d06a5c34796c",
      "blockNumber": "0xc626b3f",
      "gasUsed": "0xce17",
      "effectiveGasPrice": "0x5f5e100",
      "from": "0x0e128580d848fb51849ab6564467a9ba79b4820c",
      "to": "0xcecafbcc1cedd5ece307f36dc32133437d6564a5",
      "contractAddress": null,
      "gasUsedForL1": "0x0",
      "l1BlockNumber": "0x909779",
      "timeboosted": false
    },
    {
      "status": "0x1",
      "cumulativeGasUsed": "0xce17",
      "logs": [
        {
          "address": "0xcecafbcc1cedd5ece307f36dc32133437d6564a5",
          "topics": [
            "0x3a7d4b919c66e25bb96b646b1fa5df47aca5411773bfe1829fc8e86ab7006e6a",
            "0x00000000000000000000000075faf114eafb1bdbe2f0316df893fd58ce46aa4d"
          ],
          "data": "0x0000000000000000000000000000000000000000000000000000000000000001",
          "blockHash": "0x7429772f14d40d6c03d9382e9d3056a83747d453c86d06bfa5a4cce71890658d",
          "blockNumber": "0xc626b47",
          "transactionHash": "0xb39d8e6ff700c1fcc21c1580e350a4b02ea7fd4b7382c52adf2c8fa1b3a965fb",
          "transactionIndex": "0x1",
          "logIndex": "0x0",
          "removed": false
        }
      ],
      "logsBloom": "0x00000000000000000000000000000000000000000000000000000000000000000000000000000000000000200000000000008000000000000000000000000000000000000000000000000000000000000020000080000000000000000000000000000000001000000000000000000000020000000000002000000000000000000000000000000000000000001000000000000000000000000000000000000000000000000000000000000000000000000000000000000008000000000000000000000000000000000000000000000000000000000000000000000000000000000000000000000000000000000000000000000000000000000000000000000000",
      "type": "0x2",
      "transactionHash": "0xb39d8e6ff700c1fcc21c1580e350a4b02ea7fd4b7382c52adf2c8fa1b3a965fb",
      "transactionIndex": "0x1",
      "blockHash": "0x7429772f14d40d6c03d9382e9d3056a83747d453c86d06bfa5a4cce71890658d",
      "blockNumber": "0xc626b47",
      "gasUsed": "0xce17",
      "effectiveGasPrice": "0x5f5e100",
      "from": "0x0e128580d848fb51849ab6564467a9ba79b4820c",
      "to": "0xcecafbcc1cedd5ece307f36dc32133437d6564a5",
      "contractAddress": null,
      "gasUsedForL1": "0x0",
      "l1BlockNumber": "0x909779",
      "timeboosted": false
    },
    {
      "status": "0x1",
      "cumulativeGasUsed": "0xce17",
      "logs": [
        {
          "address": "0xcecafbcc1cedd5ece307f36dc32133437d6564a5",
          "topics": [
            "0x3a7d4b919c66e25bb96b646b1fa5df47aca5411773bfe1829fc8e86ab7006e6a",
            "0x0000000000000000000000001c7d4b196cb0c7b01d743fbc6116a902379c7238"
          ],
          "data": "0x0000000000000000000000000000000000000000000000000000000000000001",
          "blockHash": "0x3847ef43c029d37525f502890d7d18de5528cc42e0735793eb098930d0c99d3b",
          "blockNumber": "0xc626b4d",
          "transactionHash": "0x52837aea5318806c10fd274ea26b2b7942fca3e4fd93f2ce5b0eda34b6a060eb",
          "transactionIndex": "0x1",
          "logIndex": "0x0",
          "removed": false
        }
      ],
      "logsBloom": "0x00000000000000000000000000000000000000000000000000000000000000000000000000000000000000200000000000000000000004000000000000000000100000000000000000000000000000000020000080000000000000000000000000000000001000000000000000000000000000000000000000000000000000000000000000000000000000001000000000000000000000000000000000000000000000000000000000000000000000000000008000000008000000000000000000000000000000000000000000000000000000000000000000000000000000000000000000000000000000000000000000000000000000000000000000000000",
      "type": "0x2",
      "transactionHash": "0x52837aea5318806c10fd274ea26b2b7942fca3e4fd93f2ce5b0eda34b6a060eb",
      "transactionIndex": "0x1",
      "blockHash": "0x3847ef43c029d37525f502890d7d18de5528cc42e0735793eb098930d0c99d3b",
      "blockNumber": "0xc626b4d",
      "gasUsed": "0xce17",
      "effectiveGasPrice": "0x5f5e100",
      "from": "0x0e128580d848fb51849ab6564467a9ba79b4820c",
      "to": "0xcecafbcc1cedd5ece307f36dc32133437d6564a5",
      "contractAddress": null,
      "gasUsedForL1": "0x0",
      "l1BlockNumber": "0x909779",
      "timeboosted": false
    },
    {
      "status": "0x1",
      "cumulativeGasUsed": "0xce17",
      "logs": [
        {
          "address": "0xcecafbcc1cedd5ece307f36dc32133437d6564a5",
          "topics": [
            "0x3a7d4b919c66e25bb96b646b1fa5df47aca5411773bfe1829fc8e86ab7006e6a",
            "0x0000000000000000000000005fd84259d66cd46123540766be93dfe6d43130d7"
          ],
          "data": "0x0000000000000000000000000000000000000000000000000000000000000001",
          "blockHash": "0xe5810cbafb4f445df32fdcbbf2d5115899e06fcbc6191bb7bd8d07a1e1298426",
          "blockNumber": "0xc626b54",
          "transactionHash": "0x44615bd8e9d0400a20f730a907028a32797b6b690ea404fc5bf5d8ef2e141eb9",
          "transactionIndex": "0x1",
          "logIndex": "0x0",
          "removed": false
        }
      ],
      "logsBloom": "0x00000001000000000000000000000000000000000000000000000000000000000000000000000000000000200000000000000000000000000000000000000000000000000000000000000000000000000020000080000000000000000000000000000000009000000000000000000000000000000000000000000000000000000000000000000000000000001000000000000000000000000000000000000000000000000000000000000000000000000000000000000008000000000000000000000000000000000000000000000000000000000000000000000000000000000000000000000000100000000000000000000000000000000000000000000000",
      "type": "0x2",
      "transactionHash": "0x44615bd8e9d0400a20f730a907028a32797b6b690ea404fc5bf5d8ef2e141eb9",
      "transactionIndex": "0x1",
      "blockHash": "0xe5810cbafb4f445df32fdcbbf2d5115899e06fcbc6191bb7bd8d07a1e1298426",
      "blockNumber": "0xc626b54",
      "gasUsed": "0xce17",
      "effectiveGasPrice": "0x5f5e100",
      "from": "0x0e128580d848fb51849ab6564467a9ba79b4820c",
      "to": "0xcecafbcc1cedd5ece307f36dc32133437d6564a5",
      "contractAddress": null,
      "gasUsedForL1": "0x0",
      "l1BlockNumber": "0x909779",
      "timeboosted": false
    },
    {
      "status": "0x1",
      "cumulativeGasUsed": "0x2cbb4",
      "logs": [
        {
          "address": "0xcecafbcc1cedd5ece307f36dc32133437d6564a5",
          "topics": [
            "0x2940c4bfb544a4b0a5b4262767947b0acc0b8f144197528463c4d476658cff79",
            "0x0000000000000000000000001c7d4b196cb0c7b01d743fbc6116a902379c7238",
            "0x000000000000000000000000a2f78ab2355fe2f984d808b5cee7fd0a93d5270e"
          ],
          "data": "0x",
          "blockHash": "0x0679c88e3d7f082e89502d18f481a8dfe4ef1d26e0e1688ad915fa87e4594ace",
          "blockNumber": "0xc626b5b",
          "transactionHash": "0x0d7f3cecd8ff777422be7a08a06995328b4998dd4a9c4ee8e3b490e2d4394b5c",
          "transactionIndex": "0x2",
          "logIndex": "0x1",
          "removed": false
        }
      ],
      "logsBloom": "0x00000000000000000000000000000000000000000020000000000000000000000000000000000000000000200000000000000000000004000000000000000000100000000000004000000000000000001000000080000000000000000000000000000000000000000000000000000000000000000000000000000000000000000000000000000000000010000000000000000020000000000000000000000000000000000000000000000000000000000000008000000008000000000000000000000000000000000000000100000000000000000000000000000000000000000000000000000000000000000000000000000000000000000000000000000000",
      "type": "0x2",
      "transactionHash": "0x0d7f3cecd8ff777422be7a08a06995328b4998dd4a9c4ee8e3b490e2d4394b5c",
      "transactionIndex": "0x2",
      "blockHash": "0x0679c88e3d7f082e89502d18f481a8dfe4ef1d26e0e1688ad915fa87e4594ace",
      "blockNumber": "0xc626b5b",
      "gasUsed": "0x17cec",
      "effectiveGasPrice": "0x5f5e100",
      "from": "0x0e128580d848fb51849ab6564467a9ba79b4820c",
      "to": "0xcecafbcc1cedd5ece307f36dc32133437d6564a5",
      "contractAddress": null,
      "gasUsedForL1": "0x0",
      "l1BlockNumber": "0x909779",
      "timeboosted": false
    },
    {
      "status": "0x1",
      "cumulativeGasUsed": "0x13a20",
      "logs": [
        {
          "address": "0xcecafbcc1cedd5ece307f36dc32133437d6564a5",
          "topics": [
            "0x2940c4bfb544a4b0a5b4262767947b0acc0b8f144197528463c4d476658cff79",
            "0x0000000000000000000000005fd84259d66cd46123540766be93dfe6d43130d7",
            "0x0000000000000000000000006e44e50e3cc14dd16e01c590dc1d7020cb36ed4c"
          ],
          "data": "0x",
          "blockHash": "0x36b347836caaf27c12d8db5524870d8c0e10cd115524dcd3f75960a28c62bf33",
          "blockNumber": "0xc626b62",
          "transactionHash": "0xfcd9aefc6078de69d34ad6d67c1e7db506db884236a9d5ca66dda5028a36d63e",
          "transactionIndex": "0x1",
          "logIndex": "0x0",
          "removed": false
        }
      ],
      "logsBloom": "0x00000001000000000400000000000000000000000000000000000000000000000000000000000000000000200000000000000000000000000000000000000000000000000000004000000000000000001000000080000000000000000000000000000000008000000000000000000000000000080000000008000000000000000000000000000000000010000000000000000000000000000000000000000000000000000000000000000000000000000000000000000008000000000000000000000000000000000000000000000000000000000000000000000000000000000000000000000000100000000000000000000000000000000000000000000000",
      "type": "0x2",
      "transactionHash": "0xfcd9aefc6078de69d34ad6d67c1e7db506db884236a9d5ca66dda5028a36d63e",
      "transactionIndex": "0x1",
      "blockHash": "0x36b347836caaf27c12d8db5524870d8c0e10cd115524dcd3f75960a28c62bf33",
      "blockNumber": "0xc626b62",
      "gasUsed": "0x13a20",
      "effectiveGasPrice": "0x5f5e100",
      "from": "0x0e128580d848fb51849ab6564467a9ba79b4820c",
      "to": "0xcecafbcc1cedd5ece307f36dc32133437d6564a5",
      "contractAddress": null,
      "gasUsedForL1": "0x0",
      "l1BlockNumber": "0x90977a",
      "timeboosted": false
    },
    {
      "status": "0x1",
      "cumulativeGasUsed": "0x13a14",
      "logs": [
        {
          "address": "0xcecafbcc1cedd5ece307f36dc32133437d6564a5",
          "topics": [
            "0x2940c4bfb544a4b0a5b4262767947b0acc0b8f144197528463c4d476658cff79",
            "0x00000000000000000000000075faf114eafb1bdbe2f0316df893fd58ce46aa4d",
            "0x0000000000000000000000000153002d20b96532c639313c2d54c3da09109309"
          ],
          "data": "0x",
          "blockHash": "0x55926093a449027bef42b99e34a96c072b53a271c86be316605d188df288ba1a",
          "blockNumber": "0xc626b68",
          "transactionHash": "0xc798d55ee073e7b6fcfdf6237b2cfb94ebda95bc7d7a5f7992ecfbfdbe77e46a",
          "transactionIndex": "0x1",
          "logIndex": "0x0",
          "removed": false
        }
      ],
      "logsBloom": "0x00000000000000000000000000000000000000000000000000000000000000000000000000000000000000200000000000008000000000000000000000000000000000000000004000000000000000001000000080000000000000000000000000000000000000000000000010000000020000000000002000000010000000000000000000000000000010000000000000000000000000000000000000000000000000000000000000000000000000000000000000000008000000000000000000000000000000000000000000000000000000000000000000000000000000000000000000000000000000000000400000000000000000000000000000000000",
      "type": "0x2",
      "transactionHash": "0xc798d55ee073e7b6fcfdf6237b2cfb94ebda95bc7d7a5f7992ecfbfdbe77e46a",
      "transactionIndex": "0x1",
      "blockHash": "0x55926093a449027bef42b99e34a96c072b53a271c86be316605d188df288ba1a",
      "blockNumber": "0xc626b68",
      "gasUsed": "0x13a14",
      "effectiveGasPrice": "0x5f5e100",
      "from": "0x0e128580d848fb51849ab6564467a9ba79b4820c",
      "to": "0xcecafbcc1cedd5ece307f36dc32133437d6564a5",
      "contractAddress": null,
      "gasUsedForL1": "0x0",
      "l1BlockNumber": "0x90977a",
      "timeboosted": false
    }
  ],
  "libraries": [],
  "pending": [],
  "returns": {},
  "timestamp": 1761259140,
  "chain": 421614,
  "commit": "a7f2160"
}