{
  "transactions": [
    {
      "hash": "0xf3d891dfb2b5f9fd268dfe369e27e6cbb1353190705e23a3a52ff77187bf1771",
      "transactionType": "CALL",
      "contractName": null,
      "contractAddress": "0xeed7ce94c45b10f8b1a62aef43815ae1593aca1d",
      "function": "setRemoteBridge(address,bool)",
      "arguments": [
        "0xD308B2d6939CE6078C61ef87bb638a13d49f8b05",
        "true"
      ],
      "transaction": {
        "from": "0x0e128580d848fb51849ab6564467a9ba79b4820c",
        "to": "0xeed7ce94c45b10f8b1a62aef43815ae1593aca1d",
        "gas": "0x165ac",
        "value": "0x0",
        "input": "0x5caffcd6000000000000000000000000d308b2d6939ce6078c61ef87bb638a13d49f8b050000000000000000000000000000000000000000000000000000000000000001",
        "nonce": "0x2f2",
        "chainId": "0x66eee"
      },
      "additionalContracts": [],
      "isFixedGasLimit": false
    }
  ],
  "receipts": [
    {
      "status": "0x1",
      "cumulativeGasUsed": "0x8f80c",
      "logs": [
        {
          "address": "0xeed7ce94c45b10f8b1a62aef43815ae1593aca1d",
          "topics": [
            "0xa54ce142349af8e389fe00f37d69e79664a287b29c8e325917962e92e4fe5fcd"
          ],
          "data": "0x000000000000000000000000d308b2d6939ce6078c61ef87bb638a13d49f8b05",
          "blockHash": "0x5ca677f13aa0daadb4fd83598cd9b29137f5089079e13d9730f26b80009e833e",
          "blockNumber": "0xc2e4bcc",
          "transactionHash": "0xf3d891dfb2b5f9fd268dfe369e27e6cbb1353190705e23a3a52ff77187bf1771",
          "transactionIndex": "0x8",
          "logIndex": "0x5",
          "removed": false
        }
      ],
      "logsBloom": "0x00000000000001000000000000000000000000000000000000000000000000000000000000000000000000000000000000000000000000000000000000000000000000000000000000000000000000000000000000000000000000000000000000000000000000000000000000000000008000000000000000000000000000000000000000000000000000000000000000000000000000000000000000000000000000000010000000000000000000000000000080000000000000000000000000000000000000000000400000000000000000000000000000000000000000000000000000000000000000000000000000000000000000000000000000100000",
      "type": "0x2",
      "transactionHash": "0xf3d891dfb2b5f9fd268dfe369e27e6cbb1353190705e23a3a52ff77187bf1771",
      "transactionIndex": "0x8",
      "blockHash": "0x5ca677f13aa0daadb4fd83598cd9b29137f5089079e13d9730f26b80009e833e",
      "blockNumber": "0xc2e4bcc",
      "gasUsed": "0x10fc7",
      "effectiveGasPrice": "0x5f5e100",
      "from": "0x0e128580d848fb51849ab6564467a9ba79b4820c",
      "to": "0xeed7ce94c45b10f8b1a62aef43815ae1593aca1d",
      "contractAddress": null,
      "gasUsedForL1": "0x0",
      "l1BlockNumber": "0x8f87dd",
      "timeboosted": false
    }
  ],
  "libraries": [],
  "pending": [],
  "returns": {},
  "timestamp": 1760401522,
  "chain": 421614,
  "commit": "50e392c"
}