{
  "transactions": [
    {
      "hash": "0x80cfc7f46ae66336c1a2f0d0e030a5bcd0c2750a93ca753eef2241a122e8e39f",
      "transactionType": "CALL",
      "contractName": null,
      "contractAddress": "0x9eace79c13b784909d51060e1595e82bff53458a",
      "function": "setRemoteBridge(address,bool)",
      "arguments": [
        "0x5F225bdDB33a65aA9c9021264F0FDe5B9957B97B",
        "true"
      ],
      "transaction": {
        "from": "0x0e128580d848fb51849ab6564467a9ba79b4820c",
        "to": "0x9eace79c13b784909d51060e1595e82bff53458a",
        "gas": "0x165ac",
        "value": "0x0",
        "input": "0x5caffcd60000000000000000000000005f225bddb33a65aa9c9021264f0fde5b9957b97b0000000000000000000000000000000000000000000000000000000000000001",
        "nonce": "0x3a2",
        "chainId": "0x66eee"
      },
      "additionalContracts": [],
      "isFixedGasLimit": false
    },
    {
      "hash": "0x91f9f4546ea979cf007c3ced4ff8ad7e8f18822ef56fe998f8135109654b6dbe",
      "transactionType": "CALL",
      "contractName": null,
      "contractAddress": "0xaa1d5cfce921d7efe943eed7a74ce9c5569c532e",
      "function": "setAllowedToken(address,bool)",
      "arguments": [
        "0xb1D4538B4571d411F07960EF2838Ce337FE1E80E",
        "true"
      ],
      "transaction": {
        "from": "0x0e128580d848fb51849ab6564467a9ba79b4820c",
        "to": "0xaa1d5cfce921d7efe943eed7a74ce9c5569c532e",
        "gas": "0x10ff0",
        "value": "0x0",
        "input": "0x8aaa2284000000000000000000000000b1d4538b4571d411f07960ef2838ce337fe1e80e0000000000000000000000000000000000000000000000000000000000000001",
        "nonce": "0x3a3",
        "chainId": "0x66eee"
      },
      "additionalContracts": [],
      "isFixedGasLimit": false
    },
    {
      "hash": "0x1521cc2407c293762acf61e3c65e2f77ed40b7569bf25c150a10f12971c5cc21",
      "transactionType": "CALL",
      "contractName": null,
      "contractAddress": "0xaa1d5cfce921d7efe943eed7a74ce9c5569c532e",
      "function": "setAllowedToken(address,bool)",
      "arguments": [
        "0x75faf114eafb1BDbe2F0316DF893fd58CE46AA4d",
        "true"
      ],
      "transaction": {
        "from": "0x0e128580d848fb51849ab6564467a9ba79b4820c",
        "to": "0xaa1d5cfce921d7efe943eed7a74ce9c5569c532e",
        "gas": "0x10ff0",
        "value": "0x0",
        "input": "0x8aaa228400000000000000000000000075faf114eafb1bdbe2f0316df893fd58ce46aa4d0000000000000000000000000000000000000000000000000000000000000001",
        "nonce": "0x3a4",
        "chainId": "0x66eee"
      },
      "additionalContracts": [],
      "isFixedGasLimit": false
    },
    {
      "hash": "0x4557b34e021542454e5c8bd218ba0a97fff4d1777201b1a5e56958032e265077",
      "transactionType": "CALL",
      "contractName": null,
      "contractAddress": "0xaa1d5cfce921d7efe943eed7a74ce9c5569c532e",
      "function": "setAllowedToken(address,bool)",
      "arguments": [
        "0x1c7D4B196Cb0C7B01d743Fbc6116a902379C7238",
        "true"
      ],
      "transaction": {
        "from": "0x0e128580d848fb51849ab6564467a9ba79b4820c",
        "to": "0xaa1d5cfce921d7efe943eed7a74ce9c5569c532e",
        "gas": "0x10ff0",
        "value": "0x0",
        "input": "0x8aaa22840000000000000000000000001c7d4b196cb0c7b01d743fbc6116a902379c72380000000000000000000000000000000000000000000000000000000000000001",
        "nonce": "0x3a5",
        "chainId": "0x66eee"
      },
      "additionalContracts": [],
      "isFixedGasLimit": false
    },
    {
      "hash": "0xd250368bd2d657ebd0a57086a49a266055b1336881d2dc4711c70ef861bb3b87",
      "transactionType": "CALL",
      "contractName": null,
      "contractAddress": "0xaa1d5cfce921d7efe943eed7a74ce9c5569c532e",
      "function": "setAllowedToken(address,bool)",
      "arguments": [
        "0x5fd84259d66Cd46123540766Be93DFE6D43130D7",
        "true"
      ],
      "transaction": {
        "from": "0x0e128580d848fb51849ab6564467a9ba79b4820c",
        "to": "0xaa1d5cfce921d7efe943eed7a74ce9c5569c532e",
        "gas": "0x10ff0",
        "value": "0x0",
        "input": "0x8aaa22840000000000000000000000005fd84259d66cd46123540766be93dfe6d43130d70000000000000000000000000000000000000000000000000000000000000001",
        "nonce": "0x3a6",
        "chainId": "0x66eee"
      },
      "additionalContracts": [],
      "isFixedGasLimit": false
    },
    {
      "hash": "0xd046a09ab84b600184ab8b5cef6825e8ba39272834c3191497baf36c46965365",
      "transactionType": "CALL",
      "contractName": null,
      "contractAddress": "0xaa1d5cfce921d7efe943eed7a74ce9c5569c532e",
      "function": "addPriceFeed(address,address)",
      "arguments": [
        "0x1c7D4B196Cb0C7B01d743Fbc6116a902379C7238",
        "0x0153002d20B96532C639313c2d54c3dA09109309"
      ],
      "transaction": {
        "from": "0x0e128580d848fb51849ab6564467a9ba79b4820c",
        "to": "0xaa1d5cfce921d7efe943eed7a74ce9c5569c532e",
        "gas": "0x1f8fe",
        "value": "0x0",
        "input": "0xe8a97a3e0000000000000000000000001c7d4b196cb0c7b01d743fbc6116a902379c72380000000000000000000000000153002d20b96532c639313c2d54c3da09109309",
        "nonce": "0x3a7",
        "chainId": "0x66eee"
      },
      "additionalContracts": [],
      "isFixedGasLimit": false
    },
    {
      "hash": "0x5064287507e0baef7f151c207b56fe65ea68a9043f02862bd777787222812a3a",
      "transactionType": "CALL",
      "contractName": null,
      "contractAddress": "0xaa1d5cfce921d7efe943eed7a74ce9c5569c532e",
      "function": "addPriceFeed(address,address)",
      "arguments": [
        "0x5fd84259d66Cd46123540766Be93DFE6D43130D7",
        "0x0153002d20B96532C639313c2d54c3dA09109309"
      ],
      "transaction": {
        "from": "0x0e128580d848fb51849ab6564467a9ba79b4820c",
        "to": "0xaa1d5cfce921d7efe943eed7a74ce9c5569c532e",
        "gas": "0x1f8fe",
        "value": "0x0",
        "input": "0xe8a97a3e0000000000000000000000005fd84259d66cd46123540766be93dfe6d43130d70000000000000000000000000153002d20b96532c639313c2d54c3da09109309",
        "nonce": "0x3a8",
        "chainId": "0x66eee"
      },
      "additionalContracts": [],
      "isFixedGasLimit": false
    },
    {
      "hash": "0x371ab715508def562790ae5cabe794a175ad61382d1911e789ddb4c91bb68e8d",
      "transactionType": "CALL",
      "contractName": null,
      "contractAddress": "0xaa1d5cfce921d7efe943eed7a74ce9c5569c532e",
      "function": "addPriceFeed(address,address)",
      "arguments": [
        "0x75faf114eafb1BDbe2F0316DF893fd58CE46AA4d",
        "0x0153002d20B96532C639313c2d54c3dA09109309"
      ],
      "transaction": {
        "from": "0x0e128580d848fb51849ab6564467a9ba79b4820c",
        "to": "0xaa1d5cfce921d7efe943eed7a74ce9c5569c532e",
        "gas": "0x1f8fe",
        "value": "0x0",
        "input": "0xe8a97a3e00000000000000000000000075faf114eafb1bdbe2f0316df893fd58ce46aa4d0000000000000000000000000153002d20b96532c639313c2d54c3da09109309",
        "nonce": "0x3a9",
        "chainId": "0x66eee"
      },
      "additionalContracts": [],
      "isFixedGasLimit": false
    }
  ],
  "receipts": [
    {
      "status": "0x1",
      "cumulativeGasUsed": "0x4726c",
      "logs": [
        {
          "address": "0x9eace79c13b784909d51060e1595e82bff53458a",
          "topics": [
            "0xa54ce142349af8e389fe00f37d69e79664a287b29c8e325917962e92e4fe5fcd"
          ],
          "data": "0x0000000000000000000000005f225bddb33a65aa9c9021264f0fde5b9957b97b",
          "blockHash": "0xa05d57b6ebcc785cda52289c854daa897ec3d0b3b30a7020a553b14a747f2766",
          "blockNumber": "0xc52ea6d",
          "transactionHash": "0x80cfc7f46ae66336c1a2f0d0e030a5bcd0c2750a93ca753eef2241a122e8e39f",
          "transactionIndex": "0x4",
          "logIndex": "0x2",
          "removed": false
        }
      ],
      "logsBloom": "0x00000000000001000000000000000000000000000000000000000000000000000000000000000000000100000000000000000000000000000000000000000000000000000000000000000000000000000000000000000000000000000000000000000000000000000000000000000000000000000000004000000000000000000000000000000000000000000000000000000000000000000000000000000000000000000000000000000000000000000000000200000000000000000000000000000000000000000000400000000000000000000000000000000000000000000000000000000000000000000000000000000000000000000000000000100000",
      "type": "0x2",
      "transactionHash": "0x80cfc7f46ae66336c1a2f0d0e030a5bcd0c2750a93ca753eef2241a122e8e39f",
      "transactionIndex": "0x4",
      "blockHash": "0xa05d57b6ebcc785cda52289c854daa897ec3d0b3b30a7020a553b14a747f2766",
      "blockNumber": "0xc52ea6d",
      "gasUsed": "0x10fc7",
      "effectiveGasPrice": "0x5f5e100",
      "from": "0x0e128580d848fb51849ab6564467a9ba79b4820c",
      "to": "0x9eace79c13b784909d51060e1595e82bff53458a",
      "contractAddress": null,
      "gasUsedForL1": "0x0",
      "l1BlockNumber": "0x90470a",
      "timeboosted": false
    },
    {
      "status": "0x1",
      "cumulativeGasUsed": "0x104f8f",
      "logs": [
        {
          "address": "0xaa1d5cfce921d7efe943eed7a74ce9c5569c532e",
          "topics": [
            "0x3a7d4b919c66e25bb96b646b1fa5df47aca5411773bfe1829fc8e86ab7006e6a",
            "0x000000000000000000000000b1d4538b4571d411f07960ef2838ce337fe1e80e"
          ],
          "data": "0x0000000000000000000000000000000000000000000000000000000000000001",
          "blockHash": "0xd3961487fed876ca1db6ba9722e8db5dab9538429feb1f4f673822dc75469b21",
          "blockNumber": "0xc52ea72",
          "transactionHash": "0x91f9f4546ea979cf007c3ced4ff8ad7e8f18822ef56fe998f8135109654b6dbe",
          "transactionIndex": "0x6",
          "logIndex": "0xd",
          "removed": false
        }
      ],
      "logsBloom": "0x00400000000000000000000000000000000000000000000000000000008000000000000004000000000000000000000000000000000000000000000000000000000000000000000000000000000000000020000800000000000000000000000000000000001000000000000000000000000000000000000000000000000000000000000000000000000000001000000000000000000000000000000000000000000000000000000000000000000000000000000000000000000000000000000000000000000000000000000000004000000000000000000000000000000000000000000000000000000000000000000000000000000000000010000000000000",
      "type": "0x2",
      "transactionHash": "0x91f9f4546ea979cf007c3ced4ff8ad7e8f18822ef56fe998f8135109654b6dbe",
      "transactionIndex": "0x6",
      "blockHash": "0xd3961487fed876ca1db6ba9722e8db5dab9538429feb1f4f673822dc75469b21",
      "blockNumber": "0xc52ea72",
      "gasUsed": "0xce17",
      "effectiveGasPrice": "0x5f5e100",
      "from": "0x0e128580d848fb51849ab6564467a9ba79b4820c",
      "to": "0xaa1d5cfce921d7efe943eed7a74ce9c5569c532e",
      "contractAddress": null,
      "gasUsedForL1": "0x0",
      "l1BlockNumber": "0x90470a",
      "timeboosted": false
    },
    {
      "status": "0x1",
      "cumulativeGasUsed": "0xce17",
      "logs": [
        {
          "address": "0xaa1d5cfce921d7efe943eed7a74ce9c5569c532e",
          "topics": [
            "0x3a7d4b919c66e25bb96b646b1fa5df47aca5411773bfe1829fc8e86ab7006e6a",
            "0x00000000000000000000000075faf114eafb1bdbe2f0316df893fd58ce46aa4d"
          ],
          "data": "0x0000000000000000000000000000000000000000000000000000000000000001",
          "blockHash": "0xb3a94f26ce0e6d4f4ccd567c86b6427236b8d046678fa2580715aa1277e4c6d5",
          "blockNumber": "0xc52ea77",
          "transactionHash": "0x1521cc2407c293762acf61e3c65e2f77ed40b7569bf25c150a10f12971c5cc21",
          "transactionIndex": "0x1",
          "logIndex": "0x0",
          "removed": false
        }
      ],
      "logsBloom": "0x00000000000000000000000000000000000000000000000000000000000000000000000004000000000000000000000000008000000000000000000000000000000000000000000000000000000000000020000800000000000000000000000000000000001000000000000000000000020000000000002000000000000000000000000000000000000000001000000000000000000000000000000000000000000000000000000000000000000000000000000000000000000000000000000000000000000000000000000000004000000000000000000000000000000000000000000000000000000000000000000000000000000000000000000000000000",
      "type": "0x2",
      "transactionHash": "0x1521cc2407c293762acf61e3c65e2f77ed40b7569bf25c150a10f12971c5cc21",
      "transactionIndex": "0x1",
      "blockHash": "0xb3a94f26ce0e6d4f4ccd567c86b6427236b8d046678fa2580715aa1277e4c6d5",
      "blockNumber": "0xc52ea77",
      "gasUsed": "0xce17",
      "effectiveGasPrice": "0x5f5e100",
      "from": "0x0e128580d848fb51849ab6564467a9ba79b4820c",
      "to": "0xaa1d5cfce921d7efe943eed7a74ce9c5569c532e",
      "contractAddress": null,
      "gasUsedForL1": "0x0",
      "l1BlockNumber": "0x90470a",
      "timeboosted": false
    },
    {
      "status": "0x1",
      "cumulativeGasUsed": "0xbd78e",
      "logs": [
        {
          "address": "0xaa1d5cfce921d7efe943eed7a74ce9c5569c532e",
          "topics": [
            "0x3a7d4b919c66e25bb96b646b1fa5df47aca5411773bfe1829fc8e86ab7006e6a",
            "0x0000000000000000000000001c7d4b196cb0c7b01d743fbc6116a902379c7238"
          ],
          "data": "0x0000000000000000000000000000000000000000000000000000000000000001",
          "blockHash": "0xf1dd4ef078b11a4325da3643ff8ce4ea0fe4b9c43d4305031bd7a72a5798616b",
          "blockNumber": "0xc52ea7c",
          "transactionHash": "0x4557b34e021542454e5c8bd218ba0a97fff4d1777201b1a5e56958032e265077",
          "transactionIndex": "0x3",
          "logIndex": "0x2",
          "removed": false
        }
      ],
      "logsBloom": "0x00000000000000000000000000000000000000000000000000000000000000000000000004000000000000000000000000000000000004000000000000000000100000000000000000000000000000000020000800000000000000000000000000000000001000000000000000000000000000000000000000000000000000000000000000000000000000001000000000000000000000000000000000000000000000000000000000000000000000000000008000000000000000000000000000000000000000000000000000004000000000000000000000000000000000000000000000000000000000000000000000000000000000000000000000000000",
      "type": "0x2",
      "transactionHash": "0x4557b34e021542454e5c8bd218ba0a97fff4d1777201b1a5e56958032e265077",
      "transactionIndex": "0x3",
      "blockHash": "0xf1dd4ef078b11a4325da3643ff8ce4ea0fe4b9c43d4305031bd7a72a5798616b",
      "blockNumber": "0xc52ea7c",
      "gasUsed": "0xce17",
      "effectiveGasPrice": "0x5f5e100",
      "from": "0x0e128580d848fb51849ab6564467a9ba79b4820c",
      "to": "0xaa1d5cfce921d7efe943eed7a74ce9c5569c532e",
      "contractAddress": null,
      "gasUsedForL1": "0x0",
      "l1BlockNumber": "0x90470a",
      "timeboosted": false
    },
    {
      "status": "0x1",
      "cumulativeGasUsed": "0x22f78",
      "logs": [
        {
          "address": "0xaa1d5cfce921d7efe943eed7a74ce9c5569c532e",
          "topics": [
            "0x3a7d4b919c66e25bb96b646b1fa5df47aca5411773bfe1829fc8e86ab7006e6a",
            "0x0000000000000000000000005fd84259d66cd46123540766be93dfe6d43130d7"
          ],
          "data": "0x0000000000000000000000000000000000000000000000000000000000000001",
          "blockHash": "0x9ba11f8256db118ea47bdb1431dd79b0510f7f72944f724881ab188012cf3858",
          "blockNumber": "0xc52ea81",
          "transactionHash": "0xd250368bd2d657ebd0a57086a49a266055b1336881d2dc4711c70ef861bb3b87",
          "transactionIndex": "0x2",
          "logIndex": "0x1",
          "removed": false
        }
      ],
      "logsBloom": "0x00000001000000000000000000000000000000000000000000000000000000000000000004000000000000000000000000000000000000000000000000000000000000000000000000000000000000000020000800000000000000000000000000000000009000000000000000000000000000000000000000000000000000000000000000000000000000001000000000000000000000000000000000000000000000000000000000000000000000000000000000000000000000000000000000000000000000000000000000004000000000000000000000000000000000000000000000000000100000000000000000000000000000000000000000000000",
      "type": "0x2",
      "transactionHash": "0xd250368bd2d657ebd0a57086a49a266055b1336881d2dc4711c70ef861bb3b87",
      "transactionIndex": "0x2",
      "blockHash": "0x9ba11f8256db118ea47bdb1431dd79b0510f7f72944f724881ab188012cf3858",
      "blockNumber": "0xc52ea81",
      "gasUsed": "0xce17",
      "effectiveGasPrice": "0x5f5e100",
      "from": "0x0e128580d848fb51849ab6564467a9ba79b4820c",
      "to": "0xaa1d5cfce921d7efe943eed7a74ce9c5569c532e",
      "contractAddress": null,
      "gasUsedForL1": "0x0",
      "l1BlockNumber": "0x90470a",
      "timeboosted": false
    },
    {
      "status": "0x1",
      "cumulativeGasUsed": "0x278a0",
      "logs": [
        {
          "address": "0xaa1d5cfce921d7efe943eed7a74ce9c5569c532e",
          "topics": [
            "0x2940c4bfb544a4b0a5b4262767947b0acc0b8f144197528463c4d476658cff79",
            "0x0000000000000000000000001c7d4b196cb0c7b01d743fbc6116a902379c7238",
            "0x0000000000000000000000000153002d20b96532c639313c2d54c3da09109309"
          ],
          "data": "0x",
          "blockHash": "0x94f584beaa02462e703087c24752c778b176f6fb93a5e586215654f6e60c1cd0",
          "blockNumber": "0xc52ea86",
          "transactionHash": "0xd046a09ab84b600184ab8b5cef6825e8ba39272834c3191497baf36c46965365",
          "transactionIndex": "0x2",
          "logIndex": "0x0",
          "removed": false
        }
      ],
      "logsBloom": "0x00000000000000000000000000000000000000000000000000000000000000000000000004000000000000000000000000000000000004000000000000000000100000000000004000000000000000001000000800000000000000000000000000000000000000000000000010000000000000000000000000000010000000000000000000000000000010000000000000000000000000000000000000000000000000000000000000000000000000000000008000000000000000000000000000000000000000000000000000004000000000000000000000000000000000000000000000000000000000000000400000000000000000000000000000000000",
      "type": "0x2",
      "transactionHash": "0xd046a09ab84b600184ab8b5cef6825e8ba39272834c3191497baf36c46965365",
      "transactionIndex": "0x2",
      "blockHash": "0x94f584beaa02462e703087c24752c778b176f6fb93a5e586215654f6e60c1cd0",
      "blockNumber": "0xc52ea86",
      "gasUsed": "0x17ce0",
      "effectiveGasPrice": "0x5f5e100",
      "from": "0x0e128580d848fb51849ab6564467a9ba79b4820c",
      "to": "0xaa1d5cfce921d7efe943eed7a74ce9c5569c532e",
      "contractAddress": null,
      "gasUsedForL1": "0x0",
      "l1BlockNumber": "0x90470a",
      "timeboosted": false
    },
    {
      "status": "0x1",
      "cumulativeGasUsed": "0x13a14",
      "logs": [
        {
          "address": "0xaa1d5cfce921d7efe943eed7a74ce9c5569c532e",
          "topics": [
            "0x2940c4bfb544a4b0a5b4262767947b0acc0b8f144197528463c4d476658cff79",
            "0x0000000000000000000000005fd84259d66cd46123540766be93dfe6d43130d7",
            "0x0000000000000000000000000153002d20b96532c639313c2d54c3da09109309"
          ],
          "data": "0x",
          "blockHash": "0xae6463bb0b9bbfd5f51c8f617d84a630d4bf67673203b015d3c07212e2787804",
          "blockNumber": "0xc52ea8b",
          "transactionHash": "0x5064287507e0baef7f151c207b56fe65ea68a9043f02862bd777787222812a3a",
          "transactionIndex": "0x1",
          "logIndex": "0x0",
          "removed": false
        }
      ],
      "logsBloom": "0x00000001000000000000000000000000000000000000000000000000000000000000000004000000000000000000000000000000000000000000000000000000000000000000004000000000000000001000000800000000000000000000000000000000008000000000000010000000000000000000000000000010000000000000000000000000000010000000000000000000000000000000000000000000000000000000000000000000000000000000000000000000000000000000000000000000000000000000000000004000000000000000000000000000000000000000000000000000100000000000400000000000000000000000000000000000",
      "type": "0x2",
      "transactionHash": "0x5064287507e0baef7f151c207b56fe65ea68a9043f02862bd777787222812a3a",
      "transactionIndex": "0x1",
      "blockHash": "0xae6463bb0b9bbfd5f51c8f617d84a630d4bf67673203b015d3c07212e2787804",
      "blockNumber": "0xc52ea8b",
      "gasUsed": "0x13a14",
      "effectiveGasPrice": "0x5f5e100",
      "from": "0x0e128580d848fb51849ab6564467a9ba79b4820c",
      "to": "0xaa1d5cfce921d7efe943eed7a74ce9c5569c532e",
      "contractAddress": null,
      "gasUsedForL1": "0x0",
      "l1BlockNumber": "0x90470a",
      "timeboosted": false
    },
    {
      "status": "0x1",
      "cumulativeGasUsed": "0x1ee1b",
      "logs": [
        {
          "address": "0xaa1d5cfce921d7efe943eed7a74ce9c5569c532e",
          "topics": [
            "0x2940c4bfb544a4b0a5b4262767947b0acc0b8f144197528463c4d476658cff79",
            "0x00000000000000000000000075faf114eafb1bdbe2f0316df893fd58ce46aa4d",
            "0x0000000000000000000000000153002d20b96532c639313c2d54c3da09109309"
          ],
          "data": "0x",
          "blockHash": "0x30a8c9f0b6d70dff700413d9375d043d9d574550def2e78704f3acc28ce05011",
          "blockNumber": "0xc52ea90",
          "transactionHash": "0x371ab715508def562790ae5cabe794a175ad61382d1911e789ddb4c91bb68e8d",
          "transactionIndex": "0x2",
          "logIndex": "0x1",
          "removed": false
        }
      ],
      "logsBloom": "0x00000000000000000000000000000000000000000000000000000000000000000000000004000000000000000000000000008000000000000000000000000000000000000000004000000000000000001000000800000000000000000000000000000000000000000000000010000000020000000000002000000010000000000000000000000000000010000000000000000000000000000000000000000000000000000000000000000000000000000000000000000000000000000000000000000000000000000000000000004000000000000000000000000000000000000000000000000000000000000000400000000000000000000000000000000000",
      "type": "0x2",
      "transactionHash": "0x371ab715508def562790ae5cabe794a175ad61382d1911e789ddb4c91bb68e8d",
      "transactionIndex": "0x2",
      "blockHash": "0x30a8c9f0b6d70dff700413d9375d043d9d574550def2e78704f3acc28ce05011",
      "blockNumber": "0xc52ea90",
      "gasUsed": "0x13a14",
      "effectiveGasPrice": "0x5f5e100",
      "from": "0x0e128580d848fb51849ab6564467a9ba79b4820c",
      "to": "0xaa1d5cfce921d7efe943eed7a74ce9c5569c532e",
      "contractAddress": null,
      "gasUsedForL1": "0x0",
      "l1BlockNumber": "0x90470a",
      "timeboosted": false
    }
  ],
  "libraries": [],
  "pending": [],
  "returns": {},
  "timestamp": 1761002954,
  "chain": 421614,
  "commit": "688c141"
}